{
  "contracts/YellowUSDT.sol": {
    "YellowUSDT": {
      "abi": [
        {
          "inputs": [],
          "name": "AddressAlreadyAdded",
          "type": "error"
        },
        {
          "inputs": [],
          "name": "AdminBadRole",
          "type": "error"
        },
        {
          "inputs": [],
          "name": "CallProxyBadRole",
          "type": "error"
        },
        {
          "inputs": [],
          "name": "ChainToIsNotSupported",
          "type": "error"
        },
        {
          "inputs": [
            {
              "internalType": "bytes",
              "name": "nativeSender",
              "type": "bytes"
            },
            {
              "internalType": "uint256",
              "name": "chainIdFrom",
              "type": "uint256"
            }
          ],
          "name": "NativeSenderBadRole",
          "type": "error"
        },
        {
          "inputs": [],
          "name": "RemovingMissingAddress",
          "type": "error"
        },
        {
          "anonymous": false,
          "inputs": [
            {
              "indexed": true,
              "internalType": "address",
              "name": "owner",
              "type": "address"
            },
            {
              "indexed": true,
              "internalType": "address",
              "name": "spender",
              "type": "address"
            },
            {
              "indexed": false,
              "internalType": "uint256",
              "name": "value",
              "type": "uint256"
            }
          ],
          "name": "Approval",
          "type": "event"
        },
        {
          "anonymous": false,
          "inputs": [
            {
              "indexed": false,
              "internalType": "address",
              "name": "newAddress",
              "type": "address"
            },
            {
              "indexed": false,
              "internalType": "uint256",
              "name": "chainIdTo",
              "type": "uint256"
            }
          ],
          "name": "ContractAddressOnChainIdUpdated",
          "type": "event"
        },
        {
          "anonymous": false,
          "inputs": [
            {
              "indexed": false,
              "internalType": "bytes",
              "name": "nativeSender",
              "type": "bytes"
            },
            {
              "indexed": false,
              "internalType": "uint256",
              "name": "chainIdFrom",
              "type": "uint256"
            },
            {
              "indexed": false,
              "internalType": "bool",
              "name": "enabled",
              "type": "bool"
            }
          ],
          "name": "ControllingAddressUpdated",
          "type": "event"
        },
        {
          "anonymous": false,
          "inputs": [
            {
              "indexed": false,
              "internalType": "uint8",
              "name": "version",
              "type": "uint8"
            }
          ],
          "name": "Initialized",
          "type": "event"
        },
        {
          "anonymous": false,
          "inputs": [
            {
              "indexed": false,
              "internalType": "address",
              "name": "account",
              "type": "address"
            }
          ],
          "name": "Paused",
          "type": "event"
        },
        {
          "anonymous": false,
          "inputs": [
            {
              "indexed": true,
              "internalType": "bytes32",
              "name": "role",
              "type": "bytes32"
            },
            {
              "indexed": true,
              "internalType": "bytes32",
              "name": "previousAdminRole",
              "type": "bytes32"
            },
            {
              "indexed": true,
              "internalType": "bytes32",
              "name": "newAdminRole",
              "type": "bytes32"
            }
          ],
          "name": "RoleAdminChanged",
          "type": "event"
        },
        {
          "anonymous": false,
          "inputs": [
            {
              "indexed": true,
              "internalType": "bytes32",
              "name": "role",
              "type": "bytes32"
            },
            {
              "indexed": true,
              "internalType": "address",
              "name": "account",
              "type": "address"
            },
            {
              "indexed": true,
              "internalType": "address",
              "name": "sender",
              "type": "address"
            }
          ],
          "name": "RoleGranted",
          "type": "event"
        },
        {
          "anonymous": false,
          "inputs": [
            {
              "indexed": true,
              "internalType": "bytes32",
              "name": "role",
              "type": "bytes32"
            },
            {
              "indexed": true,
              "internalType": "address",
              "name": "account",
              "type": "address"
            },
            {
              "indexed": true,
              "internalType": "address",
              "name": "sender",
              "type": "address"
            }
          ],
          "name": "RoleRevoked",
          "type": "event"
        },
        {
          "anonymous": false,
          "inputs": [
            {
              "indexed": true,
              "internalType": "address",
              "name": "from",
              "type": "address"
            },
            {
              "indexed": true,
              "internalType": "address",
              "name": "to",
              "type": "address"
            },
            {
              "indexed": false,
              "internalType": "uint256",
              "name": "value",
              "type": "uint256"
            }
          ],
          "name": "Transfer",
          "type": "event"
        },
        {
          "anonymous": false,
          "inputs": [
            {
              "indexed": false,
              "internalType": "address",
              "name": "account",
              "type": "address"
            }
          ],
          "name": "Unpaused",
          "type": "event"
        },
        {
          "inputs": [],
          "name": "DEFAULT_ADMIN_ROLE",
          "outputs": [
            {
              "internalType": "bytes32",
              "name": "",
              "type": "bytes32"
            }
          ],
          "stateMutability": "view",
          "type": "function"
        },
        {
          "inputs": [],
          "name": "MINTER_ROLE",
          "outputs": [
            {
              "internalType": "bytes32",
              "name": "",
              "type": "bytes32"
            }
          ],
          "stateMutability": "view",
          "type": "function"
        },
        {
          "inputs": [
            {
              "internalType": "bytes",
              "name": "_nativeSender",
              "type": "bytes"
            },
            {
              "internalType": "uint256",
              "name": "_chainIdFrom",
              "type": "uint256"
            }
          ],
          "name": "addControllingAddress",
          "outputs": [],
          "stateMutability": "nonpayable",
          "type": "function"
        },
        {
          "inputs": [
            {
              "internalType": "address",
              "name": "owner",
              "type": "address"
            },
            {
              "internalType": "address",
              "name": "spender",
              "type": "address"
            }
          ],
          "name": "allowance",
          "outputs": [
            {
              "internalType": "uint256",
              "name": "",
              "type": "uint256"
            }
          ],
          "stateMutability": "view",
          "type": "function"
        },
        {
          "inputs": [
            {
              "internalType": "address",
              "name": "spender",
              "type": "address"
            },
            {
              "internalType": "uint256",
              "name": "amount",
              "type": "uint256"
            }
          ],
          "name": "approve",
          "outputs": [
            {
              "internalType": "bool",
              "name": "",
              "type": "bool"
            }
          ],
          "stateMutability": "nonpayable",
          "type": "function"
        },
        {
          "inputs": [
            {
              "internalType": "address",
              "name": "account",
              "type": "address"
            }
          ],
          "name": "balanceOf",
          "outputs": [
            {
              "internalType": "uint256",
              "name": "",
              "type": "uint256"
            }
          ],
          "stateMutability": "view",
          "type": "function"
        },
        {
          "inputs": [
            {
              "internalType": "uint256",
              "name": "amount",
              "type": "uint256"
            }
          ],
          "name": "burn",
          "outputs": [],
          "stateMutability": "nonpayable",
          "type": "function"
        },
        {
          "inputs": [
            {
              "internalType": "address",
              "name": "account",
              "type": "address"
            },
            {
              "internalType": "uint256",
              "name": "amount",
              "type": "uint256"
            }
          ],
          "name": "burnFrom",
          "outputs": [],
          "stateMutability": "nonpayable",
          "type": "function"
        },
        {
          "inputs": [
            {
              "internalType": "uint256",
              "name": "",
              "type": "uint256"
            }
          ],
          "name": "chainIdToContractAddress",
          "outputs": [
            {
              "internalType": "address",
              "name": "",
              "type": "address"
            }
          ],
          "stateMutability": "view",
          "type": "function"
        },
        {
          "inputs": [],
          "name": "deBridgeGate",
          "outputs": [
            {
              "internalType": "contract IDeBridgeGate",
              "name": "",
              "type": "address"
            }
          ],
          "stateMutability": "view",
          "type": "function"
        },
        {
          "inputs": [],
          "name": "decimals",
          "outputs": [
            {
              "internalType": "uint8",
              "name": "",
              "type": "uint8"
            }
          ],
          "stateMutability": "view",
          "type": "function"
        },
        {
          "inputs": [
            {
              "internalType": "address",
              "name": "spender",
              "type": "address"
            },
            {
              "internalType": "uint256",
              "name": "subtractedValue",
              "type": "uint256"
            }
          ],
          "name": "decreaseAllowance",
          "outputs": [
            {
              "internalType": "bool",
              "name": "",
              "type": "bool"
            }
          ],
          "stateMutability": "nonpayable",
          "type": "function"
        },
        {
          "inputs": [],
          "name": "getChainId",
          "outputs": [
            {
              "internalType": "uint256",
              "name": "cid",
              "type": "uint256"
            }
          ],
          "stateMutability": "view",
          "type": "function"
        },
        {
          "inputs": [
            {
              "internalType": "uint256",
              "name": "_chainId",
              "type": "uint256"
            },
            {
              "internalType": "address",
              "name": "_tokenAddress",
              "type": "address"
            }
          ],
          "name": "getDebridgeId",
          "outputs": [
            {
              "internalType": "bytes32",
              "name": "",
              "type": "bytes32"
            }
          ],
          "stateMutability": "pure",
          "type": "function"
        },
        {
          "inputs": [
            {
              "internalType": "bytes32",
              "name": "role",
              "type": "bytes32"
            }
          ],
          "name": "getRoleAdmin",
          "outputs": [
            {
              "internalType": "bytes32",
              "name": "",
              "type": "bytes32"
            }
          ],
          "stateMutability": "view",
          "type": "function"
        },
        {
          "inputs": [
            {
              "internalType": "bytes32",
              "name": "role",
              "type": "bytes32"
            },
            {
              "internalType": "address",
              "name": "account",
              "type": "address"
            }
          ],
          "name": "grantRole",
          "outputs": [],
          "stateMutability": "nonpayable",
          "type": "function"
        },
        {
          "inputs": [
            {
              "internalType": "bytes32",
              "name": "role",
              "type": "bytes32"
            },
            {
              "internalType": "address",
              "name": "account",
              "type": "address"
            }
          ],
          "name": "hasRole",
          "outputs": [
            {
              "internalType": "bool",
              "name": "",
              "type": "bool"
            }
          ],
          "stateMutability": "view",
          "type": "function"
        },
        {
          "inputs": [
            {
              "internalType": "address",
              "name": "spender",
              "type": "address"
            },
            {
              "internalType": "uint256",
              "name": "addedValue",
              "type": "uint256"
            }
          ],
          "name": "increaseAllowance",
          "outputs": [
            {
              "internalType": "bool",
              "name": "",
              "type": "bool"
            }
          ],
          "stateMutability": "nonpayable",
          "type": "function"
        },
        {
          "inputs": [
            {
              "internalType": "contract IDeBridgeGate",
              "name": "_deBridgeGate",
              "type": "address"
            }
          ],
          "name": "initialize",
          "outputs": [],
          "stateMutability": "nonpayable",
          "type": "function"
        },
        {
          "inputs": [
            {
              "internalType": "uint256",
              "name": "",
              "type": "uint256"
            },
            {
              "internalType": "bytes",
              "name": "",
              "type": "bytes"
            }
          ],
          "name": "isAddressFromChainIdControlling",
          "outputs": [
            {
              "internalType": "bool",
              "name": "",
              "type": "bool"
            }
          ],
          "stateMutability": "view",
          "type": "function"
        },
        {
          "inputs": [
            {
              "internalType": "bytes",
              "name": "_nativeSender",
              "type": "bytes"
            },
            {
              "internalType": "uint256",
              "name": "_chainIdFrom",
              "type": "uint256"
            }
          ],
          "name": "isControllingAddress",
          "outputs": [
            {
              "internalType": "bool",
              "name": "",
              "type": "bool"
            }
          ],
          "stateMutability": "view",
          "type": "function"
        },
        {
          "inputs": [
            {
              "internalType": "address",
              "name": "to",
              "type": "address"
            },
            {
              "internalType": "uint256",
              "name": "amount",
              "type": "uint256"
            }
          ],
          "name": "mint",
          "outputs": [],
          "stateMutability": "nonpayable",
          "type": "function"
        },
        {
          "inputs": [],
          "name": "name",
          "outputs": [
            {
              "internalType": "string",
              "name": "",
              "type": "string"
            }
          ],
          "stateMutability": "view",
          "type": "function"
        },
        {
          "inputs": [],
          "name": "pause",
          "outputs": [],
          "stateMutability": "nonpayable",
          "type": "function"
        },
        {
          "inputs": [],
          "name": "paused",
          "outputs": [
            {
              "internalType": "bool",
              "name": "",
              "type": "bool"
            }
          ],
          "stateMutability": "view",
          "type": "function"
        },
        {
          "inputs": [
            {
              "internalType": "bytes",
              "name": "_nativeSender",
              "type": "bytes"
            },
            {
              "internalType": "uint256",
              "name": "_chainIdFrom",
              "type": "uint256"
            }
          ],
          "name": "removeControllingAddress",
          "outputs": [],
          "stateMutability": "nonpayable",
          "type": "function"
        },
        {
          "inputs": [
            {
              "internalType": "bytes32",
              "name": "role",
              "type": "bytes32"
            },
            {
              "internalType": "address",
              "name": "account",
              "type": "address"
            }
          ],
          "name": "renounceRole",
          "outputs": [],
          "stateMutability": "nonpayable",
          "type": "function"
        },
        {
          "inputs": [
            {
              "internalType": "bytes32",
              "name": "role",
              "type": "bytes32"
            },
            {
              "internalType": "address",
              "name": "account",
              "type": "address"
            }
          ],
          "name": "revokeRole",
          "outputs": [],
          "stateMutability": "nonpayable",
          "type": "function"
        },
        {
          "inputs": [
            {
              "internalType": "address",
              "name": "_address",
              "type": "address"
            },
            {
              "internalType": "uint256",
              "name": "_chainIdTo",
              "type": "uint256"
            }
          ],
          "name": "setContractAddressOnChainId",
          "outputs": [],
          "stateMutability": "nonpayable",
          "type": "function"
        },
        {
          "inputs": [
            {
              "internalType": "bytes4",
              "name": "interfaceId",
              "type": "bytes4"
            }
          ],
          "name": "supportsInterface",
          "outputs": [
            {
              "internalType": "bool",
              "name": "",
              "type": "bool"
            }
          ],
          "stateMutability": "view",
          "type": "function"
        },
        {
          "inputs": [],
          "name": "symbol",
          "outputs": [
            {
              "internalType": "string",
              "name": "",
              "type": "string"
            }
          ],
          "stateMutability": "view",
          "type": "function"
        },
        {
          "inputs": [],
          "name": "totalSupply",
          "outputs": [
            {
              "internalType": "uint256",
              "name": "",
              "type": "uint256"
            }
          ],
          "stateMutability": "view",
          "type": "function"
        },
        {
          "inputs": [
            {
              "internalType": "address",
              "name": "to",
              "type": "address"
            },
            {
              "internalType": "uint256",
              "name": "amount",
              "type": "uint256"
            }
          ],
          "name": "transfer",
          "outputs": [
            {
              "internalType": "bool",
              "name": "",
              "type": "bool"
            }
          ],
          "stateMutability": "nonpayable",
          "type": "function"
        },
        {
          "inputs": [
            {
              "internalType": "address",
              "name": "to",
              "type": "address"
            },
            {
              "internalType": "uint256",
              "name": "amount",
              "type": "uint256"
            },
            {
              "internalType": "uint256",
              "name": "toChainId",
              "type": "uint256"
            }
          ],
          "name": "transferCrossChain",
          "outputs": [
            {
              "internalType": "bool",
              "name": "",
              "type": "bool"
            }
          ],
          "stateMutability": "nonpayable",
          "type": "function"
        },
        {
          "inputs": [
            {
              "internalType": "address",
              "name": "from",
              "type": "address"
            },
            {
              "internalType": "address",
              "name": "to",
              "type": "address"
            },
            {
              "internalType": "uint256",
              "name": "amount",
              "type": "uint256"
            }
          ],
          "name": "transferFrom",
          "outputs": [
            {
              "internalType": "bool",
              "name": "",
              "type": "bool"
            }
          ],
          "stateMutability": "nonpayable",
          "type": "function"
        },
        {
          "inputs": [],
          "name": "unpause",
          "outputs": [],
          "stateMutability": "nonpayable",
          "type": "function"
        },
        {
          "inputs": [],
          "name": "version",
          "outputs": [
            {
              "internalType": "uint256",
              "name": "",
              "type": "uint256"
            }
          ],
          "stateMutability": "pure",
          "type": "function"
        }
      ],
      "evm": {
        "bytecode": {
          "linkReferences": {},
          "object": "608060405234801561001057600080fd5b50614295806100206000396000f3fe608060405234801561001057600080fd5b50600436106102275760003560e01c80635c975abb11610130578063a00461aa116100b8578063ca777fbf1161007c578063ca777fbf1461069c578063cb059294146106ba578063d5391393146106ea578063d547741f14610708578063dd62ed3e1461072457610227565b8063a00461aa146105e6578063a217fddf14610602578063a457c2d714610620578063a9059cbb14610650578063c4d66de81461068057610227565b80638456cb59116100ff5780638456cb591461052e57806391d148541461053857806395d89b411461056857806396166210146105865780639682b909146105b657610227565b80635c975abb146104a85780636586f26b146104c657806370a08231146104e257806379cc67901461051257610227565b8063313ce567116101b35780633f4ba83a116101825780633f4ba83a1461041857806340c10f191461042257806342966c681461043e5780635062a2b01461045a57806354fd4d501461048a57610227565b8063313ce567146103905780633408e470146103ae57806336568abe146103cc57806339509351146103e857610227565b806323b872dd116101fa57806323b872dd146102c8578063248a9ca3146102f85780632c13e57c146103285780632f2ff15d1461034457806330a37ce71461036057610227565b806301ffc9a71461022c57806306fdde031461025c578063095ea7b31461027a57806318160ddd146102aa575b600080fd5b61024660048036038101906102419190612b55565b610754565b6040516102539190612b9d565b60405180910390f35b6102646107ce565b6040516102719190612c51565b60405180910390f35b610294600480360381019061028f9190612d07565b610860565b6040516102a19190612b9d565b60405180910390f35b6102b2610883565b6040516102bf9190612d56565b60405180910390f35b6102e260048036038101906102dd9190612d71565b61088d565b6040516102ef9190612b9d565b60405180910390f35b610312600480360381019061030d9190612dfa565b6108bc565b60405161031f9190612e36565b60405180910390f35b610342600480360381019061033d9190612f86565b6108dc565b005b61035e60048036038101906103599190612fe2565b610a1d565b005b61037a60048036038101906103759190613022565b610a3e565b6040516103879190612b9d565b60405180910390f35b610398610a84565b6040516103a5919061309a565b60405180910390f35b6103b6610a8d565b6040516103c39190612d56565b60405180910390f35b6103e660048036038101906103e19190612fe2565b610a95565b005b61040260048036038101906103fd9190612d07565b610b18565b60405161040f9190612b9d565b60405180910390f35b610420610b4f565b005b61043c60048036038101906104379190612d07565b610b9c565b005b610458600480360381019061045391906130b5565b610bd5565b005b610474600480360381019061046f9190612f86565b610be9565b6040516104819190612b9d565b60405180910390f35b610492610c31565b60405161049f9190612d56565b60405180910390f35b6104b0610c3a565b6040516104bd9190612b9d565b60405180910390f35b6104e060048036038101906104db9190612d07565b610c51565b005b6104fc60048036038101906104f791906130e2565b610d24565b6040516105099190612d56565b60405180910390f35b61052c60048036038101906105279190612d07565b610d6d565b005b610536610d8d565b005b610552600480360381019061054d9190612fe2565b610dda565b60405161055f9190612b9d565b60405180910390f35b610570610e45565b60405161057d9190612c51565b60405180910390f35b6105a0600480360381019061059b919061310f565b610ed7565b6040516105ad9190612b9d565b60405180910390f35b6105d060048036038101906105cb9190613162565b610f24565b6040516105dd9190612e36565b60405180910390f35b61060060048036038101906105fb9190612f86565b610f57565b005b61060a611097565b6040516106179190612e36565b60405180910390f35b61063a60048036038101906106359190612d07565b61109e565b6040516106479190612b9d565b60405180910390f35b61066a60048036038101906106659190612d07565b611115565b6040516106779190612b9d565b60405180910390f35b61069a600480360381019061069591906131e0565b611138565b005b6106a4611279565b6040516106b1919061326c565b60405180910390f35b6106d460048036038101906106cf91906130b5565b6112a0565b6040516106e19190613296565b60405180910390f35b6106f26112d4565b6040516106ff9190612e36565b60405180910390f35b610722600480360381019061071d9190612fe2565b6112f8565b005b61073e600480360381019061073991906132b1565b611319565b60405161074b9190612d56565b60405180910390f35b60007f7965db0b000000000000000000000000000000000000000000000000000000007bffffffffffffffffffffffffffffffffffffffffffffffffffffffff1916827bffffffffffffffffffffffffffffffffffffffffffffffffffffffff191614806107c757506107c6826113a0565b5b9050919050565b6060603680546107dd90613320565b80601f016020809104026020016040519081016040528092919081815260200182805461080990613320565b80156108565780601f1061082b57610100808354040283529160200191610856565b820191906000526020600020905b81548152906001019060200180831161083957829003601f168201915b5050505050905090565b60008061086b61140a565b9050610878818585611412565b600191505092915050565b6000603554905090565b60008061089861140a565b90506108a58582856115db565b6108b0858585611667565b60019150509392505050565b600060c96000838152602001908152602001600020600101549050919050565b6108e96000801b33610dda565b61091f576040517fde8e41fa00000000000000000000000000000000000000000000000000000000815260040160405180910390fd5b61012e6000828152602001908152602001600020826040516109419190613398565b908152602001604051809103902060009054906101000a900460ff1615610994576040517f6d09561c00000000000000000000000000000000000000000000000000000000815260040160405180910390fd5b600161012e6000838152602001908152602001600020836040516109b89190613398565b908152602001604051809103902060006101000a81548160ff0219169083151502179055507f75444ea1b32c6bc7d5884fdd431cab59bc347958a5a88eb42c31b1cd833f4c7982826001604051610a11939291906133f9565b60405180910390a15050565b610a26826108bc565b610a2f816118e9565b610a3983836118fd565b505050565b61012e602052816000526040600020818051602081018201805184825260208301602085012081835280955050505050506000915091509054906101000a900460ff1681565b60006006905090565b600046905090565b610a9d61140a565b73ffffffffffffffffffffffffffffffffffffffff168173ffffffffffffffffffffffffffffffffffffffff1614610b0a576040517f08c379a0000000000000000000000000000000000000000000000000000000008152600401610b01906134a9565b60405180910390fd5b610b1482826119de565b5050565b600080610b2361140a565b9050610b44818585610b358589611319565b610b3f91906134f8565b611412565b600191505092915050565b610b5c6000801b33610dda565b610b92576040517fde8e41fa00000000000000000000000000000000000000000000000000000000815260040160405180910390fd5b610b9a611ac0565b565b7f9f2df0fed2c77648de5860a4cc508cd0818c85b8b8a1ab4ceeef8d981c8956a6610bc6816118e9565b610bd08383611b62565b505050565b610be6610be061140a565b82611cc2565b50565b600061012e600083815260200190815260200160002083604051610c0d9190613398565b908152602001604051809103902060009054906101000a900460ff16905092915050565b60006065905090565b600060fb60009054906101000a900460ff16905090565b610c5e6000801b33610dda565b610c94576040517fde8e41fa00000000000000000000000000000000000000000000000000000000815260040160405180910390fd5b8161012f600083815260200190815260200160002060006101000a81548173ffffffffffffffffffffffffffffffffffffffff021916908373ffffffffffffffffffffffffffffffffffffffff1602179055507f97eb0846ca97e409f9879b45a795fe55abf0dabdcf54c2bc4eaa07c14221195a8282604051610d1892919061354e565b60405180910390a15050565b6000603360008373ffffffffffffffffffffffffffffffffffffffff1673ffffffffffffffffffffffffffffffffffffffff168152602001908152602001600020549050919050565b610d7f82610d7961140a565b836115db565b610d898282611cc2565b5050565b610d9a6000801b33610dda565b610dd0576040517fde8e41fa00000000000000000000000000000000000000000000000000000000815260040160405180910390fd5b610dd8611e9a565b565b600060c9600084815260200190815260200160002060000160008373ffffffffffffffffffffffffffffffffffffffff1673ffffffffffffffffffffffffffffffffffffffff16815260200190815260200160002060009054906101000a900460ff16905092915050565b606060378054610e5490613320565b80601f0160208091040260200160405190810160405280929190818152602001828054610e8090613320565b8015610ecd5780601f10610ea257610100808354040283529160200191610ecd565b820191906000526020600020905b815481529060010190602001808311610eb057829003601f168201915b5050505050905090565b600080610ee261140a565b9050468303610f0057610ef6818686611667565b6001915050610f1d565b610f0984610bd5565b610f17838686306000611f3d565b60019150505b9392505050565b60008282604051602001610f399291906135e0565b60405160208183030381529060405280519060200120905092915050565b610f646000801b33610dda565b610f9a576040517fde8e41fa00000000000000000000000000000000000000000000000000000000815260040160405180910390fd5b61012e600082815260200190815260200160002082604051610fbc9190613398565b908152602001604051809103902060009054906101000a900460ff1661100e576040517f6d4568c600000000000000000000000000000000000000000000000000000000815260040160405180910390fd5b600061012e6000838152602001908152602001600020836040516110329190613398565b908152602001604051809103902060006101000a81548160ff0219169083151502179055507f75444ea1b32c6bc7d5884fdd431cab59bc347958a5a88eb42c31b1cd833f4c798282600060405161108b939291906133f9565b60405180910390a15050565b6000801b81565b6000806110a961140a565b905060006110b78286611319565b9050838110156110fc576040517f08c379a00000000000000000000000000000000000000000000000000000000081526004016110f39061367e565b60405180910390fd5b6111098286868403611412565b60019250505092915050565b60008061112061140a565b905061112d818585611667565b600191505092915050565b60006111446001612223565b90508015611168576001600060016101000a81548160ff0219169083151502179055505b6111dc6040518060400160405280600a81526020017f59656c6c6f7755534454000000000000000000000000000000000000000000008152506040518060400160405280600581526020017f7955534454000000000000000000000000000000000000000000000000000000815250612313565b6111e96000801b336118fd565b6112137f9f2df0fed2c77648de5860a4cc508cd0818c85b8b8a1ab4ceeef8d981c8956a6336118fd565b61121c82612370565b80156112755760008060016101000a81548160ff0219169083151502179055507f7f26b83ff96e1f2b6a682f133852f6798a09c465da95921460cefb3847402498600160405161126c91906136d9565b60405180910390a15b5050565b61012d60009054906101000a900473ffffffffffffffffffffffffffffffffffffffff1681565b61012f6020528060005260406000206000915054906101000a900473ffffffffffffffffffffffffffffffffffffffff1681565b7f9f2df0fed2c77648de5860a4cc508cd0818c85b8b8a1ab4ceeef8d981c8956a681565b611301826108bc565b61130a816118e9565b61131483836119de565b505050565b6000603460008473ffffffffffffffffffffffffffffffffffffffff1673ffffffffffffffffffffffffffffffffffffffff16815260200190815260200160002060008373ffffffffffffffffffffffffffffffffffffffff1673ffffffffffffffffffffffffffffffffffffffff16815260200190815260200160002054905092915050565b60007f01ffc9a7000000000000000000000000000000000000000000000000000000007bffffffffffffffffffffffffffffffffffffffffffffffffffffffff1916827bffffffffffffffffffffffffffffffffffffffffffffffffffffffff1916149050919050565b600033905090565b600073ffffffffffffffffffffffffffffffffffffffff168373ffffffffffffffffffffffffffffffffffffffff1603611481576040517f08c379a000000000000000000000000000000000000000000000000000000000815260040161147890613766565b60405180910390fd5b600073ffffffffffffffffffffffffffffffffffffffff168273ffffffffffffffffffffffffffffffffffffffff16036114f0576040517f08c379a00000000000000000000000000000000000000000000000000000000081526004016114e7906137f8565b60405180910390fd5b80603460008573ffffffffffffffffffffffffffffffffffffffff1673ffffffffffffffffffffffffffffffffffffffff16815260200190815260200160002060008473ffffffffffffffffffffffffffffffffffffffff1673ffffffffffffffffffffffffffffffffffffffff168152602001908152602001600020819055508173ffffffffffffffffffffffffffffffffffffffff168373ffffffffffffffffffffffffffffffffffffffff167f8c5be1e5ebec7d5bd14f71427d1e84f3dd0314c0f7b2291e5b200ac8c7c3b925836040516115ce9190612d56565b60405180910390a3505050565b60006115e78484611319565b90507fffffffffffffffffffffffffffffffffffffffffffffffffffffffffffffffff81146116615781811015611653576040517f08c379a000000000000000000000000000000000000000000000000000000000815260040161164a90613864565b60405180910390fd5b6116608484848403611412565b5b50505050565b600073ffffffffffffffffffffffffffffffffffffffff168373ffffffffffffffffffffffffffffffffffffffff16036116d6576040517f08c379a00000000000000000000000000000000000000000000000000000000081526004016116cd906138f6565b60405180910390fd5b600073ffffffffffffffffffffffffffffffffffffffff168273ffffffffffffffffffffffffffffffffffffffff1603611745576040517f08c379a000000000000000000000000000000000000000000000000000000000815260040161173c90613988565b60405180910390fd5b611750838383612426565b6000603360008573ffffffffffffffffffffffffffffffffffffffff1673ffffffffffffffffffffffffffffffffffffffff168152602001908152602001600020549050818110156117d7576040517f08c379a00000000000000000000000000000000000000000000000000000000081526004016117ce90613a1a565b60405180910390fd5b818103603360008673ffffffffffffffffffffffffffffffffffffffff1673ffffffffffffffffffffffffffffffffffffffff1681526020019081526020016000208190555081603360008573ffffffffffffffffffffffffffffffffffffffff1673ffffffffffffffffffffffffffffffffffffffff168152602001908152602001600020600082825461186c91906134f8565b925050819055508273ffffffffffffffffffffffffffffffffffffffff168473ffffffffffffffffffffffffffffffffffffffff167fddf252ad1be2c89b69c2b068fc378daa952ba7f163c4a11628f55a4df523b3ef846040516118d09190612d56565b60405180910390a36118e384848461242b565b50505050565b6118fa816118f561140a565b612430565b50565b6119078282610dda565b6119da57600160c9600084815260200190815260200160002060000160008373ffffffffffffffffffffffffffffffffffffffff1673ffffffffffffffffffffffffffffffffffffffff16815260200190815260200160002060006101000a81548160ff02191690831515021790555061197f61140a565b73ffffffffffffffffffffffffffffffffffffffff168173ffffffffffffffffffffffffffffffffffffffff16837f2f8788117e7eff1d82e926ec794901d17c78024a50270940304540a733656f0d60405160405180910390a45b5050565b6119e88282610dda565b15611abc57600060c9600084815260200190815260200160002060000160008373ffffffffffffffffffffffffffffffffffffffff1673ffffffffffffffffffffffffffffffffffffffff16815260200190815260200160002060006101000a81548160ff021916908315150217905550611a6161140a565b73ffffffffffffffffffffffffffffffffffffffff168173ffffffffffffffffffffffffffffffffffffffff16837ff6391f5c32d9c69d2a47ea670b442974b53935d1edc7fd64eb21e047a839171b60405160405180910390a45b5050565b611ac8610c3a565b611b07576040517f08c379a0000000000000000000000000000000000000000000000000000000008152600401611afe90613a86565b60405180910390fd5b600060fb60006101000a81548160ff0219169083151502179055507f5db9ee0a495bf2e6ff9c91a7834c1ba4fdd244a5e8aa4e537bd38aeae4b073aa611b4b61140a565b604051611b589190613296565b60405180910390a1565b600073ffffffffffffffffffffffffffffffffffffffff168273ffffffffffffffffffffffffffffffffffffffff1603611bd1576040517f08c379a0000000000000000000000000000000000000000000000000000000008152600401611bc890613af2565b60405180910390fd5b611bdd60008383612426565b8060356000828254611bef91906134f8565b9250508190555080603360008473ffffffffffffffffffffffffffffffffffffffff1673ffffffffffffffffffffffffffffffffffffffff1681526020019081526020016000206000828254611c4591906134f8565b925050819055508173ffffffffffffffffffffffffffffffffffffffff16600073ffffffffffffffffffffffffffffffffffffffff167fddf252ad1be2c89b69c2b068fc378daa952ba7f163c4a11628f55a4df523b3ef83604051611caa9190612d56565b60405180910390a3611cbe6000838361242b565b5050565b600073ffffffffffffffffffffffffffffffffffffffff168273ffffffffffffffffffffffffffffffffffffffff1603611d31576040517f08c379a0000000000000000000000000000000000000000000000000000000008152600401611d2890613b84565b60405180910390fd5b611d3d82600083612426565b6000603360008473ffffffffffffffffffffffffffffffffffffffff1673ffffffffffffffffffffffffffffffffffffffff16815260200190815260200160002054905081811015611dc4576040517f08c379a0000000000000000000000000000000000000000000000000000000008152600401611dbb90613c16565b60405180910390fd5b818103603360008573ffffffffffffffffffffffffffffffffffffffff1673ffffffffffffffffffffffffffffffffffffffff168152602001908152602001600020819055508160356000828254611e1c9190613c36565b92505081905550600073ffffffffffffffffffffffffffffffffffffffff168373ffffffffffffffffffffffffffffffffffffffff167fddf252ad1be2c89b69c2b068fc378daa952ba7f163c4a11628f55a4df523b3ef84604051611e819190612d56565b60405180910390a3611e958360008461242b565b505050565b611ea2610c3a565b15611ee2576040517f08c379a0000000000000000000000000000000000000000000000000000000008152600401611ed990613cb6565b60405180910390fd5b600160fb60006101000a81548160ff0219169083151502179055507f62e78cea01bee320cd4e420270b5ea74000d11b0c9f74754ebdbfc544b05a258611f2661140a565b604051611f339190613296565b60405180910390a1565b611f45610c3a565b15611f85576040517f08c379a0000000000000000000000000000000000000000000000000000000008152600401611f7c90613cb6565b60405180910390fd5b611f8d612a1e565b611fa760018083602001516124cd9092919063ffffffff16565b816020018181525050611fcb6002600183602001516124cd9092919063ffffffff16565b8160200181815250508181600001818152505082604051602001611fef9190613cd6565b604051602081830303815290604052816040018190525084848760405160240161201b93929190613cf1565b6040516020818303038152906040527f96166210000000000000000000000000000000000000000000000000000000007bffffffffffffffffffffffffffffffffffffffffffffffffffffffff19166020820180517bffffffffffffffffffffffffffffffffffffffffffffffffffffffff83818316178352505050508160600181905250600061012f600088815260200190815260200160002060009054906101000a900473ffffffffffffffffffffffffffffffffffffffff169050600073ffffffffffffffffffffffffffffffffffffffff168173ffffffffffffffffffffffffffffffffffffffff160361213f576040517f864bf4d600000000000000000000000000000000000000000000000000000000815260040160405180910390fd5b61012d60009054906101000a900473ffffffffffffffffffffffffffffffffffffffff1673ffffffffffffffffffffffffffffffffffffffff1663be297476346000348b866040516020016121949190613cd6565b6040516020818303038152906040526000808a6040516020016121b79190613deb565b6040516020818303038152906040526040518963ffffffff1660e01b81526004016121e89796959493929190613e7e565b6000604051808303818588803b15801561220157600080fd5b505af1158015612215573d6000803e3d6000fd5b505050505050505050505050565b60008060019054906101000a900460ff161561229a5760018260ff161480156122525750612250306124f5565b155b612291576040517f08c379a000000000000000000000000000000000000000000000000000000000815260040161228890613f81565b60405180910390fd5b6000905061230e565b8160ff1660008054906101000a900460ff1660ff16106122ef576040517f08c379a00000000000000000000000000000000000000000000000000000000081526004016122e690613f81565b60405180910390fd5b816000806101000a81548160ff021916908360ff160217905550600190505b919050565b600060019054906101000a900460ff16612362576040517f08c379a000000000000000000000000000000000000000000000000000000000815260040161235990614013565b60405180910390fd5b61236c8282612518565b5050565b600061237c6001612223565b905080156123a0576001600060016101000a81548160ff0219169083151502179055505b6123a8612599565b6123b06125ea565b6123b861263b565b6123c061268c565b6123c9826126f8565b80156124225760008060016101000a81548160ff0219169083151502179055507f7f26b83ff96e1f2b6a682f133852f6798a09c465da95921460cefb3847402498600160405161241991906136d9565b60405180910390a15b5050565b505050565b505050565b61243a8282610dda565b6124c95761245f8173ffffffffffffffffffffffffffffffffffffffff1660146127d4565b61246d8360001c60206127d4565b60405160200161247e929190614107565b6040516020818303038152906040526040517f08c379a00000000000000000000000000000000000000000000000000000000081526004016124c09190612c51565b60405180910390fd5b5050565b600081156124e357826001901b841790506124ee565b826001901b19841690505b9392505050565b6000808273ffffffffffffffffffffffffffffffffffffffff163b119050919050565b600060019054906101000a900460ff16612567576040517f08c379a000000000000000000000000000000000000000000000000000000000815260040161255e90614013565b60405180910390fd5b816036908051906020019061257d929190612a46565b508060379080519060200190612594929190612a46565b505050565b600060019054906101000a900460ff166125e8576040517f08c379a00000000000000000000000000000000000000000000000000000000081526004016125df90614013565b60405180910390fd5b565b600060019054906101000a900460ff16612639576040517f08c379a000000000000000000000000000000000000000000000000000000000815260040161263090614013565b60405180910390fd5b565b600060019054906101000a900460ff1661268a576040517f08c379a000000000000000000000000000000000000000000000000000000000815260040161268190614013565b60405180910390fd5b565b600060019054906101000a900460ff166126db576040517f08c379a00000000000000000000000000000000000000000000000000000000081526004016126d290614013565b60405180910390fd5b600060fb60006101000a81548160ff021916908315150217905550565b60006127046001612223565b90508015612728576001600060016101000a81548160ff0219169083151502179055505b8161012d60006101000a81548173ffffffffffffffffffffffffffffffffffffffff021916908373ffffffffffffffffffffffffffffffffffffffff1602179055506127776000801b33612a10565b80156127d05760008060016101000a81548160ff0219169083151502179055507f7f26b83ff96e1f2b6a682f133852f6798a09c465da95921460cefb384740249860016040516127c791906136d9565b60405180910390a15b5050565b6060600060028360026127e79190614141565b6127f191906134f8565b67ffffffffffffffff81111561280a57612809612e5b565b5b6040519080825280601f01601f19166020018201604052801561283c5781602001600182028036833780820191505090505b5090507f3000000000000000000000000000000000000000000000000000000000000000816000815181106128745761287361419b565b5b60200101907effffffffffffffffffffffffffffffffffffffffffffffffffffffffffffff1916908160001a9053507f7800000000000000000000000000000000000000000000000000000000000000816001815181106128d8576128d761419b565b5b60200101907effffffffffffffffffffffffffffffffffffffffffffffffffffffffffffff1916908160001a905350600060018460026129189190614141565b61292291906134f8565b90505b60018111156129c2577f3031323334353637383961626364656600000000000000000000000000000000600f8616601081106129645761296361419b565b5b1a60f81b82828151811061297b5761297a61419b565b5b60200101907effffffffffffffffffffffffffffffffffffffffffffffffffffffffffffff1916908160001a905350600485901c9450806129bb906141ca565b9050612925565b5060008414612a06576040517f08c379a00000000000000000000000000000000000000000000000000000000081526004016129fd9061423f565b60405180910390fd5b8091505092915050565b612a1a82826118fd565b5050565b6040518060800160405280600081526020016000815260200160608152602001606081525090565b828054612a5290613320565b90600052602060002090601f016020900481019282612a745760008555612abb565b82601f10612a8d57805160ff1916838001178555612abb565b82800160010185558215612abb579182015b82811115612aba578251825591602001919060010190612a9f565b5b509050612ac89190612acc565b5090565b5b80821115612ae5576000816000905550600101612acd565b5090565b6000604051905090565b600080fd5b600080fd5b60007fffffffff0000000000000000000000000000000000000000000000000000000082169050919050565b612b3281612afd565b8114612b3d57600080fd5b50565b600081359050612b4f81612b29565b92915050565b600060208284031215612b6b57612b6a612af3565b5b6000612b7984828501612b40565b91505092915050565b60008115159050919050565b612b9781612b82565b82525050565b6000602082019050612bb26000830184612b8e565b92915050565b600081519050919050565b600082825260208201905092915050565b60005b83811015612bf2578082015181840152602081019050612bd7565b83811115612c01576000848401525b50505050565b6000601f19601f8301169050919050565b6000612c2382612bb8565b612c2d8185612bc3565b9350612c3d818560208601612bd4565b612c4681612c07565b840191505092915050565b60006020820190508181036000830152612c6b8184612c18565b905092915050565b600073ffffffffffffffffffffffffffffffffffffffff82169050919050565b6000612c9e82612c73565b9050919050565b612cae81612c93565b8114612cb957600080fd5b50565b600081359050612ccb81612ca5565b92915050565b6000819050919050565b612ce481612cd1565b8114612cef57600080fd5b50565b600081359050612d0181612cdb565b92915050565b60008060408385031215612d1e57612d1d612af3565b5b6000612d2c85828601612cbc565b9250506020612d3d85828601612cf2565b9150509250929050565b612d5081612cd1565b82525050565b6000602082019050612d6b6000830184612d47565b92915050565b600080600060608486031215612d8a57612d89612af3565b5b6000612d9886828701612cbc565b9350506020612da986828701612cbc565b9250506040612dba86828701612cf2565b9150509250925092565b6000819050919050565b612dd781612dc4565b8114612de257600080fd5b50565b600081359050612df481612dce565b92915050565b600060208284031215612e1057612e0f612af3565b5b6000612e1e84828501612de5565b91505092915050565b612e3081612dc4565b82525050565b6000602082019050612e4b6000830184612e27565b92915050565b600080fd5b600080fd5b7f4e487b7100000000000000000000000000000000000000000000000000000000600052604160045260246000fd5b612e9382612c07565b810181811067ffffffffffffffff82111715612eb257612eb1612e5b565b5b80604052505050565b6000612ec5612ae9565b9050612ed18282612e8a565b919050565b600067ffffffffffffffff821115612ef157612ef0612e5b565b5b612efa82612c07565b9050602081019050919050565b82818337600083830152505050565b6000612f29612f2484612ed6565b612ebb565b905082815260208101848484011115612f4557612f44612e56565b5b612f50848285612f07565b509392505050565b600082601f830112612f6d57612f6c612e51565b5b8135612f7d848260208601612f16565b91505092915050565b60008060408385031215612f9d57612f9c612af3565b5b600083013567ffffffffffffffff811115612fbb57612fba612af8565b5b612fc785828601612f58565b9250506020612fd885828601612cf2565b9150509250929050565b60008060408385031215612ff957612ff8612af3565b5b600061300785828601612de5565b925050602061301885828601612cbc565b9150509250929050565b6000806040838503121561303957613038612af3565b5b600061304785828601612cf2565b925050602083013567ffffffffffffffff81111561306857613067612af8565b5b61307485828601612f58565b9150509250929050565b600060ff82169050919050565b6130948161307e565b82525050565b60006020820190506130af600083018461308b565b92915050565b6000602082840312156130cb576130ca612af3565b5b60006130d984828501612cf2565b91505092915050565b6000602082840312156130f8576130f7612af3565b5b600061310684828501612cbc565b91505092915050565b60008060006060848603121561312857613127612af3565b5b600061313686828701612cbc565b935050602061314786828701612cf2565b925050604061315886828701612cf2565b9150509250925092565b6000806040838503121561317957613178612af3565b5b600061318785828601612cf2565b925050602061319885828601612cbc565b9150509250929050565b60006131ad82612c93565b9050919050565b6131bd816131a2565b81146131c857600080fd5b50565b6000813590506131da816131b4565b92915050565b6000602082840312156131f6576131f5612af3565b5b6000613204848285016131cb565b91505092915050565b6000819050919050565b600061323261322d61322884612c73565b61320d565b612c73565b9050919050565b600061324482613217565b9050919050565b600061325682613239565b9050919050565b6132668161324b565b82525050565b6000602082019050613281600083018461325d565b92915050565b61329081612c93565b82525050565b60006020820190506132ab6000830184613287565b92915050565b600080604083850312156132c8576132c7612af3565b5b60006132d685828601612cbc565b92505060206132e785828601612cbc565b9150509250929050565b7f4e487b7100000000000000000000000000000000000000000000000000000000600052602260045260246000fd5b6000600282049050600182168061333857607f821691505b60208210810361334b5761334a6132f1565b5b50919050565b600081519050919050565b600081905092915050565b600061337282613351565b61337c818561335c565b935061338c818560208601612bd4565b80840191505092915050565b60006133a48284613367565b915081905092915050565b600082825260208201905092915050565b60006133cb82613351565b6133d581856133af565b93506133e5818560208601612bd4565b6133ee81612c07565b840191505092915050565b6000606082019050818103600083015261341381866133c0565b90506134226020830185612d47565b61342f6040830184612b8e565b949350505050565b7f416363657373436f6e74726f6c3a2063616e206f6e6c792072656e6f756e636560008201527f20726f6c657320666f722073656c660000000000000000000000000000000000602082015250565b6000613493602f83612bc3565b915061349e82613437565b604082019050919050565b600060208201905081810360008301526134c281613486565b9050919050565b7f4e487b7100000000000000000000000000000000000000000000000000000000600052601160045260246000fd5b600061350382612cd1565b915061350e83612cd1565b9250827fffffffffffffffffffffffffffffffffffffffffffffffffffffffffffffffff03821115613543576135426134c9565b5b828201905092915050565b60006040820190506135636000830185613287565b6135706020830184612d47565b9392505050565b6000819050919050565b61359261358d82612cd1565b613577565b82525050565b60008160601b9050919050565b60006135b082613598565b9050919050565b60006135c2826135a5565b9050919050565b6135da6135d582612c93565b6135b7565b82525050565b60006135ec8285613581565b6020820191506135fc82846135c9565b6014820191508190509392505050565b7f45524332303a2064656372656173656420616c6c6f77616e63652062656c6f7760008201527f207a65726f000000000000000000000000000000000000000000000000000000602082015250565b6000613668602583612bc3565b91506136738261360c565b604082019050919050565b600060208201905081810360008301526136978161365b565b9050919050565b6000819050919050565b60006136c36136be6136b98461369e565b61320d565b61307e565b9050919050565b6136d3816136a8565b82525050565b60006020820190506136ee60008301846136ca565b92915050565b7f45524332303a20617070726f76652066726f6d20746865207a65726f2061646460008201527f7265737300000000000000000000000000000000000000000000000000000000602082015250565b6000613750602483612bc3565b915061375b826136f4565b604082019050919050565b6000602082019050818103600083015261377f81613743565b9050919050565b7f45524332303a20617070726f766520746f20746865207a65726f20616464726560008201527f7373000000000000000000000000000000000000000000000000000000000000602082015250565b60006137e2602283612bc3565b91506137ed82613786565b604082019050919050565b60006020820190508181036000830152613811816137d5565b9050919050565b7f45524332303a20696e73756666696369656e7420616c6c6f77616e6365000000600082015250565b600061384e601d83612bc3565b915061385982613818565b602082019050919050565b6000602082019050818103600083015261387d81613841565b9050919050565b7f45524332303a207472616e736665722066726f6d20746865207a65726f20616460008201527f6472657373000000000000000000000000000000000000000000000000000000602082015250565b60006138e0602583612bc3565b91506138eb82613884565b604082019050919050565b6000602082019050818103600083015261390f816138d3565b9050919050565b7f45524332303a207472616e7366657220746f20746865207a65726f206164647260008201527f6573730000000000000000000000000000000000000000000000000000000000602082015250565b6000613972602383612bc3565b915061397d82613916565b604082019050919050565b600060208201905081810360008301526139a181613965565b9050919050565b7f45524332303a207472616e7366657220616d6f756e742065786365656473206260008201527f616c616e63650000000000000000000000000000000000000000000000000000602082015250565b6000613a04602683612bc3565b9150613a0f826139a8565b604082019050919050565b60006020820190508181036000830152613a33816139f7565b9050919050565b7f5061757361626c653a206e6f7420706175736564000000000000000000000000600082015250565b6000613a70601483612bc3565b9150613a7b82613a3a565b602082019050919050565b60006020820190508181036000830152613a9f81613a63565b9050919050565b7f45524332303a206d696e7420746f20746865207a65726f206164647265737300600082015250565b6000613adc601f83612bc3565b9150613ae782613aa6565b602082019050919050565b60006020820190508181036000830152613b0b81613acf565b9050919050565b7f45524332303a206275726e2066726f6d20746865207a65726f2061646472657360008201527f7300000000000000000000000000000000000000000000000000000000000000602082015250565b6000613b6e602183612bc3565b9150613b7982613b12565b604082019050919050565b60006020820190508181036000830152613b9d81613b61565b9050919050565b7f45524332303a206275726e20616d6f756e7420657863656564732062616c616e60008201527f6365000000000000000000000000000000000000000000000000000000000000602082015250565b6000613c00602283612bc3565b9150613c0b82613ba4565b604082019050919050565b60006020820190508181036000830152613c2f81613bf3565b9050919050565b6000613c4182612cd1565b9150613c4c83612cd1565b925082821015613c5f57613c5e6134c9565b5b828203905092915050565b7f5061757361626c653a2070617573656400000000000000000000000000000000600082015250565b6000613ca0601083612bc3565b9150613cab82613c6a565b602082019050919050565b60006020820190508181036000830152613ccf81613c93565b9050919050565b6000613ce282846135c9565b60148201915081905092915050565b6000606082019050613d066000830186613287565b613d136020830185612d47565b613d206040830184612d47565b949350505050565b613d3181612cd1565b82525050565b600082825260208201905092915050565b6000613d5382613351565b613d5d8185613d37565b9350613d6d818560208601612bd4565b613d7681612c07565b840191505092915050565b6000608083016000830151613d996000860182613d28565b506020830151613dac6020860182613d28565b5060408301518482036040860152613dc48282613d48565b91505060608301518482036060860152613dde8282613d48565b9150508091505092915050565b60006020820190508181036000830152613e058184613d81565b905092915050565b50565b6000613e1d6000836133af565b9150613e2882613e0d565b600082019050919050565b6000819050919050565b600063ffffffff82169050919050565b6000613e68613e63613e5e84613e33565b61320d565b613e3d565b9050919050565b613e7881613e4d565b82525050565b600061010082019050613e94600083018a613287565b613ea16020830189612d47565b613eae6040830188612d47565b8181036060830152613ec081876133c0565b90508181036080830152613ed381613e10565b9050613ee260a0830186612b8e565b613eef60c0830185613e6f565b81810360e0830152613f0181846133c0565b905098975050505050505050565b7f496e697469616c697a61626c653a20636f6e747261637420697320616c72656160008201527f647920696e697469616c697a6564000000000000000000000000000000000000602082015250565b6000613f6b602e83612bc3565b9150613f7682613f0f565b604082019050919050565b60006020820190508181036000830152613f9a81613f5e565b9050919050565b7f496e697469616c697a61626c653a20636f6e7472616374206973206e6f74206960008201527f6e697469616c697a696e67000000000000000000000000000000000000000000602082015250565b6000613ffd602b83612bc3565b915061400882613fa1565b604082019050919050565b6000602082019050818103600083015261402c81613ff0565b9050919050565b600081905092915050565b7f416363657373436f6e74726f6c3a206163636f756e7420000000000000000000600082015250565b6000614074601783614033565b915061407f8261403e565b601782019050919050565b600061409582612bb8565b61409f8185614033565b93506140af818560208601612bd4565b80840191505092915050565b7f206973206d697373696e6720726f6c6520000000000000000000000000000000600082015250565b60006140f1601183614033565b91506140fc826140bb565b601182019050919050565b600061411282614067565b915061411e828561408a565b9150614129826140e4565b9150614135828461408a565b91508190509392505050565b600061414c82612cd1565b915061415783612cd1565b9250817fffffffffffffffffffffffffffffffffffffffffffffffffffffffffffffffff04831182151516156141905761418f6134c9565b5b828202905092915050565b7f4e487b7100000000000000000000000000000000000000000000000000000000600052603260045260246000fd5b60006141d582612cd1565b9150600082036141e8576141e76134c9565b5b600182039050919050565b7f537472696e67733a20686578206c656e67746820696e73756666696369656e74600082015250565b6000614229602083612bc3565b9150614234826141f3565b602082019050919050565b600060208201905081810360008301526142588161421c565b905091905056fea2646970667358221220411909fecc11ff87644c1e66f4555644fa55cd5ee231012e297f3232d88d036064736f6c634300080d0033",
          "opcodes": "PUSH1 0x80 PUSH1 0x40 MSTORE CALLVALUE DUP1 ISZERO PUSH2 0x10 JUMPI PUSH1 0x0 DUP1 REVERT JUMPDEST POP PUSH2 0x4295 DUP1 PUSH2 0x20 PUSH1 0x0 CODECOPY PUSH1 0x0 RETURN INVALID PUSH1 0x80 PUSH1 0x40 MSTORE CALLVALUE DUP1 ISZERO PUSH2 0x10 JUMPI PUSH1 0x0 DUP1 REVERT JUMPDEST POP PUSH1 0x4 CALLDATASIZE LT PUSH2 0x227 JUMPI PUSH1 0x0 CALLDATALOAD PUSH1 0xE0 SHR DUP1 PUSH4 0x5C975ABB GT PUSH2 0x130 JUMPI DUP1 PUSH4 0xA00461AA GT PUSH2 0xB8 JUMPI DUP1 PUSH4 0xCA777FBF GT PUSH2 0x7C JUMPI DUP1 PUSH4 0xCA777FBF EQ PUSH2 0x69C JUMPI DUP1 PUSH4 0xCB059294 EQ PUSH2 0x6BA JUMPI DUP1 PUSH4 0xD5391393 EQ PUSH2 0x6EA JUMPI DUP1 PUSH4 0xD547741F EQ PUSH2 0x708 JUMPI DUP1 PUSH4 0xDD62ED3E EQ PUSH2 0x724 JUMPI PUSH2 0x227 JUMP JUMPDEST DUP1 PUSH4 0xA00461AA EQ PUSH2 0x5E6 JUMPI DUP1 PUSH4 0xA217FDDF EQ PUSH2 0x602 JUMPI DUP1 PUSH4 0xA457C2D7 EQ PUSH2 0x620 JUMPI DUP1 PUSH4 0xA9059CBB EQ PUSH2 0x650 JUMPI DUP1 PUSH4 0xC4D66DE8 EQ PUSH2 0x680 JUMPI PUSH2 0x227 JUMP JUMPDEST DUP1 PUSH4 0x8456CB59 GT PUSH2 0xFF JUMPI DUP1 PUSH4 0x8456CB59 EQ PUSH2 0x52E JUMPI DUP1 PUSH4 0x91D14854 EQ PUSH2 0x538 JUMPI DUP1 PUSH4 0x95D89B41 EQ PUSH2 0x568 JUMPI DUP1 PUSH4 0x96166210 EQ PUSH2 0x586 JUMPI DUP1 PUSH4 0x9682B909 EQ PUSH2 0x5B6 JUMPI PUSH2 0x227 JUMP JUMPDEST DUP1 PUSH4 0x5C975ABB EQ PUSH2 0x4A8 JUMPI DUP1 PUSH4 0x6586F26B EQ PUSH2 0x4C6 JUMPI DUP1 PUSH4 0x70A08231 EQ PUSH2 0x4E2 JUMPI DUP1 PUSH4 0x79CC6790 EQ PUSH2 0x512 JUMPI PUSH2 0x227 JUMP JUMPDEST DUP1 PUSH4 0x313CE567 GT PUSH2 0x1B3 JUMPI DUP1 PUSH4 0x3F4BA83A GT PUSH2 0x182 JUMPI DUP1 PUSH4 0x3F4BA83A EQ PUSH2 0x418 JUMPI DUP1 PUSH4 0x40C10F19 EQ PUSH2 0x422 JUMPI DUP1 PUSH4 0x42966C68 EQ PUSH2 0x43E JUMPI DUP1 PUSH4 0x5062A2B0 EQ PUSH2 0x45A JUMPI DUP1 PUSH4 0x54FD4D50 EQ PUSH2 0x48A JUMPI PUSH2 0x227 JUMP JUMPDEST DUP1 PUSH4 0x313CE567 EQ PUSH2 0x390 JUMPI DUP1 PUSH4 0x3408E470 EQ PUSH2 0x3AE JUMPI DUP1 PUSH4 0x36568ABE EQ PUSH2 0x3CC JUMPI DUP1 PUSH4 0x39509351 EQ PUSH2 0x3E8 JUMPI PUSH2 0x227 JUMP JUMPDEST DUP1 PUSH4 0x23B872DD GT PUSH2 0x1FA JUMPI DUP1 PUSH4 0x23B872DD EQ PUSH2 0x2C8 JUMPI DUP1 PUSH4 0x248A9CA3 EQ PUSH2 0x2F8 JUMPI DUP1 PUSH4 0x2C13E57C EQ PUSH2 0x328 JUMPI DUP1 PUSH4 0x2F2FF15D EQ PUSH2 0x344 JUMPI DUP1 PUSH4 0x30A37CE7 EQ PUSH2 0x360 JUMPI PUSH2 0x227 JUMP JUMPDEST DUP1 PUSH4 0x1FFC9A7 EQ PUSH2 0x22C JUMPI DUP1 PUSH4 0x6FDDE03 EQ PUSH2 0x25C JUMPI DUP1 PUSH4 0x95EA7B3 EQ PUSH2 0x27A JUMPI DUP1 PUSH4 0x18160DDD EQ PUSH2 0x2AA JUMPI JUMPDEST PUSH1 0x0 DUP1 REVERT JUMPDEST PUSH2 0x246 PUSH1 0x4 DUP1 CALLDATASIZE SUB DUP2 ADD SWAP1 PUSH2 0x241 SWAP2 SWAP1 PUSH2 0x2B55 JUMP JUMPDEST PUSH2 0x754 JUMP JUMPDEST PUSH1 0x40 MLOAD PUSH2 0x253 SWAP2 SWAP1 PUSH2 0x2B9D JUMP JUMPDEST PUSH1 0x40 MLOAD DUP1 SWAP2 SUB SWAP1 RETURN JUMPDEST PUSH2 0x264 PUSH2 0x7CE JUMP JUMPDEST PUSH1 0x40 MLOAD PUSH2 0x271 SWAP2 SWAP1 PUSH2 0x2C51 JUMP JUMPDEST PUSH1 0x40 MLOAD DUP1 SWAP2 SUB SWAP1 RETURN JUMPDEST PUSH2 0x294 PUSH1 0x4 DUP1 CALLDATASIZE SUB DUP2 ADD SWAP1 PUSH2 0x28F SWAP2 SWAP1 PUSH2 0x2D07 JUMP JUMPDEST PUSH2 0x860 JUMP JUMPDEST PUSH1 0x40 MLOAD PUSH2 0x2A1 SWAP2 SWAP1 PUSH2 0x2B9D JUMP JUMPDEST PUSH1 0x40 MLOAD DUP1 SWAP2 SUB SWAP1 RETURN JUMPDEST PUSH2 0x2B2 PUSH2 0x883 JUMP JUMPDEST PUSH1 0x40 MLOAD PUSH2 0x2BF SWAP2 SWAP1 PUSH2 0x2D56 JUMP JUMPDEST PUSH1 0x40 MLOAD DUP1 SWAP2 SUB SWAP1 RETURN JUMPDEST PUSH2 0x2E2 PUSH1 0x4 DUP1 CALLDATASIZE SUB DUP2 ADD SWAP1 PUSH2 0x2DD SWAP2 SWAP1 PUSH2 0x2D71 JUMP JUMPDEST PUSH2 0x88D JUMP JUMPDEST PUSH1 0x40 MLOAD PUSH2 0x2EF SWAP2 SWAP1 PUSH2 0x2B9D JUMP JUMPDEST PUSH1 0x40 MLOAD DUP1 SWAP2 SUB SWAP1 RETURN JUMPDEST PUSH2 0x312 PUSH1 0x4 DUP1 CALLDATASIZE SUB DUP2 ADD SWAP1 PUSH2 0x30D SWAP2 SWAP1 PUSH2 0x2DFA JUMP JUMPDEST PUSH2 0x8BC JUMP JUMPDEST PUSH1 0x40 MLOAD PUSH2 0x31F SWAP2 SWAP1 PUSH2 0x2E36 JUMP JUMPDEST PUSH1 0x40 MLOAD DUP1 SWAP2 SUB SWAP1 RETURN JUMPDEST PUSH2 0x342 PUSH1 0x4 DUP1 CALLDATASIZE SUB DUP2 ADD SWAP1 PUSH2 0x33D SWAP2 SWAP1 PUSH2 0x2F86 JUMP JUMPDEST PUSH2 0x8DC JUMP JUMPDEST STOP JUMPDEST PUSH2 0x35E PUSH1 0x4 DUP1 CALLDATASIZE SUB DUP2 ADD SWAP1 PUSH2 0x359 SWAP2 SWAP1 PUSH2 0x2FE2 JUMP JUMPDEST PUSH2 0xA1D JUMP JUMPDEST STOP JUMPDEST PUSH2 0x37A PUSH1 0x4 DUP1 CALLDATASIZE SUB DUP2 ADD SWAP1 PUSH2 0x375 SWAP2 SWAP1 PUSH2 0x3022 JUMP JUMPDEST PUSH2 0xA3E JUMP JUMPDEST PUSH1 0x40 MLOAD PUSH2 0x387 SWAP2 SWAP1 PUSH2 0x2B9D JUMP JUMPDEST PUSH1 0x40 MLOAD DUP1 SWAP2 SUB SWAP1 RETURN JUMPDEST PUSH2 0x398 PUSH2 0xA84 JUMP JUMPDEST PUSH1 0x40 MLOAD PUSH2 0x3A5 SWAP2 SWAP1 PUSH2 0x309A JUMP JUMPDEST PUSH1 0x40 MLOAD DUP1 SWAP2 SUB SWAP1 RETURN JUMPDEST PUSH2 0x3B6 PUSH2 0xA8D JUMP JUMPDEST PUSH1 0x40 MLOAD PUSH2 0x3C3 SWAP2 SWAP1 PUSH2 0x2D56 JUMP JUMPDEST PUSH1 0x40 MLOAD DUP1 SWAP2 SUB SWAP1 RETURN JUMPDEST PUSH2 0x3E6 PUSH1 0x4 DUP1 CALLDATASIZE SUB DUP2 ADD SWAP1 PUSH2 0x3E1 SWAP2 SWAP1 PUSH2 0x2FE2 JUMP JUMPDEST PUSH2 0xA95 JUMP JUMPDEST STOP JUMPDEST PUSH2 0x402 PUSH1 0x4 DUP1 CALLDATASIZE SUB DUP2 ADD SWAP1 PUSH2 0x3FD SWAP2 SWAP1 PUSH2 0x2D07 JUMP JUMPDEST PUSH2 0xB18 JUMP JUMPDEST PUSH1 0x40 MLOAD PUSH2 0x40F SWAP2 SWAP1 PUSH2 0x2B9D JUMP JUMPDEST PUSH1 0x40 MLOAD DUP1 SWAP2 SUB SWAP1 RETURN JUMPDEST PUSH2 0x420 PUSH2 0xB4F JUMP JUMPDEST STOP JUMPDEST PUSH2 0x43C PUSH1 0x4 DUP1 CALLDATASIZE SUB DUP2 ADD SWAP1 PUSH2 0x437 SWAP2 SWAP1 PUSH2 0x2D07 JUMP JUMPDEST PUSH2 0xB9C JUMP JUMPDEST STOP JUMPDEST PUSH2 0x458 PUSH1 0x4 DUP1 CALLDATASIZE SUB DUP2 ADD SWAP1 PUSH2 0x453 SWAP2 SWAP1 PUSH2 0x30B5 JUMP JUMPDEST PUSH2 0xBD5 JUMP JUMPDEST STOP JUMPDEST PUSH2 0x474 PUSH1 0x4 DUP1 CALLDATASIZE SUB DUP2 ADD SWAP1 PUSH2 0x46F SWAP2 SWAP1 PUSH2 0x2F86 JUMP JUMPDEST PUSH2 0xBE9 JUMP JUMPDEST PUSH1 0x40 MLOAD PUSH2 0x481 SWAP2 SWAP1 PUSH2 0x2B9D JUMP JUMPDEST PUSH1 0x40 MLOAD DUP1 SWAP2 SUB SWAP1 RETURN JUMPDEST PUSH2 0x492 PUSH2 0xC31 JUMP JUMPDEST PUSH1 0x40 MLOAD PUSH2 0x49F SWAP2 SWAP1 PUSH2 0x2D56 JUMP JUMPDEST PUSH1 0x40 MLOAD DUP1 SWAP2 SUB SWAP1 RETURN JUMPDEST PUSH2 0x4B0 PUSH2 0xC3A JUMP JUMPDEST PUSH1 0x40 MLOAD PUSH2 0x4BD SWAP2 SWAP1 PUSH2 0x2B9D JUMP JUMPDEST PUSH1 0x40 MLOAD DUP1 SWAP2 SUB SWAP1 RETURN JUMPDEST PUSH2 0x4E0 PUSH1 0x4 DUP1 CALLDATASIZE SUB DUP2 ADD SWAP1 PUSH2 0x4DB SWAP2 SWAP1 PUSH2 0x2D07 JUMP JUMPDEST PUSH2 0xC51 JUMP JUMPDEST STOP JUMPDEST PUSH2 0x4FC PUSH1 0x4 DUP1 CALLDATASIZE SUB DUP2 ADD SWAP1 PUSH2 0x4F7 SWAP2 SWAP1 PUSH2 0x30E2 JUMP JUMPDEST PUSH2 0xD24 JUMP JUMPDEST PUSH1 0x40 MLOAD PUSH2 0x509 SWAP2 SWAP1 PUSH2 0x2D56 JUMP JUMPDEST PUSH1 0x40 MLOAD DUP1 SWAP2 SUB SWAP1 RETURN JUMPDEST PUSH2 0x52C PUSH1 0x4 DUP1 CALLDATASIZE SUB DUP2 ADD SWAP1 PUSH2 0x527 SWAP2 SWAP1 PUSH2 0x2D07 JUMP JUMPDEST PUSH2 0xD6D JUMP JUMPDEST STOP JUMPDEST PUSH2 0x536 PUSH2 0xD8D JUMP JUMPDEST STOP JUMPDEST PUSH2 0x552 PUSH1 0x4 DUP1 CALLDATASIZE SUB DUP2 ADD SWAP1 PUSH2 0x54D SWAP2 SWAP1 PUSH2 0x2FE2 JUMP JUMPDEST PUSH2 0xDDA JUMP JUMPDEST PUSH1 0x40 MLOAD PUSH2 0x55F SWAP2 SWAP1 PUSH2 0x2B9D JUMP JUMPDEST PUSH1 0x40 MLOAD DUP1 SWAP2 SUB SWAP1 RETURN JUMPDEST PUSH2 0x570 PUSH2 0xE45 JUMP JUMPDEST PUSH1 0x40 MLOAD PUSH2 0x57D SWAP2 SWAP1 PUSH2 0x2C51 JUMP JUMPDEST PUSH1 0x40 MLOAD DUP1 SWAP2 SUB SWAP1 RETURN JUMPDEST PUSH2 0x5A0 PUSH1 0x4 DUP1 CALLDATASIZE SUB DUP2 ADD SWAP1 PUSH2 0x59B SWAP2 SWAP1 PUSH2 0x310F JUMP JUMPDEST PUSH2 0xED7 JUMP JUMPDEST PUSH1 0x40 MLOAD PUSH2 0x5AD SWAP2 SWAP1 PUSH2 0x2B9D JUMP JUMPDEST PUSH1 0x40 MLOAD DUP1 SWAP2 SUB SWAP1 RETURN JUMPDEST PUSH2 0x5D0 PUSH1 0x4 DUP1 CALLDATASIZE SUB DUP2 ADD SWAP1 PUSH2 0x5CB SWAP2 SWAP1 PUSH2 0x3162 JUMP JUMPDEST PUSH2 0xF24 JUMP JUMPDEST PUSH1 0x40 MLOAD PUSH2 0x5DD SWAP2 SWAP1 PUSH2 0x2E36 JUMP JUMPDEST PUSH1 0x40 MLOAD DUP1 SWAP2 SUB SWAP1 RETURN JUMPDEST PUSH2 0x600 PUSH1 0x4 DUP1 CALLDATASIZE SUB DUP2 ADD SWAP1 PUSH2 0x5FB SWAP2 SWAP1 PUSH2 0x2F86 JUMP JUMPDEST PUSH2 0xF57 JUMP JUMPDEST STOP JUMPDEST PUSH2 0x60A PUSH2 0x1097 JUMP JUMPDEST PUSH1 0x40 MLOAD PUSH2 0x617 SWAP2 SWAP1 PUSH2 0x2E36 JUMP JUMPDEST PUSH1 0x40 MLOAD DUP1 SWAP2 SUB SWAP1 RETURN JUMPDEST PUSH2 0x63A PUSH1 0x4 DUP1 CALLDATASIZE SUB DUP2 ADD SWAP1 PUSH2 0x635 SWAP2 SWAP1 PUSH2 0x2D07 JUMP JUMPDEST PUSH2 0x109E JUMP JUMPDEST PUSH1 0x40 MLOAD PUSH2 0x647 SWAP2 SWAP1 PUSH2 0x2B9D JUMP JUMPDEST PUSH1 0x40 MLOAD DUP1 SWAP2 SUB SWAP1 RETURN JUMPDEST PUSH2 0x66A PUSH1 0x4 DUP1 CALLDATASIZE SUB DUP2 ADD SWAP1 PUSH2 0x665 SWAP2 SWAP1 PUSH2 0x2D07 JUMP JUMPDEST PUSH2 0x1115 JUMP JUMPDEST PUSH1 0x40 MLOAD PUSH2 0x677 SWAP2 SWAP1 PUSH2 0x2B9D JUMP JUMPDEST PUSH1 0x40 MLOAD DUP1 SWAP2 SUB SWAP1 RETURN JUMPDEST PUSH2 0x69A PUSH1 0x4 DUP1 CALLDATASIZE SUB DUP2 ADD SWAP1 PUSH2 0x695 SWAP2 SWAP1 PUSH2 0x31E0 JUMP JUMPDEST PUSH2 0x1138 JUMP JUMPDEST STOP JUMPDEST PUSH2 0x6A4 PUSH2 0x1279 JUMP JUMPDEST PUSH1 0x40 MLOAD PUSH2 0x6B1 SWAP2 SWAP1 PUSH2 0x326C JUMP JUMPDEST PUSH1 0x40 MLOAD DUP1 SWAP2 SUB SWAP1 RETURN JUMPDEST PUSH2 0x6D4 PUSH1 0x4 DUP1 CALLDATASIZE SUB DUP2 ADD SWAP1 PUSH2 0x6CF SWAP2 SWAP1 PUSH2 0x30B5 JUMP JUMPDEST PUSH2 0x12A0 JUMP JUMPDEST PUSH1 0x40 MLOAD PUSH2 0x6E1 SWAP2 SWAP1 PUSH2 0x3296 JUMP JUMPDEST PUSH1 0x40 MLOAD DUP1 SWAP2 SUB SWAP1 RETURN JUMPDEST PUSH2 0x6F2 PUSH2 0x12D4 JUMP JUMPDEST PUSH1 0x40 MLOAD PUSH2 0x6FF SWAP2 SWAP1 PUSH2 0x2E36 JUMP JUMPDEST PUSH1 0x40 MLOAD DUP1 SWAP2 SUB SWAP1 RETURN JUMPDEST PUSH2 0x722 PUSH1 0x4 DUP1 CALLDATASIZE SUB DUP2 ADD SWAP1 PUSH2 0x71D SWAP2 SWAP1 PUSH2 0x2FE2 JUMP JUMPDEST PUSH2 0x12F8 JUMP JUMPDEST STOP JUMPDEST PUSH2 0x73E PUSH1 0x4 DUP1 CALLDATASIZE SUB DUP2 ADD SWAP1 PUSH2 0x739 SWAP2 SWAP1 PUSH2 0x32B1 JUMP JUMPDEST PUSH2 0x1319 JUMP JUMPDEST PUSH1 0x40 MLOAD PUSH2 0x74B SWAP2 SWAP1 PUSH2 0x2D56 JUMP JUMPDEST PUSH1 0x40 MLOAD DUP1 SWAP2 SUB SWAP1 RETURN JUMPDEST PUSH1 0x0 PUSH32 0x7965DB0B00000000000000000000000000000000000000000000000000000000 PUSH28 0xFFFFFFFFFFFFFFFFFFFFFFFFFFFFFFFFFFFFFFFFFFFFFFFFFFFFFFFF NOT AND DUP3 PUSH28 0xFFFFFFFFFFFFFFFFFFFFFFFFFFFFFFFFFFFFFFFFFFFFFFFFFFFFFFFF NOT AND EQ DUP1 PUSH2 0x7C7 JUMPI POP PUSH2 0x7C6 DUP3 PUSH2 0x13A0 JUMP JUMPDEST JUMPDEST SWAP1 POP SWAP2 SWAP1 POP JUMP JUMPDEST PUSH1 0x60 PUSH1 0x36 DUP1 SLOAD PUSH2 0x7DD SWAP1 PUSH2 0x3320 JUMP JUMPDEST DUP1 PUSH1 0x1F ADD PUSH1 0x20 DUP1 SWAP2 DIV MUL PUSH1 0x20 ADD PUSH1 0x40 MLOAD SWAP1 DUP2 ADD PUSH1 0x40 MSTORE DUP1 SWAP3 SWAP2 SWAP1 DUP2 DUP2 MSTORE PUSH1 0x20 ADD DUP3 DUP1 SLOAD PUSH2 0x809 SWAP1 PUSH2 0x3320 JUMP JUMPDEST DUP1 ISZERO PUSH2 0x856 JUMPI DUP1 PUSH1 0x1F LT PUSH2 0x82B JUMPI PUSH2 0x100 DUP1 DUP4 SLOAD DIV MUL DUP4 MSTORE SWAP2 PUSH1 0x20 ADD SWAP2 PUSH2 0x856 JUMP JUMPDEST DUP3 ADD SWAP2 SWAP1 PUSH1 0x0 MSTORE PUSH1 0x20 PUSH1 0x0 KECCAK256 SWAP1 JUMPDEST DUP2 SLOAD DUP2 MSTORE SWAP1 PUSH1 0x1 ADD SWAP1 PUSH1 0x20 ADD DUP1 DUP4 GT PUSH2 0x839 JUMPI DUP3 SWAP1 SUB PUSH1 0x1F AND DUP3 ADD SWAP2 JUMPDEST POP POP POP POP POP SWAP1 POP SWAP1 JUMP JUMPDEST PUSH1 0x0 DUP1 PUSH2 0x86B PUSH2 0x140A JUMP JUMPDEST SWAP1 POP PUSH2 0x878 DUP2 DUP6 DUP6 PUSH2 0x1412 JUMP JUMPDEST PUSH1 0x1 SWAP2 POP POP SWAP3 SWAP2 POP POP JUMP JUMPDEST PUSH1 0x0 PUSH1 0x35 SLOAD SWAP1 POP SWAP1 JUMP JUMPDEST PUSH1 0x0 DUP1 PUSH2 0x898 PUSH2 0x140A JUMP JUMPDEST SWAP1 POP PUSH2 0x8A5 DUP6 DUP3 DUP6 PUSH2 0x15DB JUMP JUMPDEST PUSH2 0x8B0 DUP6 DUP6 DUP6 PUSH2 0x1667 JUMP JUMPDEST PUSH1 0x1 SWAP2 POP POP SWAP4 SWAP3 POP POP POP JUMP JUMPDEST PUSH1 0x0 PUSH1 0xC9 PUSH1 0x0 DUP4 DUP2 MSTORE PUSH1 0x20 ADD SWAP1 DUP2 MSTORE PUSH1 0x20 ADD PUSH1 0x0 KECCAK256 PUSH1 0x1 ADD SLOAD SWAP1 POP SWAP2 SWAP1 POP JUMP JUMPDEST PUSH2 0x8E9 PUSH1 0x0 DUP1 SHL CALLER PUSH2 0xDDA JUMP JUMPDEST PUSH2 0x91F JUMPI PUSH1 0x40 MLOAD PUSH32 0xDE8E41FA00000000000000000000000000000000000000000000000000000000 DUP2 MSTORE PUSH1 0x4 ADD PUSH1 0x40 MLOAD DUP1 SWAP2 SUB SWAP1 REVERT JUMPDEST PUSH2 0x12E PUSH1 0x0 DUP3 DUP2 MSTORE PUSH1 0x20 ADD SWAP1 DUP2 MSTORE PUSH1 0x20 ADD PUSH1 0x0 KECCAK256 DUP3 PUSH1 0x40 MLOAD PUSH2 0x941 SWAP2 SWAP1 PUSH2 0x3398 JUMP JUMPDEST SWAP1 DUP2 MSTORE PUSH1 0x20 ADD PUSH1 0x40 MLOAD DUP1 SWAP2 SUB SWAP1 KECCAK256 PUSH1 0x0 SWAP1 SLOAD SWAP1 PUSH2 0x100 EXP SWAP1 DIV PUSH1 0xFF AND ISZERO PUSH2 0x994 JUMPI PUSH1 0x40 MLOAD PUSH32 0x6D09561C00000000000000000000000000000000000000000000000000000000 DUP2 MSTORE PUSH1 0x4 ADD PUSH1 0x40 MLOAD DUP1 SWAP2 SUB SWAP1 REVERT JUMPDEST PUSH1 0x1 PUSH2 0x12E PUSH1 0x0 DUP4 DUP2 MSTORE PUSH1 0x20 ADD SWAP1 DUP2 MSTORE PUSH1 0x20 ADD PUSH1 0x0 KECCAK256 DUP4 PUSH1 0x40 MLOAD PUSH2 0x9B8 SWAP2 SWAP1 PUSH2 0x3398 JUMP JUMPDEST SWAP1 DUP2 MSTORE PUSH1 0x20 ADD PUSH1 0x40 MLOAD DUP1 SWAP2 SUB SWAP1 KECCAK256 PUSH1 0x0 PUSH2 0x100 EXP DUP2 SLOAD DUP2 PUSH1 0xFF MUL NOT AND SWAP1 DUP4 ISZERO ISZERO MUL OR SWAP1 SSTORE POP PUSH32 0x75444EA1B32C6BC7D5884FDD431CAB59BC347958A5A88EB42C31B1CD833F4C79 DUP3 DUP3 PUSH1 0x1 PUSH1 0x40 MLOAD PUSH2 0xA11 SWAP4 SWAP3 SWAP2 SWAP1 PUSH2 0x33F9 JUMP JUMPDEST PUSH1 0x40 MLOAD DUP1 SWAP2 SUB SWAP1 LOG1 POP POP JUMP JUMPDEST PUSH2 0xA26 DUP3 PUSH2 0x8BC JUMP JUMPDEST PUSH2 0xA2F DUP2 PUSH2 0x18E9 JUMP JUMPDEST PUSH2 0xA39 DUP4 DUP4 PUSH2 0x18FD JUMP JUMPDEST POP POP POP JUMP JUMPDEST PUSH2 0x12E PUSH1 0x20 MSTORE DUP2 PUSH1 0x0 MSTORE PUSH1 0x40 PUSH1 0x0 KECCAK256 DUP2 DUP1 MLOAD PUSH1 0x20 DUP2 ADD DUP3 ADD DUP1 MLOAD DUP5 DUP3 MSTORE PUSH1 0x20 DUP4 ADD PUSH1 0x20 DUP6 ADD KECCAK256 DUP2 DUP4 MSTORE DUP1 SWAP6 POP POP POP POP POP POP PUSH1 0x0 SWAP2 POP SWAP2 POP SWAP1 SLOAD SWAP1 PUSH2 0x100 EXP SWAP1 DIV PUSH1 0xFF AND DUP2 JUMP JUMPDEST PUSH1 0x0 PUSH1 0x6 SWAP1 POP SWAP1 JUMP JUMPDEST PUSH1 0x0 CHAINID SWAP1 POP SWAP1 JUMP JUMPDEST PUSH2 0xA9D PUSH2 0x140A JUMP JUMPDEST PUSH20 0xFFFFFFFFFFFFFFFFFFFFFFFFFFFFFFFFFFFFFFFF AND DUP2 PUSH20 0xFFFFFFFFFFFFFFFFFFFFFFFFFFFFFFFFFFFFFFFF AND EQ PUSH2 0xB0A JUMPI PUSH1 0x40 MLOAD PUSH32 0x8C379A000000000000000000000000000000000000000000000000000000000 DUP2 MSTORE PUSH1 0x4 ADD PUSH2 0xB01 SWAP1 PUSH2 0x34A9 JUMP JUMPDEST PUSH1 0x40 MLOAD DUP1 SWAP2 SUB SWAP1 REVERT JUMPDEST PUSH2 0xB14 DUP3 DUP3 PUSH2 0x19DE JUMP JUMPDEST POP POP JUMP JUMPDEST PUSH1 0x0 DUP1 PUSH2 0xB23 PUSH2 0x140A JUMP JUMPDEST SWAP1 POP PUSH2 0xB44 DUP2 DUP6 DUP6 PUSH2 0xB35 DUP6 DUP10 PUSH2 0x1319 JUMP JUMPDEST PUSH2 0xB3F SWAP2 SWAP1 PUSH2 0x34F8 JUMP JUMPDEST PUSH2 0x1412 JUMP JUMPDEST PUSH1 0x1 SWAP2 POP POP SWAP3 SWAP2 POP POP JUMP JUMPDEST PUSH2 0xB5C PUSH1 0x0 DUP1 SHL CALLER PUSH2 0xDDA JUMP JUMPDEST PUSH2 0xB92 JUMPI PUSH1 0x40 MLOAD PUSH32 0xDE8E41FA00000000000000000000000000000000000000000000000000000000 DUP2 MSTORE PUSH1 0x4 ADD PUSH1 0x40 MLOAD DUP1 SWAP2 SUB SWAP1 REVERT JUMPDEST PUSH2 0xB9A PUSH2 0x1AC0 JUMP JUMPDEST JUMP JUMPDEST PUSH32 0x9F2DF0FED2C77648DE5860A4CC508CD0818C85B8B8A1AB4CEEEF8D981C8956A6 PUSH2 0xBC6 DUP2 PUSH2 0x18E9 JUMP JUMPDEST PUSH2 0xBD0 DUP4 DUP4 PUSH2 0x1B62 JUMP JUMPDEST POP POP POP JUMP JUMPDEST PUSH2 0xBE6 PUSH2 0xBE0 PUSH2 0x140A JUMP JUMPDEST DUP3 PUSH2 0x1CC2 JUMP JUMPDEST POP JUMP JUMPDEST PUSH1 0x0 PUSH2 0x12E PUSH1 0x0 DUP4 DUP2 MSTORE PUSH1 0x20 ADD SWAP1 DUP2 MSTORE PUSH1 0x20 ADD PUSH1 0x0 KECCAK256 DUP4 PUSH1 0x40 MLOAD PUSH2 0xC0D SWAP2 SWAP1 PUSH2 0x3398 JUMP JUMPDEST SWAP1 DUP2 MSTORE PUSH1 0x20 ADD PUSH1 0x40 MLOAD DUP1 SWAP2 SUB SWAP1 KECCAK256 PUSH1 0x0 SWAP1 SLOAD SWAP1 PUSH2 0x100 EXP SWAP1 DIV PUSH1 0xFF AND SWAP1 POP SWAP3 SWAP2 POP POP JUMP JUMPDEST PUSH1 0x0 PUSH1 0x65 SWAP1 POP SWAP1 JUMP JUMPDEST PUSH1 0x0 PUSH1 0xFB PUSH1 0x0 SWAP1 SLOAD SWAP1 PUSH2 0x100 EXP SWAP1 DIV PUSH1 0xFF AND SWAP1 POP SWAP1 JUMP JUMPDEST PUSH2 0xC5E PUSH1 0x0 DUP1 SHL CALLER PUSH2 0xDDA JUMP JUMPDEST PUSH2 0xC94 JUMPI PUSH1 0x40 MLOAD PUSH32 0xDE8E41FA00000000000000000000000000000000000000000000000000000000 DUP2 MSTORE PUSH1 0x4 ADD PUSH1 0x40 MLOAD DUP1 SWAP2 SUB SWAP1 REVERT JUMPDEST DUP2 PUSH2 0x12F PUSH1 0x0 DUP4 DUP2 MSTORE PUSH1 0x20 ADD SWAP1 DUP2 MSTORE PUSH1 0x20 ADD PUSH1 0x0 KECCAK256 PUSH1 0x0 PUSH2 0x100 EXP DUP2 SLOAD DUP2 PUSH20 0xFFFFFFFFFFFFFFFFFFFFFFFFFFFFFFFFFFFFFFFF MUL NOT AND SWAP1 DUP4 PUSH20 0xFFFFFFFFFFFFFFFFFFFFFFFFFFFFFFFFFFFFFFFF AND MUL OR SWAP1 SSTORE POP PUSH32 0x97EB0846CA97E409F9879B45A795FE55ABF0DABDCF54C2BC4EAA07C14221195A DUP3 DUP3 PUSH1 0x40 MLOAD PUSH2 0xD18 SWAP3 SWAP2 SWAP1 PUSH2 0x354E JUMP JUMPDEST PUSH1 0x40 MLOAD DUP1 SWAP2 SUB SWAP1 LOG1 POP POP JUMP JUMPDEST PUSH1 0x0 PUSH1 0x33 PUSH1 0x0 DUP4 PUSH20 0xFFFFFFFFFFFFFFFFFFFFFFFFFFFFFFFFFFFFFFFF AND PUSH20 0xFFFFFFFFFFFFFFFFFFFFFFFFFFFFFFFFFFFFFFFF AND DUP2 MSTORE PUSH1 0x20 ADD SWAP1 DUP2 MSTORE PUSH1 0x20 ADD PUSH1 0x0 KECCAK256 SLOAD SWAP1 POP SWAP2 SWAP1 POP JUMP JUMPDEST PUSH2 0xD7F DUP3 PUSH2 0xD79 PUSH2 0x140A JUMP JUMPDEST DUP4 PUSH2 0x15DB JUMP JUMPDEST PUSH2 0xD89 DUP3 DUP3 PUSH2 0x1CC2 JUMP JUMPDEST POP POP JUMP JUMPDEST PUSH2 0xD9A PUSH1 0x0 DUP1 SHL CALLER PUSH2 0xDDA JUMP JUMPDEST PUSH2 0xDD0 JUMPI PUSH1 0x40 MLOAD PUSH32 0xDE8E41FA00000000000000000000000000000000000000000000000000000000 DUP2 MSTORE PUSH1 0x4 ADD PUSH1 0x40 MLOAD DUP1 SWAP2 SUB SWAP1 REVERT JUMPDEST PUSH2 0xDD8 PUSH2 0x1E9A JUMP JUMPDEST JUMP JUMPDEST PUSH1 0x0 PUSH1 0xC9 PUSH1 0x0 DUP5 DUP2 MSTORE PUSH1 0x20 ADD SWAP1 DUP2 MSTORE PUSH1 0x20 ADD PUSH1 0x0 KECCAK256 PUSH1 0x0 ADD PUSH1 0x0 DUP4 PUSH20 0xFFFFFFFFFFFFFFFFFFFFFFFFFFFFFFFFFFFFFFFF AND PUSH20 0xFFFFFFFFFFFFFFFFFFFFFFFFFFFFFFFFFFFFFFFF AND DUP2 MSTORE PUSH1 0x20 ADD SWAP1 DUP2 MSTORE PUSH1 0x20 ADD PUSH1 0x0 KECCAK256 PUSH1 0x0 SWAP1 SLOAD SWAP1 PUSH2 0x100 EXP SWAP1 DIV PUSH1 0xFF AND SWAP1 POP SWAP3 SWAP2 POP POP JUMP JUMPDEST PUSH1 0x60 PUSH1 0x37 DUP1 SLOAD PUSH2 0xE54 SWAP1 PUSH2 0x3320 JUMP JUMPDEST DUP1 PUSH1 0x1F ADD PUSH1 0x20 DUP1 SWAP2 DIV MUL PUSH1 0x20 ADD PUSH1 0x40 MLOAD SWAP1 DUP2 ADD PUSH1 0x40 MSTORE DUP1 SWAP3 SWAP2 SWAP1 DUP2 DUP2 MSTORE PUSH1 0x20 ADD DUP3 DUP1 SLOAD PUSH2 0xE80 SWAP1 PUSH2 0x3320 JUMP JUMPDEST DUP1 ISZERO PUSH2 0xECD JUMPI DUP1 PUSH1 0x1F LT PUSH2 0xEA2 JUMPI PUSH2 0x100 DUP1 DUP4 SLOAD DIV MUL DUP4 MSTORE SWAP2 PUSH1 0x20 ADD SWAP2 PUSH2 0xECD JUMP JUMPDEST DUP3 ADD SWAP2 SWAP1 PUSH1 0x0 MSTORE PUSH1 0x20 PUSH1 0x0 KECCAK256 SWAP1 JUMPDEST DUP2 SLOAD DUP2 MSTORE SWAP1 PUSH1 0x1 ADD SWAP1 PUSH1 0x20 ADD DUP1 DUP4 GT PUSH2 0xEB0 JUMPI DUP3 SWAP1 SUB PUSH1 0x1F AND DUP3 ADD SWAP2 JUMPDEST POP POP POP POP POP SWAP1 POP SWAP1 JUMP JUMPDEST PUSH1 0x0 DUP1 PUSH2 0xEE2 PUSH2 0x140A JUMP JUMPDEST SWAP1 POP CHAINID DUP4 SUB PUSH2 0xF00 JUMPI PUSH2 0xEF6 DUP2 DUP7 DUP7 PUSH2 0x1667 JUMP JUMPDEST PUSH1 0x1 SWAP2 POP POP PUSH2 0xF1D JUMP JUMPDEST PUSH2 0xF09 DUP5 PUSH2 0xBD5 JUMP JUMPDEST PUSH2 0xF17 DUP4 DUP7 DUP7 ADDRESS PUSH1 0x0 PUSH2 0x1F3D JUMP JUMPDEST PUSH1 0x1 SWAP2 POP POP JUMPDEST SWAP4 SWAP3 POP POP POP JUMP JUMPDEST PUSH1 0x0 DUP3 DUP3 PUSH1 0x40 MLOAD PUSH1 0x20 ADD PUSH2 0xF39 SWAP3 SWAP2 SWAP1 PUSH2 0x35E0 JUMP JUMPDEST PUSH1 0x40 MLOAD PUSH1 0x20 DUP2 DUP4 SUB SUB DUP2 MSTORE SWAP1 PUSH1 0x40 MSTORE DUP1 MLOAD SWAP1 PUSH1 0x20 ADD KECCAK256 SWAP1 POP SWAP3 SWAP2 POP POP JUMP JUMPDEST PUSH2 0xF64 PUSH1 0x0 DUP1 SHL CALLER PUSH2 0xDDA JUMP JUMPDEST PUSH2 0xF9A JUMPI PUSH1 0x40 MLOAD PUSH32 0xDE8E41FA00000000000000000000000000000000000000000000000000000000 DUP2 MSTORE PUSH1 0x4 ADD PUSH1 0x40 MLOAD DUP1 SWAP2 SUB SWAP1 REVERT JUMPDEST PUSH2 0x12E PUSH1 0x0 DUP3 DUP2 MSTORE PUSH1 0x20 ADD SWAP1 DUP2 MSTORE PUSH1 0x20 ADD PUSH1 0x0 KECCAK256 DUP3 PUSH1 0x40 MLOAD PUSH2 0xFBC SWAP2 SWAP1 PUSH2 0x3398 JUMP JUMPDEST SWAP1 DUP2 MSTORE PUSH1 0x20 ADD PUSH1 0x40 MLOAD DUP1 SWAP2 SUB SWAP1 KECCAK256 PUSH1 0x0 SWAP1 SLOAD SWAP1 PUSH2 0x100 EXP SWAP1 DIV PUSH1 0xFF AND PUSH2 0x100E JUMPI PUSH1 0x40 MLOAD PUSH32 0x6D4568C600000000000000000000000000000000000000000000000000000000 DUP2 MSTORE PUSH1 0x4 ADD PUSH1 0x40 MLOAD DUP1 SWAP2 SUB SWAP1 REVERT JUMPDEST PUSH1 0x0 PUSH2 0x12E PUSH1 0x0 DUP4 DUP2 MSTORE PUSH1 0x20 ADD SWAP1 DUP2 MSTORE PUSH1 0x20 ADD PUSH1 0x0 KECCAK256 DUP4 PUSH1 0x40 MLOAD PUSH2 0x1032 SWAP2 SWAP1 PUSH2 0x3398 JUMP JUMPDEST SWAP1 DUP2 MSTORE PUSH1 0x20 ADD PUSH1 0x40 MLOAD DUP1 SWAP2 SUB SWAP1 KECCAK256 PUSH1 0x0 PUSH2 0x100 EXP DUP2 SLOAD DUP2 PUSH1 0xFF MUL NOT AND SWAP1 DUP4 ISZERO ISZERO MUL OR SWAP1 SSTORE POP PUSH32 0x75444EA1B32C6BC7D5884FDD431CAB59BC347958A5A88EB42C31B1CD833F4C79 DUP3 DUP3 PUSH1 0x0 PUSH1 0x40 MLOAD PUSH2 0x108B SWAP4 SWAP3 SWAP2 SWAP1 PUSH2 0x33F9 JUMP JUMPDEST PUSH1 0x40 MLOAD DUP1 SWAP2 SUB SWAP1 LOG1 POP POP JUMP JUMPDEST PUSH1 0x0 DUP1 SHL DUP2 JUMP JUMPDEST PUSH1 0x0 DUP1 PUSH2 0x10A9 PUSH2 0x140A JUMP JUMPDEST SWAP1 POP PUSH1 0x0 PUSH2 0x10B7 DUP3 DUP7 PUSH2 0x1319 JUMP JUMPDEST SWAP1 POP DUP4 DUP2 LT ISZERO PUSH2 0x10FC JUMPI PUSH1 0x40 MLOAD PUSH32 0x8C379A000000000000000000000000000000000000000000000000000000000 DUP2 MSTORE PUSH1 0x4 ADD PUSH2 0x10F3 SWAP1 PUSH2 0x367E JUMP JUMPDEST PUSH1 0x40 MLOAD DUP1 SWAP2 SUB SWAP1 REVERT JUMPDEST PUSH2 0x1109 DUP3 DUP7 DUP7 DUP5 SUB PUSH2 0x1412 JUMP JUMPDEST PUSH1 0x1 SWAP3 POP POP POP SWAP3 SWAP2 POP POP JUMP JUMPDEST PUSH1 0x0 DUP1 PUSH2 0x1120 PUSH2 0x140A JUMP JUMPDEST SWAP1 POP PUSH2 0x112D DUP2 DUP6 DUP6 PUSH2 0x1667 JUMP JUMPDEST PUSH1 0x1 SWAP2 POP POP SWAP3 SWAP2 POP POP JUMP JUMPDEST PUSH1 0x0 PUSH2 0x1144 PUSH1 0x1 PUSH2 0x2223 JUMP JUMPDEST SWAP1 POP DUP1 ISZERO PUSH2 0x1168 JUMPI PUSH1 0x1 PUSH1 0x0 PUSH1 0x1 PUSH2 0x100 EXP DUP2 SLOAD DUP2 PUSH1 0xFF MUL NOT AND SWAP1 DUP4 ISZERO ISZERO MUL OR SWAP1 SSTORE POP JUMPDEST PUSH2 0x11DC PUSH1 0x40 MLOAD DUP1 PUSH1 0x40 ADD PUSH1 0x40 MSTORE DUP1 PUSH1 0xA DUP2 MSTORE PUSH1 0x20 ADD PUSH32 0x59656C6C6F775553445400000000000000000000000000000000000000000000 DUP2 MSTORE POP PUSH1 0x40 MLOAD DUP1 PUSH1 0x40 ADD PUSH1 0x40 MSTORE DUP1 PUSH1 0x5 DUP2 MSTORE PUSH1 0x20 ADD PUSH32 0x7955534454000000000000000000000000000000000000000000000000000000 DUP2 MSTORE POP PUSH2 0x2313 JUMP JUMPDEST PUSH2 0x11E9 PUSH1 0x0 DUP1 SHL CALLER PUSH2 0x18FD JUMP JUMPDEST PUSH2 0x1213 PUSH32 0x9F2DF0FED2C77648DE5860A4CC508CD0818C85B8B8A1AB4CEEEF8D981C8956A6 CALLER PUSH2 0x18FD JUMP JUMPDEST PUSH2 0x121C DUP3 PUSH2 0x2370 JUMP JUMPDEST DUP1 ISZERO PUSH2 0x1275 JUMPI PUSH1 0x0 DUP1 PUSH1 0x1 PUSH2 0x100 EXP DUP2 SLOAD DUP2 PUSH1 0xFF MUL NOT AND SWAP1 DUP4 ISZERO ISZERO MUL OR SWAP1 SSTORE POP PUSH32 0x7F26B83FF96E1F2B6A682F133852F6798A09C465DA95921460CEFB3847402498 PUSH1 0x1 PUSH1 0x40 MLOAD PUSH2 0x126C SWAP2 SWAP1 PUSH2 0x36D9 JUMP JUMPDEST PUSH1 0x40 MLOAD DUP1 SWAP2 SUB SWAP1 LOG1 JUMPDEST POP POP JUMP JUMPDEST PUSH2 0x12D PUSH1 0x0 SWAP1 SLOAD SWAP1 PUSH2 0x100 EXP SWAP1 DIV PUSH20 0xFFFFFFFFFFFFFFFFFFFFFFFFFFFFFFFFFFFFFFFF AND DUP2 JUMP JUMPDEST PUSH2 0x12F PUSH1 0x20 MSTORE DUP1 PUSH1 0x0 MSTORE PUSH1 0x40 PUSH1 0x0 KECCAK256 PUSH1 0x0 SWAP2 POP SLOAD SWAP1 PUSH2 0x100 EXP SWAP1 DIV PUSH20 0xFFFFFFFFFFFFFFFFFFFFFFFFFFFFFFFFFFFFFFFF AND DUP2 JUMP JUMPDEST PUSH32 0x9F2DF0FED2C77648DE5860A4CC508CD0818C85B8B8A1AB4CEEEF8D981C8956A6 DUP2 JUMP JUMPDEST PUSH2 0x1301 DUP3 PUSH2 0x8BC JUMP JUMPDEST PUSH2 0x130A DUP2 PUSH2 0x18E9 JUMP JUMPDEST PUSH2 0x1314 DUP4 DUP4 PUSH2 0x19DE JUMP JUMPDEST POP POP POP JUMP JUMPDEST PUSH1 0x0 PUSH1 0x34 PUSH1 0x0 DUP5 PUSH20 0xFFFFFFFFFFFFFFFFFFFFFFFFFFFFFFFFFFFFFFFF AND PUSH20 0xFFFFFFFFFFFFFFFFFFFFFFFFFFFFFFFFFFFFFFFF AND DUP2 MSTORE PUSH1 0x20 ADD SWAP1 DUP2 MSTORE PUSH1 0x20 ADD PUSH1 0x0 KECCAK256 PUSH1 0x0 DUP4 PUSH20 0xFFFFFFFFFFFFFFFFFFFFFFFFFFFFFFFFFFFFFFFF AND PUSH20 0xFFFFFFFFFFFFFFFFFFFFFFFFFFFFFFFFFFFFFFFF AND DUP2 MSTORE PUSH1 0x20 ADD SWAP1 DUP2 MSTORE PUSH1 0x20 ADD PUSH1 0x0 KECCAK256 SLOAD SWAP1 POP SWAP3 SWAP2 POP POP JUMP JUMPDEST PUSH1 0x0 PUSH32 0x1FFC9A700000000000000000000000000000000000000000000000000000000 PUSH28 0xFFFFFFFFFFFFFFFFFFFFFFFFFFFFFFFFFFFFFFFFFFFFFFFFFFFFFFFF NOT AND DUP3 PUSH28 0xFFFFFFFFFFFFFFFFFFFFFFFFFFFFFFFFFFFFFFFFFFFFFFFFFFFFFFFF NOT AND EQ SWAP1 POP SWAP2 SWAP1 POP JUMP JUMPDEST PUSH1 0x0 CALLER SWAP1 POP SWAP1 JUMP JUMPDEST PUSH1 0x0 PUSH20 0xFFFFFFFFFFFFFFFFFFFFFFFFFFFFFFFFFFFFFFFF AND DUP4 PUSH20 0xFFFFFFFFFFFFFFFFFFFFFFFFFFFFFFFFFFFFFFFF AND SUB PUSH2 0x1481 JUMPI PUSH1 0x40 MLOAD PUSH32 0x8C379A000000000000000000000000000000000000000000000000000000000 DUP2 MSTORE PUSH1 0x4 ADD PUSH2 0x1478 SWAP1 PUSH2 0x3766 JUMP JUMPDEST PUSH1 0x40 MLOAD DUP1 SWAP2 SUB SWAP1 REVERT JUMPDEST PUSH1 0x0 PUSH20 0xFFFFFFFFFFFFFFFFFFFFFFFFFFFFFFFFFFFFFFFF AND DUP3 PUSH20 0xFFFFFFFFFFFFFFFFFFFFFFFFFFFFFFFFFFFFFFFF AND SUB PUSH2 0x14F0 JUMPI PUSH1 0x40 MLOAD PUSH32 0x8C379A000000000000000000000000000000000000000000000000000000000 DUP2 MSTORE PUSH1 0x4 ADD PUSH2 0x14E7 SWAP1 PUSH2 0x37F8 JUMP JUMPDEST PUSH1 0x40 MLOAD DUP1 SWAP2 SUB SWAP1 REVERT JUMPDEST DUP1 PUSH1 0x34 PUSH1 0x0 DUP6 PUSH20 0xFFFFFFFFFFFFFFFFFFFFFFFFFFFFFFFFFFFFFFFF AND PUSH20 0xFFFFFFFFFFFFFFFFFFFFFFFFFFFFFFFFFFFFFFFF AND DUP2 MSTORE PUSH1 0x20 ADD SWAP1 DUP2 MSTORE PUSH1 0x20 ADD PUSH1 0x0 KECCAK256 PUSH1 0x0 DUP5 PUSH20 0xFFFFFFFFFFFFFFFFFFFFFFFFFFFFFFFFFFFFFFFF AND PUSH20 0xFFFFFFFFFFFFFFFFFFFFFFFFFFFFFFFFFFFFFFFF AND DUP2 MSTORE PUSH1 0x20 ADD SWAP1 DUP2 MSTORE PUSH1 0x20 ADD PUSH1 0x0 KECCAK256 DUP2 SWAP1 SSTORE POP DUP2 PUSH20 0xFFFFFFFFFFFFFFFFFFFFFFFFFFFFFFFFFFFFFFFF AND DUP4 PUSH20 0xFFFFFFFFFFFFFFFFFFFFFFFFFFFFFFFFFFFFFFFF AND PUSH32 0x8C5BE1E5EBEC7D5BD14F71427D1E84F3DD0314C0F7B2291E5B200AC8C7C3B925 DUP4 PUSH1 0x40 MLOAD PUSH2 0x15CE SWAP2 SWAP1 PUSH2 0x2D56 JUMP JUMPDEST PUSH1 0x40 MLOAD DUP1 SWAP2 SUB SWAP1 LOG3 POP POP POP JUMP JUMPDEST PUSH1 0x0 PUSH2 0x15E7 DUP5 DUP5 PUSH2 0x1319 JUMP JUMPDEST SWAP1 POP PUSH32 0xFFFFFFFFFFFFFFFFFFFFFFFFFFFFFFFFFFFFFFFFFFFFFFFFFFFFFFFFFFFFFFFF DUP2 EQ PUSH2 0x1661 JUMPI DUP2 DUP2 LT ISZERO PUSH2 0x1653 JUMPI PUSH1 0x40 MLOAD PUSH32 0x8C379A000000000000000000000000000000000000000000000000000000000 DUP2 MSTORE PUSH1 0x4 ADD PUSH2 0x164A SWAP1 PUSH2 0x3864 JUMP JUMPDEST PUSH1 0x40 MLOAD DUP1 SWAP2 SUB SWAP1 REVERT JUMPDEST PUSH2 0x1660 DUP5 DUP5 DUP5 DUP5 SUB PUSH2 0x1412 JUMP JUMPDEST JUMPDEST POP POP POP POP JUMP JUMPDEST PUSH1 0x0 PUSH20 0xFFFFFFFFFFFFFFFFFFFFFFFFFFFFFFFFFFFFFFFF AND DUP4 PUSH20 0xFFFFFFFFFFFFFFFFFFFFFFFFFFFFFFFFFFFFFFFF AND SUB PUSH2 0x16D6 JUMPI PUSH1 0x40 MLOAD PUSH32 0x8C379A000000000000000000000000000000000000000000000000000000000 DUP2 MSTORE PUSH1 0x4 ADD PUSH2 0x16CD SWAP1 PUSH2 0x38F6 JUMP JUMPDEST PUSH1 0x40 MLOAD DUP1 SWAP2 SUB SWAP1 REVERT JUMPDEST PUSH1 0x0 PUSH20 0xFFFFFFFFFFFFFFFFFFFFFFFFFFFFFFFFFFFFFFFF AND DUP3 PUSH20 0xFFFFFFFFFFFFFFFFFFFFFFFFFFFFFFFFFFFFFFFF AND SUB PUSH2 0x1745 JUMPI PUSH1 0x40 MLOAD PUSH32 0x8C379A000000000000000000000000000000000000000000000000000000000 DUP2 MSTORE PUSH1 0x4 ADD PUSH2 0x173C SWAP1 PUSH2 0x3988 JUMP JUMPDEST PUSH1 0x40 MLOAD DUP1 SWAP2 SUB SWAP1 REVERT JUMPDEST PUSH2 0x1750 DUP4 DUP4 DUP4 PUSH2 0x2426 JUMP JUMPDEST PUSH1 0x0 PUSH1 0x33 PUSH1 0x0 DUP6 PUSH20 0xFFFFFFFFFFFFFFFFFFFFFFFFFFFFFFFFFFFFFFFF AND PUSH20 0xFFFFFFFFFFFFFFFFFFFFFFFFFFFFFFFFFFFFFFFF AND DUP2 MSTORE PUSH1 0x20 ADD SWAP1 DUP2 MSTORE PUSH1 0x20 ADD PUSH1 0x0 KECCAK256 SLOAD SWAP1 POP DUP2 DUP2 LT ISZERO PUSH2 0x17D7 JUMPI PUSH1 0x40 MLOAD PUSH32 0x8C379A000000000000000000000000000000000000000000000000000000000 DUP2 MSTORE PUSH1 0x4 ADD PUSH2 0x17CE SWAP1 PUSH2 0x3A1A JUMP JUMPDEST PUSH1 0x40 MLOAD DUP1 SWAP2 SUB SWAP1 REVERT JUMPDEST DUP2 DUP2 SUB PUSH1 0x33 PUSH1 0x0 DUP7 PUSH20 0xFFFFFFFFFFFFFFFFFFFFFFFFFFFFFFFFFFFFFFFF AND PUSH20 0xFFFFFFFFFFFFFFFFFFFFFFFFFFFFFFFFFFFFFFFF AND DUP2 MSTORE PUSH1 0x20 ADD SWAP1 DUP2 MSTORE PUSH1 0x20 ADD PUSH1 0x0 KECCAK256 DUP2 SWAP1 SSTORE POP DUP2 PUSH1 0x33 PUSH1 0x0 DUP6 PUSH20 0xFFFFFFFFFFFFFFFFFFFFFFFFFFFFFFFFFFFFFFFF AND PUSH20 0xFFFFFFFFFFFFFFFFFFFFFFFFFFFFFFFFFFFFFFFF AND DUP2 MSTORE PUSH1 0x20 ADD SWAP1 DUP2 MSTORE PUSH1 0x20 ADD PUSH1 0x0 KECCAK256 PUSH1 0x0 DUP3 DUP3 SLOAD PUSH2 0x186C SWAP2 SWAP1 PUSH2 0x34F8 JUMP JUMPDEST SWAP3 POP POP DUP2 SWAP1 SSTORE POP DUP3 PUSH20 0xFFFFFFFFFFFFFFFFFFFFFFFFFFFFFFFFFFFFFFFF AND DUP5 PUSH20 0xFFFFFFFFFFFFFFFFFFFFFFFFFFFFFFFFFFFFFFFF AND PUSH32 0xDDF252AD1BE2C89B69C2B068FC378DAA952BA7F163C4A11628F55A4DF523B3EF DUP5 PUSH1 0x40 MLOAD PUSH2 0x18D0 SWAP2 SWAP1 PUSH2 0x2D56 JUMP JUMPDEST PUSH1 0x40 MLOAD DUP1 SWAP2 SUB SWAP1 LOG3 PUSH2 0x18E3 DUP5 DUP5 DUP5 PUSH2 0x242B JUMP JUMPDEST POP POP POP POP JUMP JUMPDEST PUSH2 0x18FA DUP2 PUSH2 0x18F5 PUSH2 0x140A JUMP JUMPDEST PUSH2 0x2430 JUMP JUMPDEST POP JUMP JUMPDEST PUSH2 0x1907 DUP3 DUP3 PUSH2 0xDDA JUMP JUMPDEST PUSH2 0x19DA JUMPI PUSH1 0x1 PUSH1 0xC9 PUSH1 0x0 DUP5 DUP2 MSTORE PUSH1 0x20 ADD SWAP1 DUP2 MSTORE PUSH1 0x20 ADD PUSH1 0x0 KECCAK256 PUSH1 0x0 ADD PUSH1 0x0 DUP4 PUSH20 0xFFFFFFFFFFFFFFFFFFFFFFFFFFFFFFFFFFFFFFFF AND PUSH20 0xFFFFFFFFFFFFFFFFFFFFFFFFFFFFFFFFFFFFFFFF AND DUP2 MSTORE PUSH1 0x20 ADD SWAP1 DUP2 MSTORE PUSH1 0x20 ADD PUSH1 0x0 KECCAK256 PUSH1 0x0 PUSH2 0x100 EXP DUP2 SLOAD DUP2 PUSH1 0xFF MUL NOT AND SWAP1 DUP4 ISZERO ISZERO MUL OR SWAP1 SSTORE POP PUSH2 0x197F PUSH2 0x140A JUMP JUMPDEST PUSH20 0xFFFFFFFFFFFFFFFFFFFFFFFFFFFFFFFFFFFFFFFF AND DUP2 PUSH20 0xFFFFFFFFFFFFFFFFFFFFFFFFFFFFFFFFFFFFFFFF AND DUP4 PUSH32 0x2F8788117E7EFF1D82E926EC794901D17C78024A50270940304540A733656F0D PUSH1 0x40 MLOAD PUSH1 0x40 MLOAD DUP1 SWAP2 SUB SWAP1 LOG4 JUMPDEST POP POP JUMP JUMPDEST PUSH2 0x19E8 DUP3 DUP3 PUSH2 0xDDA JUMP JUMPDEST ISZERO PUSH2 0x1ABC JUMPI PUSH1 0x0 PUSH1 0xC9 PUSH1 0x0 DUP5 DUP2 MSTORE PUSH1 0x20 ADD SWAP1 DUP2 MSTORE PUSH1 0x20 ADD PUSH1 0x0 KECCAK256 PUSH1 0x0 ADD PUSH1 0x0 DUP4 PUSH20 0xFFFFFFFFFFFFFFFFFFFFFFFFFFFFFFFFFFFFFFFF AND PUSH20 0xFFFFFFFFFFFFFFFFFFFFFFFFFFFFFFFFFFFFFFFF AND DUP2 MSTORE PUSH1 0x20 ADD SWAP1 DUP2 MSTORE PUSH1 0x20 ADD PUSH1 0x0 KECCAK256 PUSH1 0x0 PUSH2 0x100 EXP DUP2 SLOAD DUP2 PUSH1 0xFF MUL NOT AND SWAP1 DUP4 ISZERO ISZERO MUL OR SWAP1 SSTORE POP PUSH2 0x1A61 PUSH2 0x140A JUMP JUMPDEST PUSH20 0xFFFFFFFFFFFFFFFFFFFFFFFFFFFFFFFFFFFFFFFF AND DUP2 PUSH20 0xFFFFFFFFFFFFFFFFFFFFFFFFFFFFFFFFFFFFFFFF AND DUP4 PUSH32 0xF6391F5C32D9C69D2A47EA670B442974B53935D1EDC7FD64EB21E047A839171B PUSH1 0x40 MLOAD PUSH1 0x40 MLOAD DUP1 SWAP2 SUB SWAP1 LOG4 JUMPDEST POP POP JUMP JUMPDEST PUSH2 0x1AC8 PUSH2 0xC3A JUMP JUMPDEST PUSH2 0x1B07 JUMPI PUSH1 0x40 MLOAD PUSH32 0x8C379A000000000000000000000000000000000000000000000000000000000 DUP2 MSTORE PUSH1 0x4 ADD PUSH2 0x1AFE SWAP1 PUSH2 0x3A86 JUMP JUMPDEST PUSH1 0x40 MLOAD DUP1 SWAP2 SUB SWAP1 REVERT JUMPDEST PUSH1 0x0 PUSH1 0xFB PUSH1 0x0 PUSH2 0x100 EXP DUP2 SLOAD DUP2 PUSH1 0xFF MUL NOT AND SWAP1 DUP4 ISZERO ISZERO MUL OR SWAP1 SSTORE POP PUSH32 0x5DB9EE0A495BF2E6FF9C91A7834C1BA4FDD244A5E8AA4E537BD38AEAE4B073AA PUSH2 0x1B4B PUSH2 0x140A JUMP JUMPDEST PUSH1 0x40 MLOAD PUSH2 0x1B58 SWAP2 SWAP1 PUSH2 0x3296 JUMP JUMPDEST PUSH1 0x40 MLOAD DUP1 SWAP2 SUB SWAP1 LOG1 JUMP JUMPDEST PUSH1 0x0 PUSH20 0xFFFFFFFFFFFFFFFFFFFFFFFFFFFFFFFFFFFFFFFF AND DUP3 PUSH20 0xFFFFFFFFFFFFFFFFFFFFFFFFFFFFFFFFFFFFFFFF AND SUB PUSH2 0x1BD1 JUMPI PUSH1 0x40 MLOAD PUSH32 0x8C379A000000000000000000000000000000000000000000000000000000000 DUP2 MSTORE PUSH1 0x4 ADD PUSH2 0x1BC8 SWAP1 PUSH2 0x3AF2 JUMP JUMPDEST PUSH1 0x40 MLOAD DUP1 SWAP2 SUB SWAP1 REVERT JUMPDEST PUSH2 0x1BDD PUSH1 0x0 DUP4 DUP4 PUSH2 0x2426 JUMP JUMPDEST DUP1 PUSH1 0x35 PUSH1 0x0 DUP3 DUP3 SLOAD PUSH2 0x1BEF SWAP2 SWAP1 PUSH2 0x34F8 JUMP JUMPDEST SWAP3 POP POP DUP2 SWAP1 SSTORE POP DUP1 PUSH1 0x33 PUSH1 0x0 DUP5 PUSH20 0xFFFFFFFFFFFFFFFFFFFFFFFFFFFFFFFFFFFFFFFF AND PUSH20 0xFFFFFFFFFFFFFFFFFFFFFFFFFFFFFFFFFFFFFFFF AND DUP2 MSTORE PUSH1 0x20 ADD SWAP1 DUP2 MSTORE PUSH1 0x20 ADD PUSH1 0x0 KECCAK256 PUSH1 0x0 DUP3 DUP3 SLOAD PUSH2 0x1C45 SWAP2 SWAP1 PUSH2 0x34F8 JUMP JUMPDEST SWAP3 POP POP DUP2 SWAP1 SSTORE POP DUP2 PUSH20 0xFFFFFFFFFFFFFFFFFFFFFFFFFFFFFFFFFFFFFFFF AND PUSH1 0x0 PUSH20 0xFFFFFFFFFFFFFFFFFFFFFFFFFFFFFFFFFFFFFFFF AND PUSH32 0xDDF252AD1BE2C89B69C2B068FC378DAA952BA7F163C4A11628F55A4DF523B3EF DUP4 PUSH1 0x40 MLOAD PUSH2 0x1CAA SWAP2 SWAP1 PUSH2 0x2D56 JUMP JUMPDEST PUSH1 0x40 MLOAD DUP1 SWAP2 SUB SWAP1 LOG3 PUSH2 0x1CBE PUSH1 0x0 DUP4 DUP4 PUSH2 0x242B JUMP JUMPDEST POP POP JUMP JUMPDEST PUSH1 0x0 PUSH20 0xFFFFFFFFFFFFFFFFFFFFFFFFFFFFFFFFFFFFFFFF AND DUP3 PUSH20 0xFFFFFFFFFFFFFFFFFFFFFFFFFFFFFFFFFFFFFFFF AND SUB PUSH2 0x1D31 JUMPI PUSH1 0x40 MLOAD PUSH32 0x8C379A000000000000000000000000000000000000000000000000000000000 DUP2 MSTORE PUSH1 0x4 ADD PUSH2 0x1D28 SWAP1 PUSH2 0x3B84 JUMP JUMPDEST PUSH1 0x40 MLOAD DUP1 SWAP2 SUB SWAP1 REVERT JUMPDEST PUSH2 0x1D3D DUP3 PUSH1 0x0 DUP4 PUSH2 0x2426 JUMP JUMPDEST PUSH1 0x0 PUSH1 0x33 PUSH1 0x0 DUP5 PUSH20 0xFFFFFFFFFFFFFFFFFFFFFFFFFFFFFFFFFFFFFFFF AND PUSH20 0xFFFFFFFFFFFFFFFFFFFFFFFFFFFFFFFFFFFFFFFF AND DUP2 MSTORE PUSH1 0x20 ADD SWAP1 DUP2 MSTORE PUSH1 0x20 ADD PUSH1 0x0 KECCAK256 SLOAD SWAP1 POP DUP2 DUP2 LT ISZERO PUSH2 0x1DC4 JUMPI PUSH1 0x40 MLOAD PUSH32 0x8C379A000000000000000000000000000000000000000000000000000000000 DUP2 MSTORE PUSH1 0x4 ADD PUSH2 0x1DBB SWAP1 PUSH2 0x3C16 JUMP JUMPDEST PUSH1 0x40 MLOAD DUP1 SWAP2 SUB SWAP1 REVERT JUMPDEST DUP2 DUP2 SUB PUSH1 0x33 PUSH1 0x0 DUP6 PUSH20 0xFFFFFFFFFFFFFFFFFFFFFFFFFFFFFFFFFFFFFFFF AND PUSH20 0xFFFFFFFFFFFFFFFFFFFFFFFFFFFFFFFFFFFFFFFF AND DUP2 MSTORE PUSH1 0x20 ADD SWAP1 DUP2 MSTORE PUSH1 0x20 ADD PUSH1 0x0 KECCAK256 DUP2 SWAP1 SSTORE POP DUP2 PUSH1 0x35 PUSH1 0x0 DUP3 DUP3 SLOAD PUSH2 0x1E1C SWAP2 SWAP1 PUSH2 0x3C36 JUMP JUMPDEST SWAP3 POP POP DUP2 SWAP1 SSTORE POP PUSH1 0x0 PUSH20 0xFFFFFFFFFFFFFFFFFFFFFFFFFFFFFFFFFFFFFFFF AND DUP4 PUSH20 0xFFFFFFFFFFFFFFFFFFFFFFFFFFFFFFFFFFFFFFFF AND PUSH32 0xDDF252AD1BE2C89B69C2B068FC378DAA952BA7F163C4A11628F55A4DF523B3EF DUP5 PUSH1 0x40 MLOAD PUSH2 0x1E81 SWAP2 SWAP1 PUSH2 0x2D56 JUMP JUMPDEST PUSH1 0x40 MLOAD DUP1 SWAP2 SUB SWAP1 LOG3 PUSH2 0x1E95 DUP4 PUSH1 0x0 DUP5 PUSH2 0x242B JUMP JUMPDEST POP POP POP JUMP JUMPDEST PUSH2 0x1EA2 PUSH2 0xC3A JUMP JUMPDEST ISZERO PUSH2 0x1EE2 JUMPI PUSH1 0x40 MLOAD PUSH32 0x8C379A000000000000000000000000000000000000000000000000000000000 DUP2 MSTORE PUSH1 0x4 ADD PUSH2 0x1ED9 SWAP1 PUSH2 0x3CB6 JUMP JUMPDEST PUSH1 0x40 MLOAD DUP1 SWAP2 SUB SWAP1 REVERT JUMPDEST PUSH1 0x1 PUSH1 0xFB PUSH1 0x0 PUSH2 0x100 EXP DUP2 SLOAD DUP2 PUSH1 0xFF MUL NOT AND SWAP1 DUP4 ISZERO ISZERO MUL OR SWAP1 SSTORE POP PUSH32 0x62E78CEA01BEE320CD4E420270B5EA74000D11B0C9F74754EBDBFC544B05A258 PUSH2 0x1F26 PUSH2 0x140A JUMP JUMPDEST PUSH1 0x40 MLOAD PUSH2 0x1F33 SWAP2 SWAP1 PUSH2 0x3296 JUMP JUMPDEST PUSH1 0x40 MLOAD DUP1 SWAP2 SUB SWAP1 LOG1 JUMP JUMPDEST PUSH2 0x1F45 PUSH2 0xC3A JUMP JUMPDEST ISZERO PUSH2 0x1F85 JUMPI PUSH1 0x40 MLOAD PUSH32 0x8C379A000000000000000000000000000000000000000000000000000000000 DUP2 MSTORE PUSH1 0x4 ADD PUSH2 0x1F7C SWAP1 PUSH2 0x3CB6 JUMP JUMPDEST PUSH1 0x40 MLOAD DUP1 SWAP2 SUB SWAP1 REVERT JUMPDEST PUSH2 0x1F8D PUSH2 0x2A1E JUMP JUMPDEST PUSH2 0x1FA7 PUSH1 0x1 DUP1 DUP4 PUSH1 0x20 ADD MLOAD PUSH2 0x24CD SWAP1 SWAP3 SWAP2 SWAP1 PUSH4 0xFFFFFFFF AND JUMP JUMPDEST DUP2 PUSH1 0x20 ADD DUP2 DUP2 MSTORE POP POP PUSH2 0x1FCB PUSH1 0x2 PUSH1 0x1 DUP4 PUSH1 0x20 ADD MLOAD PUSH2 0x24CD SWAP1 SWAP3 SWAP2 SWAP1 PUSH4 0xFFFFFFFF AND JUMP JUMPDEST DUP2 PUSH1 0x20 ADD DUP2 DUP2 MSTORE POP POP DUP2 DUP2 PUSH1 0x0 ADD DUP2 DUP2 MSTORE POP POP DUP3 PUSH1 0x40 MLOAD PUSH1 0x20 ADD PUSH2 0x1FEF SWAP2 SWAP1 PUSH2 0x3CD6 JUMP JUMPDEST PUSH1 0x40 MLOAD PUSH1 0x20 DUP2 DUP4 SUB SUB DUP2 MSTORE SWAP1 PUSH1 0x40 MSTORE DUP2 PUSH1 0x40 ADD DUP2 SWAP1 MSTORE POP DUP5 DUP5 DUP8 PUSH1 0x40 MLOAD PUSH1 0x24 ADD PUSH2 0x201B SWAP4 SWAP3 SWAP2 SWAP1 PUSH2 0x3CF1 JUMP JUMPDEST PUSH1 0x40 MLOAD PUSH1 0x20 DUP2 DUP4 SUB SUB DUP2 MSTORE SWAP1 PUSH1 0x40 MSTORE PUSH32 0x9616621000000000000000000000000000000000000000000000000000000000 PUSH28 0xFFFFFFFFFFFFFFFFFFFFFFFFFFFFFFFFFFFFFFFFFFFFFFFFFFFFFFFF NOT AND PUSH1 0x20 DUP3 ADD DUP1 MLOAD PUSH28 0xFFFFFFFFFFFFFFFFFFFFFFFFFFFFFFFFFFFFFFFFFFFFFFFFFFFFFFFF DUP4 DUP2 DUP4 AND OR DUP4 MSTORE POP POP POP POP DUP2 PUSH1 0x60 ADD DUP2 SWAP1 MSTORE POP PUSH1 0x0 PUSH2 0x12F PUSH1 0x0 DUP9 DUP2 MSTORE PUSH1 0x20 ADD SWAP1 DUP2 MSTORE PUSH1 0x20 ADD PUSH1 0x0 KECCAK256 PUSH1 0x0 SWAP1 SLOAD SWAP1 PUSH2 0x100 EXP SWAP1 DIV PUSH20 0xFFFFFFFFFFFFFFFFFFFFFFFFFFFFFFFFFFFFFFFF AND SWAP1 POP PUSH1 0x0 PUSH20 0xFFFFFFFFFFFFFFFFFFFFFFFFFFFFFFFFFFFFFFFF AND DUP2 PUSH20 0xFFFFFFFFFFFFFFFFFFFFFFFFFFFFFFFFFFFFFFFF AND SUB PUSH2 0x213F JUMPI PUSH1 0x40 MLOAD PUSH32 0x864BF4D600000000000000000000000000000000000000000000000000000000 DUP2 MSTORE PUSH1 0x4 ADD PUSH1 0x40 MLOAD DUP1 SWAP2 SUB SWAP1 REVERT JUMPDEST PUSH2 0x12D PUSH1 0x0 SWAP1 SLOAD SWAP1 PUSH2 0x100 EXP SWAP1 DIV PUSH20 0xFFFFFFFFFFFFFFFFFFFFFFFFFFFFFFFFFFFFFFFF AND PUSH20 0xFFFFFFFFFFFFFFFFFFFFFFFFFFFFFFFFFFFFFFFF AND PUSH4 0xBE297476 CALLVALUE PUSH1 0x0 CALLVALUE DUP12 DUP7 PUSH1 0x40 MLOAD PUSH1 0x20 ADD PUSH2 0x2194 SWAP2 SWAP1 PUSH2 0x3CD6 JUMP JUMPDEST PUSH1 0x40 MLOAD PUSH1 0x20 DUP2 DUP4 SUB SUB DUP2 MSTORE SWAP1 PUSH1 0x40 MSTORE PUSH1 0x0 DUP1 DUP11 PUSH1 0x40 MLOAD PUSH1 0x20 ADD PUSH2 0x21B7 SWAP2 SWAP1 PUSH2 0x3DEB JUMP JUMPDEST PUSH1 0x40 MLOAD PUSH1 0x20 DUP2 DUP4 SUB SUB DUP2 MSTORE SWAP1 PUSH1 0x40 MSTORE PUSH1 0x40 MLOAD DUP10 PUSH4 0xFFFFFFFF AND PUSH1 0xE0 SHL DUP2 MSTORE PUSH1 0x4 ADD PUSH2 0x21E8 SWAP8 SWAP7 SWAP6 SWAP5 SWAP4 SWAP3 SWAP2 SWAP1 PUSH2 0x3E7E JUMP JUMPDEST PUSH1 0x0 PUSH1 0x40 MLOAD DUP1 DUP4 SUB DUP2 DUP6 DUP9 DUP1 EXTCODESIZE ISZERO DUP1 ISZERO PUSH2 0x2201 JUMPI PUSH1 0x0 DUP1 REVERT JUMPDEST POP GAS CALL ISZERO DUP1 ISZERO PUSH2 0x2215 JUMPI RETURNDATASIZE PUSH1 0x0 DUP1 RETURNDATACOPY RETURNDATASIZE PUSH1 0x0 REVERT JUMPDEST POP POP POP POP POP POP POP POP POP POP POP POP JUMP JUMPDEST PUSH1 0x0 DUP1 PUSH1 0x1 SWAP1 SLOAD SWAP1 PUSH2 0x100 EXP SWAP1 DIV PUSH1 0xFF AND ISZERO PUSH2 0x229A JUMPI PUSH1 0x1 DUP3 PUSH1 0xFF AND EQ DUP1 ISZERO PUSH2 0x2252 JUMPI POP PUSH2 0x2250 ADDRESS PUSH2 0x24F5 JUMP JUMPDEST ISZERO JUMPDEST PUSH2 0x2291 JUMPI PUSH1 0x40 MLOAD PUSH32 0x8C379A000000000000000000000000000000000000000000000000000000000 DUP2 MSTORE PUSH1 0x4 ADD PUSH2 0x2288 SWAP1 PUSH2 0x3F81 JUMP JUMPDEST PUSH1 0x40 MLOAD DUP1 SWAP2 SUB SWAP1 REVERT JUMPDEST PUSH1 0x0 SWAP1 POP PUSH2 0x230E JUMP JUMPDEST DUP2 PUSH1 0xFF AND PUSH1 0x0 DUP1 SLOAD SWAP1 PUSH2 0x100 EXP SWAP1 DIV PUSH1 0xFF AND PUSH1 0xFF AND LT PUSH2 0x22EF JUMPI PUSH1 0x40 MLOAD PUSH32 0x8C379A000000000000000000000000000000000000000000000000000000000 DUP2 MSTORE PUSH1 0x4 ADD PUSH2 0x22E6 SWAP1 PUSH2 0x3F81 JUMP JUMPDEST PUSH1 0x40 MLOAD DUP1 SWAP2 SUB SWAP1 REVERT JUMPDEST DUP2 PUSH1 0x0 DUP1 PUSH2 0x100 EXP DUP2 SLOAD DUP2 PUSH1 0xFF MUL NOT AND SWAP1 DUP4 PUSH1 0xFF AND MUL OR SWAP1 SSTORE POP PUSH1 0x1 SWAP1 POP JUMPDEST SWAP2 SWAP1 POP JUMP JUMPDEST PUSH1 0x0 PUSH1 0x1 SWAP1 SLOAD SWAP1 PUSH2 0x100 EXP SWAP1 DIV PUSH1 0xFF AND PUSH2 0x2362 JUMPI PUSH1 0x40 MLOAD PUSH32 0x8C379A000000000000000000000000000000000000000000000000000000000 DUP2 MSTORE PUSH1 0x4 ADD PUSH2 0x2359 SWAP1 PUSH2 0x4013 JUMP JUMPDEST PUSH1 0x40 MLOAD DUP1 SWAP2 SUB SWAP1 REVERT JUMPDEST PUSH2 0x236C DUP3 DUP3 PUSH2 0x2518 JUMP JUMPDEST POP POP JUMP JUMPDEST PUSH1 0x0 PUSH2 0x237C PUSH1 0x1 PUSH2 0x2223 JUMP JUMPDEST SWAP1 POP DUP1 ISZERO PUSH2 0x23A0 JUMPI PUSH1 0x1 PUSH1 0x0 PUSH1 0x1 PUSH2 0x100 EXP DUP2 SLOAD DUP2 PUSH1 0xFF MUL NOT AND SWAP1 DUP4 ISZERO ISZERO MUL OR SWAP1 SSTORE POP JUMPDEST PUSH2 0x23A8 PUSH2 0x2599 JUMP JUMPDEST PUSH2 0x23B0 PUSH2 0x25EA JUMP JUMPDEST PUSH2 0x23B8 PUSH2 0x263B JUMP JUMPDEST PUSH2 0x23C0 PUSH2 0x268C JUMP JUMPDEST PUSH2 0x23C9 DUP3 PUSH2 0x26F8 JUMP JUMPDEST DUP1 ISZERO PUSH2 0x2422 JUMPI PUSH1 0x0 DUP1 PUSH1 0x1 PUSH2 0x100 EXP DUP2 SLOAD DUP2 PUSH1 0xFF MUL NOT AND SWAP1 DUP4 ISZERO ISZERO MUL OR SWAP1 SSTORE POP PUSH32 0x7F26B83FF96E1F2B6A682F133852F6798A09C465DA95921460CEFB3847402498 PUSH1 0x1 PUSH1 0x40 MLOAD PUSH2 0x2419 SWAP2 SWAP1 PUSH2 0x36D9 JUMP JUMPDEST PUSH1 0x40 MLOAD DUP1 SWAP2 SUB SWAP1 LOG1 JUMPDEST POP POP JUMP JUMPDEST POP POP POP JUMP JUMPDEST POP POP POP JUMP JUMPDEST PUSH2 0x243A DUP3 DUP3 PUSH2 0xDDA JUMP JUMPDEST PUSH2 0x24C9 JUMPI PUSH2 0x245F DUP2 PUSH20 0xFFFFFFFFFFFFFFFFFFFFFFFFFFFFFFFFFFFFFFFF AND PUSH1 0x14 PUSH2 0x27D4 JUMP JUMPDEST PUSH2 0x246D DUP4 PUSH1 0x0 SHR PUSH1 0x20 PUSH2 0x27D4 JUMP JUMPDEST PUSH1 0x40 MLOAD PUSH1 0x20 ADD PUSH2 0x247E SWAP3 SWAP2 SWAP1 PUSH2 0x4107 JUMP JUMPDEST PUSH1 0x40 MLOAD PUSH1 0x20 DUP2 DUP4 SUB SUB DUP2 MSTORE SWAP1 PUSH1 0x40 MSTORE PUSH1 0x40 MLOAD PUSH32 0x8C379A000000000000000000000000000000000000000000000000000000000 DUP2 MSTORE PUSH1 0x4 ADD PUSH2 0x24C0 SWAP2 SWAP1 PUSH2 0x2C51 JUMP JUMPDEST PUSH1 0x40 MLOAD DUP1 SWAP2 SUB SWAP1 REVERT JUMPDEST POP POP JUMP JUMPDEST PUSH1 0x0 DUP2 ISZERO PUSH2 0x24E3 JUMPI DUP3 PUSH1 0x1 SWAP1 SHL DUP5 OR SWAP1 POP PUSH2 0x24EE JUMP JUMPDEST DUP3 PUSH1 0x1 SWAP1 SHL NOT DUP5 AND SWAP1 POP JUMPDEST SWAP4 SWAP3 POP POP POP JUMP JUMPDEST PUSH1 0x0 DUP1 DUP3 PUSH20 0xFFFFFFFFFFFFFFFFFFFFFFFFFFFFFFFFFFFFFFFF AND EXTCODESIZE GT SWAP1 POP SWAP2 SWAP1 POP JUMP JUMPDEST PUSH1 0x0 PUSH1 0x1 SWAP1 SLOAD SWAP1 PUSH2 0x100 EXP SWAP1 DIV PUSH1 0xFF AND PUSH2 0x2567 JUMPI PUSH1 0x40 MLOAD PUSH32 0x8C379A000000000000000000000000000000000000000000000000000000000 DUP2 MSTORE PUSH1 0x4 ADD PUSH2 0x255E SWAP1 PUSH2 0x4013 JUMP JUMPDEST PUSH1 0x40 MLOAD DUP1 SWAP2 SUB SWAP1 REVERT JUMPDEST DUP2 PUSH1 0x36 SWAP1 DUP1 MLOAD SWAP1 PUSH1 0x20 ADD SWAP1 PUSH2 0x257D SWAP3 SWAP2 SWAP1 PUSH2 0x2A46 JUMP JUMPDEST POP DUP1 PUSH1 0x37 SWAP1 DUP1 MLOAD SWAP1 PUSH1 0x20 ADD SWAP1 PUSH2 0x2594 SWAP3 SWAP2 SWAP1 PUSH2 0x2A46 JUMP JUMPDEST POP POP POP JUMP JUMPDEST PUSH1 0x0 PUSH1 0x1 SWAP1 SLOAD SWAP1 PUSH2 0x100 EXP SWAP1 DIV PUSH1 0xFF AND PUSH2 0x25E8 JUMPI PUSH1 0x40 MLOAD PUSH32 0x8C379A000000000000000000000000000000000000000000000000000000000 DUP2 MSTORE PUSH1 0x4 ADD PUSH2 0x25DF SWAP1 PUSH2 0x4013 JUMP JUMPDEST PUSH1 0x40 MLOAD DUP1 SWAP2 SUB SWAP1 REVERT JUMPDEST JUMP JUMPDEST PUSH1 0x0 PUSH1 0x1 SWAP1 SLOAD SWAP1 PUSH2 0x100 EXP SWAP1 DIV PUSH1 0xFF AND PUSH2 0x2639 JUMPI PUSH1 0x40 MLOAD PUSH32 0x8C379A000000000000000000000000000000000000000000000000000000000 DUP2 MSTORE PUSH1 0x4 ADD PUSH2 0x2630 SWAP1 PUSH2 0x4013 JUMP JUMPDEST PUSH1 0x40 MLOAD DUP1 SWAP2 SUB SWAP1 REVERT JUMPDEST JUMP JUMPDEST PUSH1 0x0 PUSH1 0x1 SWAP1 SLOAD SWAP1 PUSH2 0x100 EXP SWAP1 DIV PUSH1 0xFF AND PUSH2 0x268A JUMPI PUSH1 0x40 MLOAD PUSH32 0x8C379A000000000000000000000000000000000000000000000000000000000 DUP2 MSTORE PUSH1 0x4 ADD PUSH2 0x2681 SWAP1 PUSH2 0x4013 JUMP JUMPDEST PUSH1 0x40 MLOAD DUP1 SWAP2 SUB SWAP1 REVERT JUMPDEST JUMP JUMPDEST PUSH1 0x0 PUSH1 0x1 SWAP1 SLOAD SWAP1 PUSH2 0x100 EXP SWAP1 DIV PUSH1 0xFF AND PUSH2 0x26DB JUMPI PUSH1 0x40 MLOAD PUSH32 0x8C379A000000000000000000000000000000000000000000000000000000000 DUP2 MSTORE PUSH1 0x4 ADD PUSH2 0x26D2 SWAP1 PUSH2 0x4013 JUMP JUMPDEST PUSH1 0x40 MLOAD DUP1 SWAP2 SUB SWAP1 REVERT JUMPDEST PUSH1 0x0 PUSH1 0xFB PUSH1 0x0 PUSH2 0x100 EXP DUP2 SLOAD DUP2 PUSH1 0xFF MUL NOT AND SWAP1 DUP4 ISZERO ISZERO MUL OR SWAP1 SSTORE POP JUMP JUMPDEST PUSH1 0x0 PUSH2 0x2704 PUSH1 0x1 PUSH2 0x2223 JUMP JUMPDEST SWAP1 POP DUP1 ISZERO PUSH2 0x2728 JUMPI PUSH1 0x1 PUSH1 0x0 PUSH1 0x1 PUSH2 0x100 EXP DUP2 SLOAD DUP2 PUSH1 0xFF MUL NOT AND SWAP1 DUP4 ISZERO ISZERO MUL OR SWAP1 SSTORE POP JUMPDEST DUP2 PUSH2 0x12D PUSH1 0x0 PUSH2 0x100 EXP DUP2 SLOAD DUP2 PUSH20 0xFFFFFFFFFFFFFFFFFFFFFFFFFFFFFFFFFFFFFFFF MUL NOT AND SWAP1 DUP4 PUSH20 0xFFFFFFFFFFFFFFFFFFFFFFFFFFFFFFFFFFFFFFFF AND MUL OR SWAP1 SSTORE POP PUSH2 0x2777 PUSH1 0x0 DUP1 SHL CALLER PUSH2 0x2A10 JUMP JUMPDEST DUP1 ISZERO PUSH2 0x27D0 JUMPI PUSH1 0x0 DUP1 PUSH1 0x1 PUSH2 0x100 EXP DUP2 SLOAD DUP2 PUSH1 0xFF MUL NOT AND SWAP1 DUP4 ISZERO ISZERO MUL OR SWAP1 SSTORE POP PUSH32 0x7F26B83FF96E1F2B6A682F133852F6798A09C465DA95921460CEFB3847402498 PUSH1 0x1 PUSH1 0x40 MLOAD PUSH2 0x27C7 SWAP2 SWAP1 PUSH2 0x36D9 JUMP JUMPDEST PUSH1 0x40 MLOAD DUP1 SWAP2 SUB SWAP1 LOG1 JUMPDEST POP POP JUMP JUMPDEST PUSH1 0x60 PUSH1 0x0 PUSH1 0x2 DUP4 PUSH1 0x2 PUSH2 0x27E7 SWAP2 SWAP1 PUSH2 0x4141 JUMP JUMPDEST PUSH2 0x27F1 SWAP2 SWAP1 PUSH2 0x34F8 JUMP JUMPDEST PUSH8 0xFFFFFFFFFFFFFFFF DUP2 GT ISZERO PUSH2 0x280A JUMPI PUSH2 0x2809 PUSH2 0x2E5B JUMP JUMPDEST JUMPDEST PUSH1 0x40 MLOAD SWAP1 DUP1 DUP3 MSTORE DUP1 PUSH1 0x1F ADD PUSH1 0x1F NOT AND PUSH1 0x20 ADD DUP3 ADD PUSH1 0x40 MSTORE DUP1 ISZERO PUSH2 0x283C JUMPI DUP2 PUSH1 0x20 ADD PUSH1 0x1 DUP3 MUL DUP1 CALLDATASIZE DUP4 CALLDATACOPY DUP1 DUP3 ADD SWAP2 POP POP SWAP1 POP JUMPDEST POP SWAP1 POP PUSH32 0x3000000000000000000000000000000000000000000000000000000000000000 DUP2 PUSH1 0x0 DUP2 MLOAD DUP2 LT PUSH2 0x2874 JUMPI PUSH2 0x2873 PUSH2 0x419B JUMP JUMPDEST JUMPDEST PUSH1 0x20 ADD ADD SWAP1 PUSH31 0xFFFFFFFFFFFFFFFFFFFFFFFFFFFFFFFFFFFFFFFFFFFFFFFFFFFFFFFFFFFFFF NOT AND SWAP1 DUP2 PUSH1 0x0 BYTE SWAP1 MSTORE8 POP PUSH32 0x7800000000000000000000000000000000000000000000000000000000000000 DUP2 PUSH1 0x1 DUP2 MLOAD DUP2 LT PUSH2 0x28D8 JUMPI PUSH2 0x28D7 PUSH2 0x419B JUMP JUMPDEST JUMPDEST PUSH1 0x20 ADD ADD SWAP1 PUSH31 0xFFFFFFFFFFFFFFFFFFFFFFFFFFFFFFFFFFFFFFFFFFFFFFFFFFFFFFFFFFFFFF NOT AND SWAP1 DUP2 PUSH1 0x0 BYTE SWAP1 MSTORE8 POP PUSH1 0x0 PUSH1 0x1 DUP5 PUSH1 0x2 PUSH2 0x2918 SWAP2 SWAP1 PUSH2 0x4141 JUMP JUMPDEST PUSH2 0x2922 SWAP2 SWAP1 PUSH2 0x34F8 JUMP JUMPDEST SWAP1 POP JUMPDEST PUSH1 0x1 DUP2 GT ISZERO PUSH2 0x29C2 JUMPI PUSH32 0x3031323334353637383961626364656600000000000000000000000000000000 PUSH1 0xF DUP7 AND PUSH1 0x10 DUP2 LT PUSH2 0x2964 JUMPI PUSH2 0x2963 PUSH2 0x419B JUMP JUMPDEST JUMPDEST BYTE PUSH1 0xF8 SHL DUP3 DUP3 DUP2 MLOAD DUP2 LT PUSH2 0x297B JUMPI PUSH2 0x297A PUSH2 0x419B JUMP JUMPDEST JUMPDEST PUSH1 0x20 ADD ADD SWAP1 PUSH31 0xFFFFFFFFFFFFFFFFFFFFFFFFFFFFFFFFFFFFFFFFFFFFFFFFFFFFFFFFFFFFFF NOT AND SWAP1 DUP2 PUSH1 0x0 BYTE SWAP1 MSTORE8 POP PUSH1 0x4 DUP6 SWAP1 SHR SWAP5 POP DUP1 PUSH2 0x29BB SWAP1 PUSH2 0x41CA JUMP JUMPDEST SWAP1 POP PUSH2 0x2925 JUMP JUMPDEST POP PUSH1 0x0 DUP5 EQ PUSH2 0x2A06 JUMPI PUSH1 0x40 MLOAD PUSH32 0x8C379A000000000000000000000000000000000000000000000000000000000 DUP2 MSTORE PUSH1 0x4 ADD PUSH2 0x29FD SWAP1 PUSH2 0x423F JUMP JUMPDEST PUSH1 0x40 MLOAD DUP1 SWAP2 SUB SWAP1 REVERT JUMPDEST DUP1 SWAP2 POP POP SWAP3 SWAP2 POP POP JUMP JUMPDEST PUSH2 0x2A1A DUP3 DUP3 PUSH2 0x18FD JUMP JUMPDEST POP POP JUMP JUMPDEST PUSH1 0x40 MLOAD DUP1 PUSH1 0x80 ADD PUSH1 0x40 MSTORE DUP1 PUSH1 0x0 DUP2 MSTORE PUSH1 0x20 ADD PUSH1 0x0 DUP2 MSTORE PUSH1 0x20 ADD PUSH1 0x60 DUP2 MSTORE PUSH1 0x20 ADD PUSH1 0x60 DUP2 MSTORE POP SWAP1 JUMP JUMPDEST DUP3 DUP1 SLOAD PUSH2 0x2A52 SWAP1 PUSH2 0x3320 JUMP JUMPDEST SWAP1 PUSH1 0x0 MSTORE PUSH1 0x20 PUSH1 0x0 KECCAK256 SWAP1 PUSH1 0x1F ADD PUSH1 0x20 SWAP1 DIV DUP2 ADD SWAP3 DUP3 PUSH2 0x2A74 JUMPI PUSH1 0x0 DUP6 SSTORE PUSH2 0x2ABB JUMP JUMPDEST DUP3 PUSH1 0x1F LT PUSH2 0x2A8D JUMPI DUP1 MLOAD PUSH1 0xFF NOT AND DUP4 DUP1 ADD OR DUP6 SSTORE PUSH2 0x2ABB JUMP JUMPDEST DUP3 DUP1 ADD PUSH1 0x1 ADD DUP6 SSTORE DUP3 ISZERO PUSH2 0x2ABB JUMPI SWAP2 DUP3 ADD JUMPDEST DUP3 DUP2 GT ISZERO PUSH2 0x2ABA JUMPI DUP3 MLOAD DUP3 SSTORE SWAP2 PUSH1 0x20 ADD SWAP2 SWAP1 PUSH1 0x1 ADD SWAP1 PUSH2 0x2A9F JUMP JUMPDEST JUMPDEST POP SWAP1 POP PUSH2 0x2AC8 SWAP2 SWAP1 PUSH2 0x2ACC JUMP JUMPDEST POP SWAP1 JUMP JUMPDEST JUMPDEST DUP1 DUP3 GT ISZERO PUSH2 0x2AE5 JUMPI PUSH1 0x0 DUP2 PUSH1 0x0 SWAP1 SSTORE POP PUSH1 0x1 ADD PUSH2 0x2ACD JUMP JUMPDEST POP SWAP1 JUMP JUMPDEST PUSH1 0x0 PUSH1 0x40 MLOAD SWAP1 POP SWAP1 JUMP JUMPDEST PUSH1 0x0 DUP1 REVERT JUMPDEST PUSH1 0x0 DUP1 REVERT JUMPDEST PUSH1 0x0 PUSH32 0xFFFFFFFF00000000000000000000000000000000000000000000000000000000 DUP3 AND SWAP1 POP SWAP2 SWAP1 POP JUMP JUMPDEST PUSH2 0x2B32 DUP2 PUSH2 0x2AFD JUMP JUMPDEST DUP2 EQ PUSH2 0x2B3D JUMPI PUSH1 0x0 DUP1 REVERT JUMPDEST POP JUMP JUMPDEST PUSH1 0x0 DUP2 CALLDATALOAD SWAP1 POP PUSH2 0x2B4F DUP2 PUSH2 0x2B29 JUMP JUMPDEST SWAP3 SWAP2 POP POP JUMP JUMPDEST PUSH1 0x0 PUSH1 0x20 DUP3 DUP5 SUB SLT ISZERO PUSH2 0x2B6B JUMPI PUSH2 0x2B6A PUSH2 0x2AF3 JUMP JUMPDEST JUMPDEST PUSH1 0x0 PUSH2 0x2B79 DUP5 DUP3 DUP6 ADD PUSH2 0x2B40 JUMP JUMPDEST SWAP2 POP POP SWAP3 SWAP2 POP POP JUMP JUMPDEST PUSH1 0x0 DUP2 ISZERO ISZERO SWAP1 POP SWAP2 SWAP1 POP JUMP JUMPDEST PUSH2 0x2B97 DUP2 PUSH2 0x2B82 JUMP JUMPDEST DUP3 MSTORE POP POP JUMP JUMPDEST PUSH1 0x0 PUSH1 0x20 DUP3 ADD SWAP1 POP PUSH2 0x2BB2 PUSH1 0x0 DUP4 ADD DUP5 PUSH2 0x2B8E JUMP JUMPDEST SWAP3 SWAP2 POP POP JUMP JUMPDEST PUSH1 0x0 DUP2 MLOAD SWAP1 POP SWAP2 SWAP1 POP JUMP JUMPDEST PUSH1 0x0 DUP3 DUP3 MSTORE PUSH1 0x20 DUP3 ADD SWAP1 POP SWAP3 SWAP2 POP POP JUMP JUMPDEST PUSH1 0x0 JUMPDEST DUP4 DUP2 LT ISZERO PUSH2 0x2BF2 JUMPI DUP1 DUP3 ADD MLOAD DUP2 DUP5 ADD MSTORE PUSH1 0x20 DUP2 ADD SWAP1 POP PUSH2 0x2BD7 JUMP JUMPDEST DUP4 DUP2 GT ISZERO PUSH2 0x2C01 JUMPI PUSH1 0x0 DUP5 DUP5 ADD MSTORE JUMPDEST POP POP POP POP JUMP JUMPDEST PUSH1 0x0 PUSH1 0x1F NOT PUSH1 0x1F DUP4 ADD AND SWAP1 POP SWAP2 SWAP1 POP JUMP JUMPDEST PUSH1 0x0 PUSH2 0x2C23 DUP3 PUSH2 0x2BB8 JUMP JUMPDEST PUSH2 0x2C2D DUP2 DUP6 PUSH2 0x2BC3 JUMP JUMPDEST SWAP4 POP PUSH2 0x2C3D DUP2 DUP6 PUSH1 0x20 DUP7 ADD PUSH2 0x2BD4 JUMP JUMPDEST PUSH2 0x2C46 DUP2 PUSH2 0x2C07 JUMP JUMPDEST DUP5 ADD SWAP2 POP POP SWAP3 SWAP2 POP POP JUMP JUMPDEST PUSH1 0x0 PUSH1 0x20 DUP3 ADD SWAP1 POP DUP2 DUP2 SUB PUSH1 0x0 DUP4 ADD MSTORE PUSH2 0x2C6B DUP2 DUP5 PUSH2 0x2C18 JUMP JUMPDEST SWAP1 POP SWAP3 SWAP2 POP POP JUMP JUMPDEST PUSH1 0x0 PUSH20 0xFFFFFFFFFFFFFFFFFFFFFFFFFFFFFFFFFFFFFFFF DUP3 AND SWAP1 POP SWAP2 SWAP1 POP JUMP JUMPDEST PUSH1 0x0 PUSH2 0x2C9E DUP3 PUSH2 0x2C73 JUMP JUMPDEST SWAP1 POP SWAP2 SWAP1 POP JUMP JUMPDEST PUSH2 0x2CAE DUP2 PUSH2 0x2C93 JUMP JUMPDEST DUP2 EQ PUSH2 0x2CB9 JUMPI PUSH1 0x0 DUP1 REVERT JUMPDEST POP JUMP JUMPDEST PUSH1 0x0 DUP2 CALLDATALOAD SWAP1 POP PUSH2 0x2CCB DUP2 PUSH2 0x2CA5 JUMP JUMPDEST SWAP3 SWAP2 POP POP JUMP JUMPDEST PUSH1 0x0 DUP2 SWAP1 POP SWAP2 SWAP1 POP JUMP JUMPDEST PUSH2 0x2CE4 DUP2 PUSH2 0x2CD1 JUMP JUMPDEST DUP2 EQ PUSH2 0x2CEF JUMPI PUSH1 0x0 DUP1 REVERT JUMPDEST POP JUMP JUMPDEST PUSH1 0x0 DUP2 CALLDATALOAD SWAP1 POP PUSH2 0x2D01 DUP2 PUSH2 0x2CDB JUMP JUMPDEST SWAP3 SWAP2 POP POP JUMP JUMPDEST PUSH1 0x0 DUP1 PUSH1 0x40 DUP4 DUP6 SUB SLT ISZERO PUSH2 0x2D1E JUMPI PUSH2 0x2D1D PUSH2 0x2AF3 JUMP JUMPDEST JUMPDEST PUSH1 0x0 PUSH2 0x2D2C DUP6 DUP3 DUP7 ADD PUSH2 0x2CBC JUMP JUMPDEST SWAP3 POP POP PUSH1 0x20 PUSH2 0x2D3D DUP6 DUP3 DUP7 ADD PUSH2 0x2CF2 JUMP JUMPDEST SWAP2 POP POP SWAP3 POP SWAP3 SWAP1 POP JUMP JUMPDEST PUSH2 0x2D50 DUP2 PUSH2 0x2CD1 JUMP JUMPDEST DUP3 MSTORE POP POP JUMP JUMPDEST PUSH1 0x0 PUSH1 0x20 DUP3 ADD SWAP1 POP PUSH2 0x2D6B PUSH1 0x0 DUP4 ADD DUP5 PUSH2 0x2D47 JUMP JUMPDEST SWAP3 SWAP2 POP POP JUMP JUMPDEST PUSH1 0x0 DUP1 PUSH1 0x0 PUSH1 0x60 DUP5 DUP7 SUB SLT ISZERO PUSH2 0x2D8A JUMPI PUSH2 0x2D89 PUSH2 0x2AF3 JUMP JUMPDEST JUMPDEST PUSH1 0x0 PUSH2 0x2D98 DUP7 DUP3 DUP8 ADD PUSH2 0x2CBC JUMP JUMPDEST SWAP4 POP POP PUSH1 0x20 PUSH2 0x2DA9 DUP7 DUP3 DUP8 ADD PUSH2 0x2CBC JUMP JUMPDEST SWAP3 POP POP PUSH1 0x40 PUSH2 0x2DBA DUP7 DUP3 DUP8 ADD PUSH2 0x2CF2 JUMP JUMPDEST SWAP2 POP POP SWAP3 POP SWAP3 POP SWAP3 JUMP JUMPDEST PUSH1 0x0 DUP2 SWAP1 POP SWAP2 SWAP1 POP JUMP JUMPDEST PUSH2 0x2DD7 DUP2 PUSH2 0x2DC4 JUMP JUMPDEST DUP2 EQ PUSH2 0x2DE2 JUMPI PUSH1 0x0 DUP1 REVERT JUMPDEST POP JUMP JUMPDEST PUSH1 0x0 DUP2 CALLDATALOAD SWAP1 POP PUSH2 0x2DF4 DUP2 PUSH2 0x2DCE JUMP JUMPDEST SWAP3 SWAP2 POP POP JUMP JUMPDEST PUSH1 0x0 PUSH1 0x20 DUP3 DUP5 SUB SLT ISZERO PUSH2 0x2E10 JUMPI PUSH2 0x2E0F PUSH2 0x2AF3 JUMP JUMPDEST JUMPDEST PUSH1 0x0 PUSH2 0x2E1E DUP5 DUP3 DUP6 ADD PUSH2 0x2DE5 JUMP JUMPDEST SWAP2 POP POP SWAP3 SWAP2 POP POP JUMP JUMPDEST PUSH2 0x2E30 DUP2 PUSH2 0x2DC4 JUMP JUMPDEST DUP3 MSTORE POP POP JUMP JUMPDEST PUSH1 0x0 PUSH1 0x20 DUP3 ADD SWAP1 POP PUSH2 0x2E4B PUSH1 0x0 DUP4 ADD DUP5 PUSH2 0x2E27 JUMP JUMPDEST SWAP3 SWAP2 POP POP JUMP JUMPDEST PUSH1 0x0 DUP1 REVERT JUMPDEST PUSH1 0x0 DUP1 REVERT JUMPDEST PUSH32 0x4E487B7100000000000000000000000000000000000000000000000000000000 PUSH1 0x0 MSTORE PUSH1 0x41 PUSH1 0x4 MSTORE PUSH1 0x24 PUSH1 0x0 REVERT JUMPDEST PUSH2 0x2E93 DUP3 PUSH2 0x2C07 JUMP JUMPDEST DUP2 ADD DUP2 DUP2 LT PUSH8 0xFFFFFFFFFFFFFFFF DUP3 GT OR ISZERO PUSH2 0x2EB2 JUMPI PUSH2 0x2EB1 PUSH2 0x2E5B JUMP JUMPDEST JUMPDEST DUP1 PUSH1 0x40 MSTORE POP POP POP JUMP JUMPDEST PUSH1 0x0 PUSH2 0x2EC5 PUSH2 0x2AE9 JUMP JUMPDEST SWAP1 POP PUSH2 0x2ED1 DUP3 DUP3 PUSH2 0x2E8A JUMP JUMPDEST SWAP2 SWAP1 POP JUMP JUMPDEST PUSH1 0x0 PUSH8 0xFFFFFFFFFFFFFFFF DUP3 GT ISZERO PUSH2 0x2EF1 JUMPI PUSH2 0x2EF0 PUSH2 0x2E5B JUMP JUMPDEST JUMPDEST PUSH2 0x2EFA DUP3 PUSH2 0x2C07 JUMP JUMPDEST SWAP1 POP PUSH1 0x20 DUP2 ADD SWAP1 POP SWAP2 SWAP1 POP JUMP JUMPDEST DUP3 DUP2 DUP4 CALLDATACOPY PUSH1 0x0 DUP4 DUP4 ADD MSTORE POP POP POP JUMP JUMPDEST PUSH1 0x0 PUSH2 0x2F29 PUSH2 0x2F24 DUP5 PUSH2 0x2ED6 JUMP JUMPDEST PUSH2 0x2EBB JUMP JUMPDEST SWAP1 POP DUP3 DUP2 MSTORE PUSH1 0x20 DUP2 ADD DUP5 DUP5 DUP5 ADD GT ISZERO PUSH2 0x2F45 JUMPI PUSH2 0x2F44 PUSH2 0x2E56 JUMP JUMPDEST JUMPDEST PUSH2 0x2F50 DUP5 DUP3 DUP6 PUSH2 0x2F07 JUMP JUMPDEST POP SWAP4 SWAP3 POP POP POP JUMP JUMPDEST PUSH1 0x0 DUP3 PUSH1 0x1F DUP4 ADD SLT PUSH2 0x2F6D JUMPI PUSH2 0x2F6C PUSH2 0x2E51 JUMP JUMPDEST JUMPDEST DUP2 CALLDATALOAD PUSH2 0x2F7D DUP5 DUP3 PUSH1 0x20 DUP7 ADD PUSH2 0x2F16 JUMP JUMPDEST SWAP2 POP POP SWAP3 SWAP2 POP POP JUMP JUMPDEST PUSH1 0x0 DUP1 PUSH1 0x40 DUP4 DUP6 SUB SLT ISZERO PUSH2 0x2F9D JUMPI PUSH2 0x2F9C PUSH2 0x2AF3 JUMP JUMPDEST JUMPDEST PUSH1 0x0 DUP4 ADD CALLDATALOAD PUSH8 0xFFFFFFFFFFFFFFFF DUP2 GT ISZERO PUSH2 0x2FBB JUMPI PUSH2 0x2FBA PUSH2 0x2AF8 JUMP JUMPDEST JUMPDEST PUSH2 0x2FC7 DUP6 DUP3 DUP7 ADD PUSH2 0x2F58 JUMP JUMPDEST SWAP3 POP POP PUSH1 0x20 PUSH2 0x2FD8 DUP6 DUP3 DUP7 ADD PUSH2 0x2CF2 JUMP JUMPDEST SWAP2 POP POP SWAP3 POP SWAP3 SWAP1 POP JUMP JUMPDEST PUSH1 0x0 DUP1 PUSH1 0x40 DUP4 DUP6 SUB SLT ISZERO PUSH2 0x2FF9 JUMPI PUSH2 0x2FF8 PUSH2 0x2AF3 JUMP JUMPDEST JUMPDEST PUSH1 0x0 PUSH2 0x3007 DUP6 DUP3 DUP7 ADD PUSH2 0x2DE5 JUMP JUMPDEST SWAP3 POP POP PUSH1 0x20 PUSH2 0x3018 DUP6 DUP3 DUP7 ADD PUSH2 0x2CBC JUMP JUMPDEST SWAP2 POP POP SWAP3 POP SWAP3 SWAP1 POP JUMP JUMPDEST PUSH1 0x0 DUP1 PUSH1 0x40 DUP4 DUP6 SUB SLT ISZERO PUSH2 0x3039 JUMPI PUSH2 0x3038 PUSH2 0x2AF3 JUMP JUMPDEST JUMPDEST PUSH1 0x0 PUSH2 0x3047 DUP6 DUP3 DUP7 ADD PUSH2 0x2CF2 JUMP JUMPDEST SWAP3 POP POP PUSH1 0x20 DUP4 ADD CALLDATALOAD PUSH8 0xFFFFFFFFFFFFFFFF DUP2 GT ISZERO PUSH2 0x3068 JUMPI PUSH2 0x3067 PUSH2 0x2AF8 JUMP JUMPDEST JUMPDEST PUSH2 0x3074 DUP6 DUP3 DUP7 ADD PUSH2 0x2F58 JUMP JUMPDEST SWAP2 POP POP SWAP3 POP SWAP3 SWAP1 POP JUMP JUMPDEST PUSH1 0x0 PUSH1 0xFF DUP3 AND SWAP1 POP SWAP2 SWAP1 POP JUMP JUMPDEST PUSH2 0x3094 DUP2 PUSH2 0x307E JUMP JUMPDEST DUP3 MSTORE POP POP JUMP JUMPDEST PUSH1 0x0 PUSH1 0x20 DUP3 ADD SWAP1 POP PUSH2 0x30AF PUSH1 0x0 DUP4 ADD DUP5 PUSH2 0x308B JUMP JUMPDEST SWAP3 SWAP2 POP POP JUMP JUMPDEST PUSH1 0x0 PUSH1 0x20 DUP3 DUP5 SUB SLT ISZERO PUSH2 0x30CB JUMPI PUSH2 0x30CA PUSH2 0x2AF3 JUMP JUMPDEST JUMPDEST PUSH1 0x0 PUSH2 0x30D9 DUP5 DUP3 DUP6 ADD PUSH2 0x2CF2 JUMP JUMPDEST SWAP2 POP POP SWAP3 SWAP2 POP POP JUMP JUMPDEST PUSH1 0x0 PUSH1 0x20 DUP3 DUP5 SUB SLT ISZERO PUSH2 0x30F8 JUMPI PUSH2 0x30F7 PUSH2 0x2AF3 JUMP JUMPDEST JUMPDEST PUSH1 0x0 PUSH2 0x3106 DUP5 DUP3 DUP6 ADD PUSH2 0x2CBC JUMP JUMPDEST SWAP2 POP POP SWAP3 SWAP2 POP POP JUMP JUMPDEST PUSH1 0x0 DUP1 PUSH1 0x0 PUSH1 0x60 DUP5 DUP7 SUB SLT ISZERO PUSH2 0x3128 JUMPI PUSH2 0x3127 PUSH2 0x2AF3 JUMP JUMPDEST JUMPDEST PUSH1 0x0 PUSH2 0x3136 DUP7 DUP3 DUP8 ADD PUSH2 0x2CBC JUMP JUMPDEST SWAP4 POP POP PUSH1 0x20 PUSH2 0x3147 DUP7 DUP3 DUP8 ADD PUSH2 0x2CF2 JUMP JUMPDEST SWAP3 POP POP PUSH1 0x40 PUSH2 0x3158 DUP7 DUP3 DUP8 ADD PUSH2 0x2CF2 JUMP JUMPDEST SWAP2 POP POP SWAP3 POP SWAP3 POP SWAP3 JUMP JUMPDEST PUSH1 0x0 DUP1 PUSH1 0x40 DUP4 DUP6 SUB SLT ISZERO PUSH2 0x3179 JUMPI PUSH2 0x3178 PUSH2 0x2AF3 JUMP JUMPDEST JUMPDEST PUSH1 0x0 PUSH2 0x3187 DUP6 DUP3 DUP7 ADD PUSH2 0x2CF2 JUMP JUMPDEST SWAP3 POP POP PUSH1 0x20 PUSH2 0x3198 DUP6 DUP3 DUP7 ADD PUSH2 0x2CBC JUMP JUMPDEST SWAP2 POP POP SWAP3 POP SWAP3 SWAP1 POP JUMP JUMPDEST PUSH1 0x0 PUSH2 0x31AD DUP3 PUSH2 0x2C93 JUMP JUMPDEST SWAP1 POP SWAP2 SWAP1 POP JUMP JUMPDEST PUSH2 0x31BD DUP2 PUSH2 0x31A2 JUMP JUMPDEST DUP2 EQ PUSH2 0x31C8 JUMPI PUSH1 0x0 DUP1 REVERT JUMPDEST POP JUMP JUMPDEST PUSH1 0x0 DUP2 CALLDATALOAD SWAP1 POP PUSH2 0x31DA DUP2 PUSH2 0x31B4 JUMP JUMPDEST SWAP3 SWAP2 POP POP JUMP JUMPDEST PUSH1 0x0 PUSH1 0x20 DUP3 DUP5 SUB SLT ISZERO PUSH2 0x31F6 JUMPI PUSH2 0x31F5 PUSH2 0x2AF3 JUMP JUMPDEST JUMPDEST PUSH1 0x0 PUSH2 0x3204 DUP5 DUP3 DUP6 ADD PUSH2 0x31CB JUMP JUMPDEST SWAP2 POP POP SWAP3 SWAP2 POP POP JUMP JUMPDEST PUSH1 0x0 DUP2 SWAP1 POP SWAP2 SWAP1 POP JUMP JUMPDEST PUSH1 0x0 PUSH2 0x3232 PUSH2 0x322D PUSH2 0x3228 DUP5 PUSH2 0x2C73 JUMP JUMPDEST PUSH2 0x320D JUMP JUMPDEST PUSH2 0x2C73 JUMP JUMPDEST SWAP1 POP SWAP2 SWAP1 POP JUMP JUMPDEST PUSH1 0x0 PUSH2 0x3244 DUP3 PUSH2 0x3217 JUMP JUMPDEST SWAP1 POP SWAP2 SWAP1 POP JUMP JUMPDEST PUSH1 0x0 PUSH2 0x3256 DUP3 PUSH2 0x3239 JUMP JUMPDEST SWAP1 POP SWAP2 SWAP1 POP JUMP JUMPDEST PUSH2 0x3266 DUP2 PUSH2 0x324B JUMP JUMPDEST DUP3 MSTORE POP POP JUMP JUMPDEST PUSH1 0x0 PUSH1 0x20 DUP3 ADD SWAP1 POP PUSH2 0x3281 PUSH1 0x0 DUP4 ADD DUP5 PUSH2 0x325D JUMP JUMPDEST SWAP3 SWAP2 POP POP JUMP JUMPDEST PUSH2 0x3290 DUP2 PUSH2 0x2C93 JUMP JUMPDEST DUP3 MSTORE POP POP JUMP JUMPDEST PUSH1 0x0 PUSH1 0x20 DUP3 ADD SWAP1 POP PUSH2 0x32AB PUSH1 0x0 DUP4 ADD DUP5 PUSH2 0x3287 JUMP JUMPDEST SWAP3 SWAP2 POP POP JUMP JUMPDEST PUSH1 0x0 DUP1 PUSH1 0x40 DUP4 DUP6 SUB SLT ISZERO PUSH2 0x32C8 JUMPI PUSH2 0x32C7 PUSH2 0x2AF3 JUMP JUMPDEST JUMPDEST PUSH1 0x0 PUSH2 0x32D6 DUP6 DUP3 DUP7 ADD PUSH2 0x2CBC JUMP JUMPDEST SWAP3 POP POP PUSH1 0x20 PUSH2 0x32E7 DUP6 DUP3 DUP7 ADD PUSH2 0x2CBC JUMP JUMPDEST SWAP2 POP POP SWAP3 POP SWAP3 SWAP1 POP JUMP JUMPDEST PUSH32 0x4E487B7100000000000000000000000000000000000000000000000000000000 PUSH1 0x0 MSTORE PUSH1 0x22 PUSH1 0x4 MSTORE PUSH1 0x24 PUSH1 0x0 REVERT JUMPDEST PUSH1 0x0 PUSH1 0x2 DUP3 DIV SWAP1 POP PUSH1 0x1 DUP3 AND DUP1 PUSH2 0x3338 JUMPI PUSH1 0x7F DUP3 AND SWAP2 POP JUMPDEST PUSH1 0x20 DUP3 LT DUP2 SUB PUSH2 0x334B JUMPI PUSH2 0x334A PUSH2 0x32F1 JUMP JUMPDEST JUMPDEST POP SWAP2 SWAP1 POP JUMP JUMPDEST PUSH1 0x0 DUP2 MLOAD SWAP1 POP SWAP2 SWAP1 POP JUMP JUMPDEST PUSH1 0x0 DUP2 SWAP1 POP SWAP3 SWAP2 POP POP JUMP JUMPDEST PUSH1 0x0 PUSH2 0x3372 DUP3 PUSH2 0x3351 JUMP JUMPDEST PUSH2 0x337C DUP2 DUP6 PUSH2 0x335C JUMP JUMPDEST SWAP4 POP PUSH2 0x338C DUP2 DUP6 PUSH1 0x20 DUP7 ADD PUSH2 0x2BD4 JUMP JUMPDEST DUP1 DUP5 ADD SWAP2 POP POP SWAP3 SWAP2 POP POP JUMP JUMPDEST PUSH1 0x0 PUSH2 0x33A4 DUP3 DUP5 PUSH2 0x3367 JUMP JUMPDEST SWAP2 POP DUP2 SWAP1 POP SWAP3 SWAP2 POP POP JUMP JUMPDEST PUSH1 0x0 DUP3 DUP3 MSTORE PUSH1 0x20 DUP3 ADD SWAP1 POP SWAP3 SWAP2 POP POP JUMP JUMPDEST PUSH1 0x0 PUSH2 0x33CB DUP3 PUSH2 0x3351 JUMP JUMPDEST PUSH2 0x33D5 DUP2 DUP6 PUSH2 0x33AF JUMP JUMPDEST SWAP4 POP PUSH2 0x33E5 DUP2 DUP6 PUSH1 0x20 DUP7 ADD PUSH2 0x2BD4 JUMP JUMPDEST PUSH2 0x33EE DUP2 PUSH2 0x2C07 JUMP JUMPDEST DUP5 ADD SWAP2 POP POP SWAP3 SWAP2 POP POP JUMP JUMPDEST PUSH1 0x0 PUSH1 0x60 DUP3 ADD SWAP1 POP DUP2 DUP2 SUB PUSH1 0x0 DUP4 ADD MSTORE PUSH2 0x3413 DUP2 DUP7 PUSH2 0x33C0 JUMP JUMPDEST SWAP1 POP PUSH2 0x3422 PUSH1 0x20 DUP4 ADD DUP6 PUSH2 0x2D47 JUMP JUMPDEST PUSH2 0x342F PUSH1 0x40 DUP4 ADD DUP5 PUSH2 0x2B8E JUMP JUMPDEST SWAP5 SWAP4 POP POP POP POP JUMP JUMPDEST PUSH32 0x416363657373436F6E74726F6C3A2063616E206F6E6C792072656E6F756E6365 PUSH1 0x0 DUP3 ADD MSTORE PUSH32 0x20726F6C657320666F722073656C660000000000000000000000000000000000 PUSH1 0x20 DUP3 ADD MSTORE POP JUMP JUMPDEST PUSH1 0x0 PUSH2 0x3493 PUSH1 0x2F DUP4 PUSH2 0x2BC3 JUMP JUMPDEST SWAP2 POP PUSH2 0x349E DUP3 PUSH2 0x3437 JUMP JUMPDEST PUSH1 0x40 DUP3 ADD SWAP1 POP SWAP2 SWAP1 POP JUMP JUMPDEST PUSH1 0x0 PUSH1 0x20 DUP3 ADD SWAP1 POP DUP2 DUP2 SUB PUSH1 0x0 DUP4 ADD MSTORE PUSH2 0x34C2 DUP2 PUSH2 0x3486 JUMP JUMPDEST SWAP1 POP SWAP2 SWAP1 POP JUMP JUMPDEST PUSH32 0x4E487B7100000000000000000000000000000000000000000000000000000000 PUSH1 0x0 MSTORE PUSH1 0x11 PUSH1 0x4 MSTORE PUSH1 0x24 PUSH1 0x0 REVERT JUMPDEST PUSH1 0x0 PUSH2 0x3503 DUP3 PUSH2 0x2CD1 JUMP JUMPDEST SWAP2 POP PUSH2 0x350E DUP4 PUSH2 0x2CD1 JUMP JUMPDEST SWAP3 POP DUP3 PUSH32 0xFFFFFFFFFFFFFFFFFFFFFFFFFFFFFFFFFFFFFFFFFFFFFFFFFFFFFFFFFFFFFFFF SUB DUP3 GT ISZERO PUSH2 0x3543 JUMPI PUSH2 0x3542 PUSH2 0x34C9 JUMP JUMPDEST JUMPDEST DUP3 DUP3 ADD SWAP1 POP SWAP3 SWAP2 POP POP JUMP JUMPDEST PUSH1 0x0 PUSH1 0x40 DUP3 ADD SWAP1 POP PUSH2 0x3563 PUSH1 0x0 DUP4 ADD DUP6 PUSH2 0x3287 JUMP JUMPDEST PUSH2 0x3570 PUSH1 0x20 DUP4 ADD DUP5 PUSH2 0x2D47 JUMP JUMPDEST SWAP4 SWAP3 POP POP POP JUMP JUMPDEST PUSH1 0x0 DUP2 SWAP1 POP SWAP2 SWAP1 POP JUMP JUMPDEST PUSH2 0x3592 PUSH2 0x358D DUP3 PUSH2 0x2CD1 JUMP JUMPDEST PUSH2 0x3577 JUMP JUMPDEST DUP3 MSTORE POP POP JUMP JUMPDEST PUSH1 0x0 DUP2 PUSH1 0x60 SHL SWAP1 POP SWAP2 SWAP1 POP JUMP JUMPDEST PUSH1 0x0 PUSH2 0x35B0 DUP3 PUSH2 0x3598 JUMP JUMPDEST SWAP1 POP SWAP2 SWAP1 POP JUMP JUMPDEST PUSH1 0x0 PUSH2 0x35C2 DUP3 PUSH2 0x35A5 JUMP JUMPDEST SWAP1 POP SWAP2 SWAP1 POP JUMP JUMPDEST PUSH2 0x35DA PUSH2 0x35D5 DUP3 PUSH2 0x2C93 JUMP JUMPDEST PUSH2 0x35B7 JUMP JUMPDEST DUP3 MSTORE POP POP JUMP JUMPDEST PUSH1 0x0 PUSH2 0x35EC DUP3 DUP6 PUSH2 0x3581 JUMP JUMPDEST PUSH1 0x20 DUP3 ADD SWAP2 POP PUSH2 0x35FC DUP3 DUP5 PUSH2 0x35C9 JUMP JUMPDEST PUSH1 0x14 DUP3 ADD SWAP2 POP DUP2 SWAP1 POP SWAP4 SWAP3 POP POP POP JUMP JUMPDEST PUSH32 0x45524332303A2064656372656173656420616C6C6F77616E63652062656C6F77 PUSH1 0x0 DUP3 ADD MSTORE PUSH32 0x207A65726F000000000000000000000000000000000000000000000000000000 PUSH1 0x20 DUP3 ADD MSTORE POP JUMP JUMPDEST PUSH1 0x0 PUSH2 0x3668 PUSH1 0x25 DUP4 PUSH2 0x2BC3 JUMP JUMPDEST SWAP2 POP PUSH2 0x3673 DUP3 PUSH2 0x360C JUMP JUMPDEST PUSH1 0x40 DUP3 ADD SWAP1 POP SWAP2 SWAP1 POP JUMP JUMPDEST PUSH1 0x0 PUSH1 0x20 DUP3 ADD SWAP1 POP DUP2 DUP2 SUB PUSH1 0x0 DUP4 ADD MSTORE PUSH2 0x3697 DUP2 PUSH2 0x365B JUMP JUMPDEST SWAP1 POP SWAP2 SWAP1 POP JUMP JUMPDEST PUSH1 0x0 DUP2 SWAP1 POP SWAP2 SWAP1 POP JUMP JUMPDEST PUSH1 0x0 PUSH2 0x36C3 PUSH2 0x36BE PUSH2 0x36B9 DUP5 PUSH2 0x369E JUMP JUMPDEST PUSH2 0x320D JUMP JUMPDEST PUSH2 0x307E JUMP JUMPDEST SWAP1 POP SWAP2 SWAP1 POP JUMP JUMPDEST PUSH2 0x36D3 DUP2 PUSH2 0x36A8 JUMP JUMPDEST DUP3 MSTORE POP POP JUMP JUMPDEST PUSH1 0x0 PUSH1 0x20 DUP3 ADD SWAP1 POP PUSH2 0x36EE PUSH1 0x0 DUP4 ADD DUP5 PUSH2 0x36CA JUMP JUMPDEST SWAP3 SWAP2 POP POP JUMP JUMPDEST PUSH32 0x45524332303A20617070726F76652066726F6D20746865207A65726F20616464 PUSH1 0x0 DUP3 ADD MSTORE PUSH32 0x7265737300000000000000000000000000000000000000000000000000000000 PUSH1 0x20 DUP3 ADD MSTORE POP JUMP JUMPDEST PUSH1 0x0 PUSH2 0x3750 PUSH1 0x24 DUP4 PUSH2 0x2BC3 JUMP JUMPDEST SWAP2 POP PUSH2 0x375B DUP3 PUSH2 0x36F4 JUMP JUMPDEST PUSH1 0x40 DUP3 ADD SWAP1 POP SWAP2 SWAP1 POP JUMP JUMPDEST PUSH1 0x0 PUSH1 0x20 DUP3 ADD SWAP1 POP DUP2 DUP2 SUB PUSH1 0x0 DUP4 ADD MSTORE PUSH2 0x377F DUP2 PUSH2 0x3743 JUMP JUMPDEST SWAP1 POP SWAP2 SWAP1 POP JUMP JUMPDEST PUSH32 0x45524332303A20617070726F766520746F20746865207A65726F206164647265 PUSH1 0x0 DUP3 ADD MSTORE PUSH32 0x7373000000000000000000000000000000000000000000000000000000000000 PUSH1 0x20 DUP3 ADD MSTORE POP JUMP JUMPDEST PUSH1 0x0 PUSH2 0x37E2 PUSH1 0x22 DUP4 PUSH2 0x2BC3 JUMP JUMPDEST SWAP2 POP PUSH2 0x37ED DUP3 PUSH2 0x3786 JUMP JUMPDEST PUSH1 0x40 DUP3 ADD SWAP1 POP SWAP2 SWAP1 POP JUMP JUMPDEST PUSH1 0x0 PUSH1 0x20 DUP3 ADD SWAP1 POP DUP2 DUP2 SUB PUSH1 0x0 DUP4 ADD MSTORE PUSH2 0x3811 DUP2 PUSH2 0x37D5 JUMP JUMPDEST SWAP1 POP SWAP2 SWAP1 POP JUMP JUMPDEST PUSH32 0x45524332303A20696E73756666696369656E7420616C6C6F77616E6365000000 PUSH1 0x0 DUP3 ADD MSTORE POP JUMP JUMPDEST PUSH1 0x0 PUSH2 0x384E PUSH1 0x1D DUP4 PUSH2 0x2BC3 JUMP JUMPDEST SWAP2 POP PUSH2 0x3859 DUP3 PUSH2 0x3818 JUMP JUMPDEST PUSH1 0x20 DUP3 ADD SWAP1 POP SWAP2 SWAP1 POP JUMP JUMPDEST PUSH1 0x0 PUSH1 0x20 DUP3 ADD SWAP1 POP DUP2 DUP2 SUB PUSH1 0x0 DUP4 ADD MSTORE PUSH2 0x387D DUP2 PUSH2 0x3841 JUMP JUMPDEST SWAP1 POP SWAP2 SWAP1 POP JUMP JUMPDEST PUSH32 0x45524332303A207472616E736665722066726F6D20746865207A65726F206164 PUSH1 0x0 DUP3 ADD MSTORE PUSH32 0x6472657373000000000000000000000000000000000000000000000000000000 PUSH1 0x20 DUP3 ADD MSTORE POP JUMP JUMPDEST PUSH1 0x0 PUSH2 0x38E0 PUSH1 0x25 DUP4 PUSH2 0x2BC3 JUMP JUMPDEST SWAP2 POP PUSH2 0x38EB DUP3 PUSH2 0x3884 JUMP JUMPDEST PUSH1 0x40 DUP3 ADD SWAP1 POP SWAP2 SWAP1 POP JUMP JUMPDEST PUSH1 0x0 PUSH1 0x20 DUP3 ADD SWAP1 POP DUP2 DUP2 SUB PUSH1 0x0 DUP4 ADD MSTORE PUSH2 0x390F DUP2 PUSH2 0x38D3 JUMP JUMPDEST SWAP1 POP SWAP2 SWAP1 POP JUMP JUMPDEST PUSH32 0x45524332303A207472616E7366657220746F20746865207A65726F2061646472 PUSH1 0x0 DUP3 ADD MSTORE PUSH32 0x6573730000000000000000000000000000000000000000000000000000000000 PUSH1 0x20 DUP3 ADD MSTORE POP JUMP JUMPDEST PUSH1 0x0 PUSH2 0x3972 PUSH1 0x23 DUP4 PUSH2 0x2BC3 JUMP JUMPDEST SWAP2 POP PUSH2 0x397D DUP3 PUSH2 0x3916 JUMP JUMPDEST PUSH1 0x40 DUP3 ADD SWAP1 POP SWAP2 SWAP1 POP JUMP JUMPDEST PUSH1 0x0 PUSH1 0x20 DUP3 ADD SWAP1 POP DUP2 DUP2 SUB PUSH1 0x0 DUP4 ADD MSTORE PUSH2 0x39A1 DUP2 PUSH2 0x3965 JUMP JUMPDEST SWAP1 POP SWAP2 SWAP1 POP JUMP JUMPDEST PUSH32 0x45524332303A207472616E7366657220616D6F756E7420657863656564732062 PUSH1 0x0 DUP3 ADD MSTORE PUSH32 0x616C616E63650000000000000000000000000000000000000000000000000000 PUSH1 0x20 DUP3 ADD MSTORE POP JUMP JUMPDEST PUSH1 0x0 PUSH2 0x3A04 PUSH1 0x26 DUP4 PUSH2 0x2BC3 JUMP JUMPDEST SWAP2 POP PUSH2 0x3A0F DUP3 PUSH2 0x39A8 JUMP JUMPDEST PUSH1 0x40 DUP3 ADD SWAP1 POP SWAP2 SWAP1 POP JUMP JUMPDEST PUSH1 0x0 PUSH1 0x20 DUP3 ADD SWAP1 POP DUP2 DUP2 SUB PUSH1 0x0 DUP4 ADD MSTORE PUSH2 0x3A33 DUP2 PUSH2 0x39F7 JUMP JUMPDEST SWAP1 POP SWAP2 SWAP1 POP JUMP JUMPDEST PUSH32 0x5061757361626C653A206E6F7420706175736564000000000000000000000000 PUSH1 0x0 DUP3 ADD MSTORE POP JUMP JUMPDEST PUSH1 0x0 PUSH2 0x3A70 PUSH1 0x14 DUP4 PUSH2 0x2BC3 JUMP JUMPDEST SWAP2 POP PUSH2 0x3A7B DUP3 PUSH2 0x3A3A JUMP JUMPDEST PUSH1 0x20 DUP3 ADD SWAP1 POP SWAP2 SWAP1 POP JUMP JUMPDEST PUSH1 0x0 PUSH1 0x20 DUP3 ADD SWAP1 POP DUP2 DUP2 SUB PUSH1 0x0 DUP4 ADD MSTORE PUSH2 0x3A9F DUP2 PUSH2 0x3A63 JUMP JUMPDEST SWAP1 POP SWAP2 SWAP1 POP JUMP JUMPDEST PUSH32 0x45524332303A206D696E7420746F20746865207A65726F206164647265737300 PUSH1 0x0 DUP3 ADD MSTORE POP JUMP JUMPDEST PUSH1 0x0 PUSH2 0x3ADC PUSH1 0x1F DUP4 PUSH2 0x2BC3 JUMP JUMPDEST SWAP2 POP PUSH2 0x3AE7 DUP3 PUSH2 0x3AA6 JUMP JUMPDEST PUSH1 0x20 DUP3 ADD SWAP1 POP SWAP2 SWAP1 POP JUMP JUMPDEST PUSH1 0x0 PUSH1 0x20 DUP3 ADD SWAP1 POP DUP2 DUP2 SUB PUSH1 0x0 DUP4 ADD MSTORE PUSH2 0x3B0B DUP2 PUSH2 0x3ACF JUMP JUMPDEST SWAP1 POP SWAP2 SWAP1 POP JUMP JUMPDEST PUSH32 0x45524332303A206275726E2066726F6D20746865207A65726F20616464726573 PUSH1 0x0 DUP3 ADD MSTORE PUSH32 0x7300000000000000000000000000000000000000000000000000000000000000 PUSH1 0x20 DUP3 ADD MSTORE POP JUMP JUMPDEST PUSH1 0x0 PUSH2 0x3B6E PUSH1 0x21 DUP4 PUSH2 0x2BC3 JUMP JUMPDEST SWAP2 POP PUSH2 0x3B79 DUP3 PUSH2 0x3B12 JUMP JUMPDEST PUSH1 0x40 DUP3 ADD SWAP1 POP SWAP2 SWAP1 POP JUMP JUMPDEST PUSH1 0x0 PUSH1 0x20 DUP3 ADD SWAP1 POP DUP2 DUP2 SUB PUSH1 0x0 DUP4 ADD MSTORE PUSH2 0x3B9D DUP2 PUSH2 0x3B61 JUMP JUMPDEST SWAP1 POP SWAP2 SWAP1 POP JUMP JUMPDEST PUSH32 0x45524332303A206275726E20616D6F756E7420657863656564732062616C616E PUSH1 0x0 DUP3 ADD MSTORE PUSH32 0x6365000000000000000000000000000000000000000000000000000000000000 PUSH1 0x20 DUP3 ADD MSTORE POP JUMP JUMPDEST PUSH1 0x0 PUSH2 0x3C00 PUSH1 0x22 DUP4 PUSH2 0x2BC3 JUMP JUMPDEST SWAP2 POP PUSH2 0x3C0B DUP3 PUSH2 0x3BA4 JUMP JUMPDEST PUSH1 0x40 DUP3 ADD SWAP1 POP SWAP2 SWAP1 POP JUMP JUMPDEST PUSH1 0x0 PUSH1 0x20 DUP3 ADD SWAP1 POP DUP2 DUP2 SUB PUSH1 0x0 DUP4 ADD MSTORE PUSH2 0x3C2F DUP2 PUSH2 0x3BF3 JUMP JUMPDEST SWAP1 POP SWAP2 SWAP1 POP JUMP JUMPDEST PUSH1 0x0 PUSH2 0x3C41 DUP3 PUSH2 0x2CD1 JUMP JUMPDEST SWAP2 POP PUSH2 0x3C4C DUP4 PUSH2 0x2CD1 JUMP JUMPDEST SWAP3 POP DUP3 DUP3 LT ISZERO PUSH2 0x3C5F JUMPI PUSH2 0x3C5E PUSH2 0x34C9 JUMP JUMPDEST JUMPDEST DUP3 DUP3 SUB SWAP1 POP SWAP3 SWAP2 POP POP JUMP JUMPDEST PUSH32 0x5061757361626C653A2070617573656400000000000000000000000000000000 PUSH1 0x0 DUP3 ADD MSTORE POP JUMP JUMPDEST PUSH1 0x0 PUSH2 0x3CA0 PUSH1 0x10 DUP4 PUSH2 0x2BC3 JUMP JUMPDEST SWAP2 POP PUSH2 0x3CAB DUP3 PUSH2 0x3C6A JUMP JUMPDEST PUSH1 0x20 DUP3 ADD SWAP1 POP SWAP2 SWAP1 POP JUMP JUMPDEST PUSH1 0x0 PUSH1 0x20 DUP3 ADD SWAP1 POP DUP2 DUP2 SUB PUSH1 0x0 DUP4 ADD MSTORE PUSH2 0x3CCF DUP2 PUSH2 0x3C93 JUMP JUMPDEST SWAP1 POP SWAP2 SWAP1 POP JUMP JUMPDEST PUSH1 0x0 PUSH2 0x3CE2 DUP3 DUP5 PUSH2 0x35C9 JUMP JUMPDEST PUSH1 0x14 DUP3 ADD SWAP2 POP DUP2 SWAP1 POP SWAP3 SWAP2 POP POP JUMP JUMPDEST PUSH1 0x0 PUSH1 0x60 DUP3 ADD SWAP1 POP PUSH2 0x3D06 PUSH1 0x0 DUP4 ADD DUP7 PUSH2 0x3287 JUMP JUMPDEST PUSH2 0x3D13 PUSH1 0x20 DUP4 ADD DUP6 PUSH2 0x2D47 JUMP JUMPDEST PUSH2 0x3D20 PUSH1 0x40 DUP4 ADD DUP5 PUSH2 0x2D47 JUMP JUMPDEST SWAP5 SWAP4 POP POP POP POP JUMP JUMPDEST PUSH2 0x3D31 DUP2 PUSH2 0x2CD1 JUMP JUMPDEST DUP3 MSTORE POP POP JUMP JUMPDEST PUSH1 0x0 DUP3 DUP3 MSTORE PUSH1 0x20 DUP3 ADD SWAP1 POP SWAP3 SWAP2 POP POP JUMP JUMPDEST PUSH1 0x0 PUSH2 0x3D53 DUP3 PUSH2 0x3351 JUMP JUMPDEST PUSH2 0x3D5D DUP2 DUP6 PUSH2 0x3D37 JUMP JUMPDEST SWAP4 POP PUSH2 0x3D6D DUP2 DUP6 PUSH1 0x20 DUP7 ADD PUSH2 0x2BD4 JUMP JUMPDEST PUSH2 0x3D76 DUP2 PUSH2 0x2C07 JUMP JUMPDEST DUP5 ADD SWAP2 POP POP SWAP3 SWAP2 POP POP JUMP JUMPDEST PUSH1 0x0 PUSH1 0x80 DUP4 ADD PUSH1 0x0 DUP4 ADD MLOAD PUSH2 0x3D99 PUSH1 0x0 DUP7 ADD DUP3 PUSH2 0x3D28 JUMP JUMPDEST POP PUSH1 0x20 DUP4 ADD MLOAD PUSH2 0x3DAC PUSH1 0x20 DUP7 ADD DUP3 PUSH2 0x3D28 JUMP JUMPDEST POP PUSH1 0x40 DUP4 ADD MLOAD DUP5 DUP3 SUB PUSH1 0x40 DUP7 ADD MSTORE PUSH2 0x3DC4 DUP3 DUP3 PUSH2 0x3D48 JUMP JUMPDEST SWAP2 POP POP PUSH1 0x60 DUP4 ADD MLOAD DUP5 DUP3 SUB PUSH1 0x60 DUP7 ADD MSTORE PUSH2 0x3DDE DUP3 DUP3 PUSH2 0x3D48 JUMP JUMPDEST SWAP2 POP POP DUP1 SWAP2 POP POP SWAP3 SWAP2 POP POP JUMP JUMPDEST PUSH1 0x0 PUSH1 0x20 DUP3 ADD SWAP1 POP DUP2 DUP2 SUB PUSH1 0x0 DUP4 ADD MSTORE PUSH2 0x3E05 DUP2 DUP5 PUSH2 0x3D81 JUMP JUMPDEST SWAP1 POP SWAP3 SWAP2 POP POP JUMP JUMPDEST POP JUMP JUMPDEST PUSH1 0x0 PUSH2 0x3E1D PUSH1 0x0 DUP4 PUSH2 0x33AF JUMP JUMPDEST SWAP2 POP PUSH2 0x3E28 DUP3 PUSH2 0x3E0D JUMP JUMPDEST PUSH1 0x0 DUP3 ADD SWAP1 POP SWAP2 SWAP1 POP JUMP JUMPDEST PUSH1 0x0 DUP2 SWAP1 POP SWAP2 SWAP1 POP JUMP JUMPDEST PUSH1 0x0 PUSH4 0xFFFFFFFF DUP3 AND SWAP1 POP SWAP2 SWAP1 POP JUMP JUMPDEST PUSH1 0x0 PUSH2 0x3E68 PUSH2 0x3E63 PUSH2 0x3E5E DUP5 PUSH2 0x3E33 JUMP JUMPDEST PUSH2 0x320D JUMP JUMPDEST PUSH2 0x3E3D JUMP JUMPDEST SWAP1 POP SWAP2 SWAP1 POP JUMP JUMPDEST PUSH2 0x3E78 DUP2 PUSH2 0x3E4D JUMP JUMPDEST DUP3 MSTORE POP POP JUMP JUMPDEST PUSH1 0x0 PUSH2 0x100 DUP3 ADD SWAP1 POP PUSH2 0x3E94 PUSH1 0x0 DUP4 ADD DUP11 PUSH2 0x3287 JUMP JUMPDEST PUSH2 0x3EA1 PUSH1 0x20 DUP4 ADD DUP10 PUSH2 0x2D47 JUMP JUMPDEST PUSH2 0x3EAE PUSH1 0x40 DUP4 ADD DUP9 PUSH2 0x2D47 JUMP JUMPDEST DUP2 DUP2 SUB PUSH1 0x60 DUP4 ADD MSTORE PUSH2 0x3EC0 DUP2 DUP8 PUSH2 0x33C0 JUMP JUMPDEST SWAP1 POP DUP2 DUP2 SUB PUSH1 0x80 DUP4 ADD MSTORE PUSH2 0x3ED3 DUP2 PUSH2 0x3E10 JUMP JUMPDEST SWAP1 POP PUSH2 0x3EE2 PUSH1 0xA0 DUP4 ADD DUP7 PUSH2 0x2B8E JUMP JUMPDEST PUSH2 0x3EEF PUSH1 0xC0 DUP4 ADD DUP6 PUSH2 0x3E6F JUMP JUMPDEST DUP2 DUP2 SUB PUSH1 0xE0 DUP4 ADD MSTORE PUSH2 0x3F01 DUP2 DUP5 PUSH2 0x33C0 JUMP JUMPDEST SWAP1 POP SWAP9 SWAP8 POP POP POP POP POP POP POP POP JUMP JUMPDEST PUSH32 0x496E697469616C697A61626C653A20636F6E747261637420697320616C726561 PUSH1 0x0 DUP3 ADD MSTORE PUSH32 0x647920696E697469616C697A6564000000000000000000000000000000000000 PUSH1 0x20 DUP3 ADD MSTORE POP JUMP JUMPDEST PUSH1 0x0 PUSH2 0x3F6B PUSH1 0x2E DUP4 PUSH2 0x2BC3 JUMP JUMPDEST SWAP2 POP PUSH2 0x3F76 DUP3 PUSH2 0x3F0F JUMP JUMPDEST PUSH1 0x40 DUP3 ADD SWAP1 POP SWAP2 SWAP1 POP JUMP JUMPDEST PUSH1 0x0 PUSH1 0x20 DUP3 ADD SWAP1 POP DUP2 DUP2 SUB PUSH1 0x0 DUP4 ADD MSTORE PUSH2 0x3F9A DUP2 PUSH2 0x3F5E JUMP JUMPDEST SWAP1 POP SWAP2 SWAP1 POP JUMP JUMPDEST PUSH32 0x496E697469616C697A61626C653A20636F6E7472616374206973206E6F742069 PUSH1 0x0 DUP3 ADD MSTORE PUSH32 0x6E697469616C697A696E67000000000000000000000000000000000000000000 PUSH1 0x20 DUP3 ADD MSTORE POP JUMP JUMPDEST PUSH1 0x0 PUSH2 0x3FFD PUSH1 0x2B DUP4 PUSH2 0x2BC3 JUMP JUMPDEST SWAP2 POP PUSH2 0x4008 DUP3 PUSH2 0x3FA1 JUMP JUMPDEST PUSH1 0x40 DUP3 ADD SWAP1 POP SWAP2 SWAP1 POP JUMP JUMPDEST PUSH1 0x0 PUSH1 0x20 DUP3 ADD SWAP1 POP DUP2 DUP2 SUB PUSH1 0x0 DUP4 ADD MSTORE PUSH2 0x402C DUP2 PUSH2 0x3FF0 JUMP JUMPDEST SWAP1 POP SWAP2 SWAP1 POP JUMP JUMPDEST PUSH1 0x0 DUP2 SWAP1 POP SWAP3 SWAP2 POP POP JUMP JUMPDEST PUSH32 0x416363657373436F6E74726F6C3A206163636F756E7420000000000000000000 PUSH1 0x0 DUP3 ADD MSTORE POP JUMP JUMPDEST PUSH1 0x0 PUSH2 0x4074 PUSH1 0x17 DUP4 PUSH2 0x4033 JUMP JUMPDEST SWAP2 POP PUSH2 0x407F DUP3 PUSH2 0x403E JUMP JUMPDEST PUSH1 0x17 DUP3 ADD SWAP1 POP SWAP2 SWAP1 POP JUMP JUMPDEST PUSH1 0x0 PUSH2 0x4095 DUP3 PUSH2 0x2BB8 JUMP JUMPDEST PUSH2 0x409F DUP2 DUP6 PUSH2 0x4033 JUMP JUMPDEST SWAP4 POP PUSH2 0x40AF DUP2 DUP6 PUSH1 0x20 DUP7 ADD PUSH2 0x2BD4 JUMP JUMPDEST DUP1 DUP5 ADD SWAP2 POP POP SWAP3 SWAP2 POP POP JUMP JUMPDEST PUSH32 0x206973206D697373696E6720726F6C6520000000000000000000000000000000 PUSH1 0x0 DUP3 ADD MSTORE POP JUMP JUMPDEST PUSH1 0x0 PUSH2 0x40F1 PUSH1 0x11 DUP4 PUSH2 0x4033 JUMP JUMPDEST SWAP2 POP PUSH2 0x40FC DUP3 PUSH2 0x40BB JUMP JUMPDEST PUSH1 0x11 DUP3 ADD SWAP1 POP SWAP2 SWAP1 POP JUMP JUMPDEST PUSH1 0x0 PUSH2 0x4112 DUP3 PUSH2 0x4067 JUMP JUMPDEST SWAP2 POP PUSH2 0x411E DUP3 DUP6 PUSH2 0x408A JUMP JUMPDEST SWAP2 POP PUSH2 0x4129 DUP3 PUSH2 0x40E4 JUMP JUMPDEST SWAP2 POP PUSH2 0x4135 DUP3 DUP5 PUSH2 0x408A JUMP JUMPDEST SWAP2 POP DUP2 SWAP1 POP SWAP4 SWAP3 POP POP POP JUMP JUMPDEST PUSH1 0x0 PUSH2 0x414C DUP3 PUSH2 0x2CD1 JUMP JUMPDEST SWAP2 POP PUSH2 0x4157 DUP4 PUSH2 0x2CD1 JUMP JUMPDEST SWAP3 POP DUP2 PUSH32 0xFFFFFFFFFFFFFFFFFFFFFFFFFFFFFFFFFFFFFFFFFFFFFFFFFFFFFFFFFFFFFFFF DIV DUP4 GT DUP3 ISZERO ISZERO AND ISZERO PUSH2 0x4190 JUMPI PUSH2 0x418F PUSH2 0x34C9 JUMP JUMPDEST JUMPDEST DUP3 DUP3 MUL SWAP1 POP SWAP3 SWAP2 POP POP JUMP JUMPDEST PUSH32 0x4E487B7100000000000000000000000000000000000000000000000000000000 PUSH1 0x0 MSTORE PUSH1 0x32 PUSH1 0x4 MSTORE PUSH1 0x24 PUSH1 0x0 REVERT JUMPDEST PUSH1 0x0 PUSH2 0x41D5 DUP3 PUSH2 0x2CD1 JUMP JUMPDEST SWAP2 POP PUSH1 0x0 DUP3 SUB PUSH2 0x41E8 JUMPI PUSH2 0x41E7 PUSH2 0x34C9 JUMP JUMPDEST JUMPDEST PUSH1 0x1 DUP3 SUB SWAP1 POP SWAP2 SWAP1 POP JUMP JUMPDEST PUSH32 0x537472696E67733A20686578206C656E67746820696E73756666696369656E74 PUSH1 0x0 DUP3 ADD MSTORE POP JUMP JUMPDEST PUSH1 0x0 PUSH2 0x4229 PUSH1 0x20 DUP4 PUSH2 0x2BC3 JUMP JUMPDEST SWAP2 POP PUSH2 0x4234 DUP3 PUSH2 0x41F3 JUMP JUMPDEST PUSH1 0x20 DUP3 ADD SWAP1 POP SWAP2 SWAP1 POP JUMP JUMPDEST PUSH1 0x0 PUSH1 0x20 DUP3 ADD SWAP1 POP DUP2 DUP2 SUB PUSH1 0x0 DUP4 ADD MSTORE PUSH2 0x4258 DUP2 PUSH2 0x421C JUMP JUMPDEST SWAP1 POP SWAP2 SWAP1 POP JUMP INVALID LOG2 PUSH5 0x6970667358 0x22 SLT KECCAK256 COINBASE NOT MULMOD INVALID 0xCC GT SELFDESTRUCT DUP8 PUSH5 0x4C1E66F455 JUMP DIFFICULTY STATICCALL SSTORE 0xCD 0x5E 0xE2 BALANCE ADD 0x2E 0x29 PUSH32 0x3232D88D036064736F6C634300080D0033000000000000000000000000000000 "
        },
        "methodIdentifiers": {
          "DEFAULT_ADMIN_ROLE()": "a217fddf",
          "MINTER_ROLE()": "d5391393",
          "addControllingAddress(bytes,uint256)": "2c13e57c",
          "allowance(address,address)": "dd62ed3e",
          "approve(address,uint256)": "095ea7b3",
          "balanceOf(address)": "70a08231",
          "burn(uint256)": "42966c68",
          "burnFrom(address,uint256)": "79cc6790",
          "chainIdToContractAddress(uint256)": "cb059294",
          "deBridgeGate()": "ca777fbf",
          "decimals()": "313ce567",
          "decreaseAllowance(address,uint256)": "a457c2d7",
          "getChainId()": "3408e470",
          "getDebridgeId(uint256,address)": "9682b909",
          "getRoleAdmin(bytes32)": "248a9ca3",
          "grantRole(bytes32,address)": "2f2ff15d",
          "hasRole(bytes32,address)": "91d14854",
          "increaseAllowance(address,uint256)": "39509351",
          "initialize(address)": "c4d66de8",
          "isAddressFromChainIdControlling(uint256,bytes)": "30a37ce7",
          "isControllingAddress(bytes,uint256)": "5062a2b0",
          "mint(address,uint256)": "40c10f19",
          "name()": "06fdde03",
          "pause()": "8456cb59",
          "paused()": "5c975abb",
          "removeControllingAddress(bytes,uint256)": "a00461aa",
          "renounceRole(bytes32,address)": "36568abe",
          "revokeRole(bytes32,address)": "d547741f",
          "setContractAddressOnChainId(address,uint256)": "6586f26b",
          "supportsInterface(bytes4)": "01ffc9a7",
          "symbol()": "95d89b41",
          "totalSupply()": "18160ddd",
          "transfer(address,uint256)": "a9059cbb",
          "transferCrossChain(address,uint256,uint256)": "96166210",
          "transferFrom(address,address,uint256)": "23b872dd",
          "unpause()": "3f4ba83a",
          "version()": "54fd4d50"
        }
      },
      "storageLayout": {
        "storage": [
          {
            "astId": 419,
            "contract": "contracts/YellowUSDT.sol:YellowUSDT",
            "label": "_initialized",
            "offset": 0,
            "slot": "0",
            "type": "t_uint8"
          },
          {
            "astId": 422,
            "contract": "contracts/YellowUSDT.sol:YellowUSDT",
            "label": "_initializing",
            "offset": 1,
            "slot": "0",
            "type": "t_bool"
          },
          {
            "astId": 1727,
            "contract": "contracts/YellowUSDT.sol:YellowUSDT",
            "label": "__gap",
            "offset": 0,
            "slot": "1",
            "type": "t_array(t_uint256)50_storage"
          },
          {
            "astId": 684,
            "contract": "contracts/YellowUSDT.sol:YellowUSDT",
            "label": "_balances",
            "offset": 0,
            "slot": "51",
            "type": "t_mapping(t_address,t_uint256)"
          },
          {
            "astId": 690,
            "contract": "contracts/YellowUSDT.sol:YellowUSDT",
            "label": "_allowances",
            "offset": 0,
            "slot": "52",
            "type": "t_mapping(t_address,t_mapping(t_address,t_uint256))"
          },
          {
            "astId": 692,
            "contract": "contracts/YellowUSDT.sol:YellowUSDT",
            "label": "_totalSupply",
            "offset": 0,
            "slot": "53",
            "type": "t_uint256"
          },
          {
            "astId": 694,
            "contract": "contracts/YellowUSDT.sol:YellowUSDT",
            "label": "_name",
            "offset": 0,
            "slot": "54",
            "type": "t_string_storage"
          },
          {
            "astId": 696,
            "contract": "contracts/YellowUSDT.sol:YellowUSDT",
            "label": "_symbol",
            "offset": 0,
            "slot": "55",
            "type": "t_string_storage"
          },
          {
            "astId": 1275,
            "contract": "contracts/YellowUSDT.sol:YellowUSDT",
            "label": "__gap",
            "offset": 0,
            "slot": "56",
            "type": "t_array(t_uint256)45_storage"
          },
          {
            "astId": 1417,
            "contract": "contracts/YellowUSDT.sol:YellowUSDT",
            "label": "__gap",
            "offset": 0,
            "slot": "101",
            "type": "t_array(t_uint256)50_storage"
          },
          {
            "astId": 1974,
            "contract": "contracts/YellowUSDT.sol:YellowUSDT",
            "label": "__gap",
            "offset": 0,
            "slot": "151",
            "type": "t_array(t_uint256)50_storage"
          },
          {
            "astId": 39,
            "contract": "contracts/YellowUSDT.sol:YellowUSDT",
            "label": "_roles",
            "offset": 0,
            "slot": "201",
            "type": "t_mapping(t_bytes32,t_struct(RoleData)34_storage)"
          },
          {
            "astId": 338,
            "contract": "contracts/YellowUSDT.sol:YellowUSDT",
            "label": "__gap",
            "offset": 0,
            "slot": "202",
            "type": "t_array(t_uint256)49_storage"
          },
          {
            "astId": 575,
            "contract": "contracts/YellowUSDT.sol:YellowUSDT",
            "label": "_paused",
            "offset": 0,
            "slot": "251",
            "type": "t_bool"
          },
          {
            "astId": 664,
            "contract": "contracts/YellowUSDT.sol:YellowUSDT",
            "label": "__gap",
            "offset": 0,
            "slot": "252",
            "type": "t_array(t_uint256)49_storage"
          },
          {
            "astId": 2008,
            "contract": "contracts/YellowUSDT.sol:YellowUSDT",
            "label": "deBridgeGate",
            "offset": 0,
            "slot": "301",
            "type": "t_contract(IDeBridgeGate)2769"
          },
          {
            "astId": 2015,
            "contract": "contracts/YellowUSDT.sol:YellowUSDT",
            "label": "isAddressFromChainIdControlling",
            "offset": 0,
            "slot": "302",
            "type": "t_mapping(t_uint256,t_mapping(t_bytes_memory_ptr,t_bool))"
          },
          {
            "astId": 2020,
            "contract": "contracts/YellowUSDT.sol:YellowUSDT",
            "label": "chainIdToContractAddress",
            "offset": 0,
            "slot": "303",
            "type": "t_mapping(t_uint256,t_address)"
          }
        ],
        "types": {
          "t_address": {
            "encoding": "inplace",
            "label": "address",
            "numberOfBytes": "20"
          },
          "t_array(t_uint256)45_storage": {
            "base": "t_uint256",
            "encoding": "inplace",
            "label": "uint256[45]",
            "numberOfBytes": "1440"
          },
          "t_array(t_uint256)49_storage": {
            "base": "t_uint256",
            "encoding": "inplace",
            "label": "uint256[49]",
            "numberOfBytes": "1568"
          },
          "t_array(t_uint256)50_storage": {
            "base": "t_uint256",
            "encoding": "inplace",
            "label": "uint256[50]",
            "numberOfBytes": "1600"
          },
          "t_bool": {
            "encoding": "inplace",
            "label": "bool",
            "numberOfBytes": "1"
          },
          "t_bytes32": {
            "encoding": "inplace",
            "label": "bytes32",
            "numberOfBytes": "32"
          },
          "t_bytes_memory_ptr": {
            "encoding": "bytes",
            "label": "bytes",
            "numberOfBytes": "32"
          },
          "t_contract(IDeBridgeGate)2769": {
            "encoding": "inplace",
            "label": "contract IDeBridgeGate",
            "numberOfBytes": "20"
          },
          "t_mapping(t_address,t_bool)": {
            "encoding": "mapping",
            "key": "t_address",
            "label": "mapping(address => bool)",
            "numberOfBytes": "32",
            "value": "t_bool"
          },
          "t_mapping(t_address,t_mapping(t_address,t_uint256))": {
            "encoding": "mapping",
            "key": "t_address",
            "label": "mapping(address => mapping(address => uint256))",
            "numberOfBytes": "32",
            "value": "t_mapping(t_address,t_uint256)"
          },
          "t_mapping(t_address,t_uint256)": {
            "encoding": "mapping",
            "key": "t_address",
            "label": "mapping(address => uint256)",
            "numberOfBytes": "32",
            "value": "t_uint256"
          },
          "t_mapping(t_bytes32,t_struct(RoleData)34_storage)": {
            "encoding": "mapping",
            "key": "t_bytes32",
            "label": "mapping(bytes32 => struct AccessControlUpgradeable.RoleData)",
            "numberOfBytes": "32",
            "value": "t_struct(RoleData)34_storage"
          },
          "t_mapping(t_bytes_memory_ptr,t_bool)": {
            "encoding": "mapping",
            "key": "t_bytes_memory_ptr",
            "label": "mapping(bytes => bool)",
            "numberOfBytes": "32",
            "value": "t_bool"
          },
          "t_mapping(t_uint256,t_address)": {
            "encoding": "mapping",
            "key": "t_uint256",
            "label": "mapping(uint256 => address)",
            "numberOfBytes": "32",
            "value": "t_address"
          },
          "t_mapping(t_uint256,t_mapping(t_bytes_memory_ptr,t_bool))": {
            "encoding": "mapping",
            "key": "t_uint256",
            "label": "mapping(uint256 => mapping(bytes => bool))",
            "numberOfBytes": "32",
            "value": "t_mapping(t_bytes_memory_ptr,t_bool)"
          },
          "t_string_storage": {
            "encoding": "bytes",
            "label": "string",
            "numberOfBytes": "32"
          },
          "t_struct(RoleData)34_storage": {
            "encoding": "inplace",
            "label": "struct AccessControlUpgradeable.RoleData",
            "members": [
              {
                "astId": 31,
                "contract": "contracts/YellowUSDT.sol:YellowUSDT",
                "label": "members",
                "offset": 0,
                "slot": "0",
                "type": "t_mapping(t_address,t_bool)"
              },
              {
                "astId": 33,
                "contract": "contracts/YellowUSDT.sol:YellowUSDT",
                "label": "adminRole",
                "offset": 0,
                "slot": "1",
                "type": "t_bytes32"
              }
            ],
            "numberOfBytes": "64"
          },
          "t_uint256": {
            "encoding": "inplace",
            "label": "uint256",
            "numberOfBytes": "32"
          },
          "t_uint8": {
            "encoding": "inplace",
            "label": "uint8",
            "numberOfBytes": "1"
          }
        }
      }
    }
  }
}