{
  "_format": "hh-sol-artifact-1",
  "contractName": "YellowUSDTv2",
  "sourceName": "contracts/YellowUSDT_v2.sol",
  "abi": [
    {
      "inputs": [],
      "name": "AddressAlreadyAdded",
      "type": "error"
    },
    {
      "inputs": [],
      "name": "AdminBadRole",
      "type": "error"
    },
    {
      "inputs": [],
      "name": "CallProxyBadRole",
      "type": "error"
    },
    {
      "inputs": [],
      "name": "ChainToIsNotSupported",
      "type": "error"
    },
    {
      "inputs": [
        {
          "internalType": "bytes",
          "name": "nativeSender",
          "type": "bytes"
        },
        {
          "internalType": "uint256",
          "name": "chainIdFrom",
          "type": "uint256"
        }
      ],
      "name": "NativeSenderBadRole",
      "type": "error"
    },
    {
      "inputs": [],
      "name": "RemovingMissingAddress",
      "type": "error"
    },
    {
      "anonymous": false,
      "inputs": [
        {
          "indexed": true,
          "internalType": "address",
          "name": "owner",
          "type": "address"
        },
        {
          "indexed": true,
          "internalType": "address",
          "name": "spender",
          "type": "address"
        },
        {
          "indexed": false,
          "internalType": "uint256",
          "name": "value",
          "type": "uint256"
        }
      ],
      "name": "Approval",
      "type": "event"
    },
    {
      "anonymous": false,
      "inputs": [
        {
          "indexed": false,
          "internalType": "address",
          "name": "newAddress",
          "type": "address"
        },
        {
          "indexed": false,
          "internalType": "uint256",
          "name": "chainIdTo",
          "type": "uint256"
        }
      ],
      "name": "ContractAddressOnChainIdUpdated",
      "type": "event"
    },
    {
      "anonymous": false,
      "inputs": [
        {
          "indexed": false,
          "internalType": "bytes",
          "name": "nativeSender",
          "type": "bytes"
        },
        {
          "indexed": false,
          "internalType": "uint256",
          "name": "chainIdFrom",
          "type": "uint256"
        },
        {
          "indexed": false,
          "internalType": "bool",
          "name": "enabled",
          "type": "bool"
        }
      ],
      "name": "ControllingAddressUpdated",
      "type": "event"
    },
    {
      "anonymous": false,
      "inputs": [
        {
          "indexed": false,
          "internalType": "uint8",
          "name": "version",
          "type": "uint8"
        }
      ],
      "name": "Initialized",
      "type": "event"
    },
    {
      "anonymous": false,
      "inputs": [
        {
          "indexed": false,
          "internalType": "address",
          "name": "account",
          "type": "address"
        }
      ],
      "name": "Paused",
      "type": "event"
    },
    {
      "anonymous": false,
      "inputs": [
        {
          "indexed": true,
          "internalType": "bytes32",
          "name": "role",
          "type": "bytes32"
        },
        {
          "indexed": true,
          "internalType": "bytes32",
          "name": "previousAdminRole",
          "type": "bytes32"
        },
        {
          "indexed": true,
          "internalType": "bytes32",
          "name": "newAdminRole",
          "type": "bytes32"
        }
      ],
      "name": "RoleAdminChanged",
      "type": "event"
    },
    {
      "anonymous": false,
      "inputs": [
        {
          "indexed": true,
          "internalType": "bytes32",
          "name": "role",
          "type": "bytes32"
        },
        {
          "indexed": true,
          "internalType": "address",
          "name": "account",
          "type": "address"
        },
        {
          "indexed": true,
          "internalType": "address",
          "name": "sender",
          "type": "address"
        }
      ],
      "name": "RoleGranted",
      "type": "event"
    },
    {
      "anonymous": false,
      "inputs": [
        {
          "indexed": true,
          "internalType": "bytes32",
          "name": "role",
          "type": "bytes32"
        },
        {
          "indexed": true,
          "internalType": "address",
          "name": "account",
          "type": "address"
        },
        {
          "indexed": true,
          "internalType": "address",
          "name": "sender",
          "type": "address"
        }
      ],
      "name": "RoleRevoked",
      "type": "event"
    },
    {
      "anonymous": false,
      "inputs": [
        {
          "indexed": true,
          "internalType": "address",
          "name": "from",
          "type": "address"
        },
        {
          "indexed": true,
          "internalType": "address",
          "name": "to",
          "type": "address"
        },
        {
          "indexed": false,
          "internalType": "uint256",
          "name": "value",
          "type": "uint256"
        }
      ],
      "name": "Transfer",
      "type": "event"
    },
    {
      "anonymous": false,
      "inputs": [
        {
          "indexed": false,
          "internalType": "address",
          "name": "account",
          "type": "address"
        }
      ],
      "name": "Unpaused",
      "type": "event"
    },
    {
      "inputs": [],
      "name": "DEFAULT_ADMIN_ROLE",
      "outputs": [
        {
          "internalType": "bytes32",
          "name": "",
          "type": "bytes32"
        }
      ],
      "stateMutability": "view",
      "type": "function"
    },
    {
      "inputs": [],
      "name": "DOMAIN_SEPARATOR",
      "outputs": [
        {
          "internalType": "bytes32",
          "name": "",
          "type": "bytes32"
        }
      ],
      "stateMutability": "view",
      "type": "function"
    },
    {
      "inputs": [],
      "name": "MINTER_ROLE",
      "outputs": [
        {
          "internalType": "bytes32",
          "name": "",
          "type": "bytes32"
        }
      ],
      "stateMutability": "view",
      "type": "function"
    },
    {
      "inputs": [],
      "name": "PERMIT_TYPEHASH",
      "outputs": [
        {
          "internalType": "bytes32",
          "name": "",
          "type": "bytes32"
        }
      ],
      "stateMutability": "view",
      "type": "function"
    },
    {
      "inputs": [
        {
          "internalType": "uint256",
          "name": "_toChainId",
          "type": "uint256"
        },
        {
          "internalType": "address",
          "name": "_to",
          "type": "address"
        },
        {
          "internalType": "uint256",
          "name": "_amount",
          "type": "uint256"
        },
        {
          "internalType": "address",
          "name": "_fallback",
          "type": "address"
        },
        {
          "internalType": "uint256",
          "name": "_executionFee",
          "type": "uint256"
        }
      ],
      "name": "_send",
      "outputs": [],
      "stateMutability": "payable",
      "type": "function"
    },
    {
      "inputs": [
        {
          "internalType": "bytes",
          "name": "_nativeSender",
          "type": "bytes"
        },
        {
          "internalType": "uint256",
          "name": "_chainIdFrom",
          "type": "uint256"
        }
      ],
      "name": "addControllingAddress",
      "outputs": [],
      "stateMutability": "nonpayable",
      "type": "function"
    },
    {
      "inputs": [
        {
          "internalType": "address",
          "name": "owner",
          "type": "address"
        },
        {
          "internalType": "address",
          "name": "spender",
          "type": "address"
        }
      ],
      "name": "allowance",
      "outputs": [
        {
          "internalType": "uint256",
          "name": "",
          "type": "uint256"
        }
      ],
      "stateMutability": "view",
      "type": "function"
    },
    {
      "inputs": [
        {
          "internalType": "address",
          "name": "spender",
          "type": "address"
        },
        {
          "internalType": "uint256",
          "name": "amount",
          "type": "uint256"
        }
      ],
      "name": "approve",
      "outputs": [
        {
          "internalType": "bool",
          "name": "",
          "type": "bool"
        }
      ],
      "stateMutability": "nonpayable",
      "type": "function"
    },
    {
      "inputs": [
        {
          "internalType": "address",
          "name": "account",
          "type": "address"
        }
      ],
      "name": "balanceOf",
      "outputs": [
        {
          "internalType": "uint256",
          "name": "",
          "type": "uint256"
        }
      ],
      "stateMutability": "view",
      "type": "function"
    },
    {
      "inputs": [
        {
          "internalType": "uint256",
          "name": "amount",
          "type": "uint256"
        }
      ],
      "name": "burn",
      "outputs": [],
      "stateMutability": "nonpayable",
      "type": "function"
    },
    {
      "inputs": [
        {
          "internalType": "address",
          "name": "account",
          "type": "address"
        },
        {
          "internalType": "uint256",
          "name": "amount",
          "type": "uint256"
        }
      ],
      "name": "burnFrom",
      "outputs": [],
      "stateMutability": "nonpayable",
      "type": "function"
    },
    {
      "inputs": [
        {
          "internalType": "uint256",
          "name": "",
          "type": "uint256"
        }
      ],
      "name": "chainIdToContractAddress",
      "outputs": [
        {
          "internalType": "address",
          "name": "",
          "type": "address"
        }
      ],
      "stateMutability": "view",
      "type": "function"
    },
    {
      "inputs": [],
      "name": "deBridgeGate",
      "outputs": [
        {
          "internalType": "contract IDeBridgeGate",
          "name": "",
          "type": "address"
        }
      ],
      "stateMutability": "view",
      "type": "function"
    },
    {
      "inputs": [],
      "name": "decimals",
      "outputs": [
        {
          "internalType": "uint8",
          "name": "",
          "type": "uint8"
        }
      ],
      "stateMutability": "view",
      "type": "function"
    },
    {
      "inputs": [
        {
          "internalType": "address",
          "name": "spender",
          "type": "address"
        },
        {
          "internalType": "uint256",
          "name": "subtractedValue",
          "type": "uint256"
        }
      ],
      "name": "decreaseAllowance",
      "outputs": [
        {
          "internalType": "bool",
          "name": "",
          "type": "bool"
        }
      ],
      "stateMutability": "nonpayable",
      "type": "function"
    },
    {
      "inputs": [],
      "name": "getChainId",
      "outputs": [
        {
          "internalType": "uint256",
          "name": "cid",
          "type": "uint256"
        }
      ],
      "stateMutability": "view",
      "type": "function"
    },
    {
      "inputs": [
        {
          "internalType": "uint256",
          "name": "_chainId",
          "type": "uint256"
        },
        {
          "internalType": "address",
          "name": "_tokenAddress",
          "type": "address"
        }
      ],
      "name": "getDebridgeId",
      "outputs": [
        {
          "internalType": "bytes32",
          "name": "",
          "type": "bytes32"
        }
      ],
      "stateMutability": "pure",
      "type": "function"
    },
    {
      "inputs": [
        {
          "internalType": "bytes32",
          "name": "role",
          "type": "bytes32"
        }
      ],
      "name": "getRoleAdmin",
      "outputs": [
        {
          "internalType": "bytes32",
          "name": "",
          "type": "bytes32"
        }
      ],
      "stateMutability": "view",
      "type": "function"
    },
    {
      "inputs": [
        {
          "internalType": "bytes32",
          "name": "role",
          "type": "bytes32"
        },
        {
          "internalType": "address",
          "name": "account",
          "type": "address"
        }
      ],
      "name": "grantRole",
      "outputs": [],
      "stateMutability": "nonpayable",
      "type": "function"
    },
    {
      "inputs": [
        {
          "internalType": "bytes32",
          "name": "role",
          "type": "bytes32"
        },
        {
          "internalType": "address",
          "name": "account",
          "type": "address"
        }
      ],
      "name": "hasRole",
      "outputs": [
        {
          "internalType": "bool",
          "name": "",
          "type": "bool"
        }
      ],
      "stateMutability": "view",
      "type": "function"
    },
    {
      "inputs": [
        {
          "internalType": "address",
          "name": "spender",
          "type": "address"
        },
        {
          "internalType": "uint256",
          "name": "addedValue",
          "type": "uint256"
        }
      ],
      "name": "increaseAllowance",
      "outputs": [
        {
          "internalType": "bool",
          "name": "",
          "type": "bool"
        }
      ],
      "stateMutability": "nonpayable",
      "type": "function"
    },
    {
      "inputs": [
        {
          "internalType": "contract IDeBridgeGate",
          "name": "_deBridgeGate",
          "type": "address"
        }
      ],
      "name": "initialize",
      "outputs": [],
      "stateMutability": "nonpayable",
      "type": "function"
    },
    {
      "inputs": [
        {
          "internalType": "uint256",
          "name": "",
          "type": "uint256"
        },
        {
          "internalType": "bytes",
          "name": "",
          "type": "bytes"
        }
      ],
      "name": "isAddressFromChainIdControlling",
      "outputs": [
        {
          "internalType": "bool",
          "name": "",
          "type": "bool"
        }
      ],
      "stateMutability": "view",
      "type": "function"
    },
    {
      "inputs": [
        {
          "internalType": "bytes",
          "name": "_nativeSender",
          "type": "bytes"
        },
        {
          "internalType": "uint256",
          "name": "_chainIdFrom",
          "type": "uint256"
        }
      ],
      "name": "isControllingAddress",
      "outputs": [
        {
          "internalType": "bool",
          "name": "",
          "type": "bool"
        }
      ],
      "stateMutability": "view",
      "type": "function"
    },
    {
      "inputs": [
        {
          "internalType": "address",
          "name": "to",
          "type": "address"
        },
        {
          "internalType": "uint256",
          "name": "amount",
          "type": "uint256"
        }
      ],
      "name": "mint",
      "outputs": [],
      "stateMutability": "nonpayable",
      "type": "function"
    },
    {
      "inputs": [],
      "name": "name",
      "outputs": [
        {
          "internalType": "string",
          "name": "",
          "type": "string"
        }
      ],
      "stateMutability": "view",
      "type": "function"
    },
    {
      "inputs": [
        {
          "internalType": "address",
          "name": "",
          "type": "address"
        }
      ],
      "name": "nonces",
      "outputs": [
        {
          "internalType": "uint256",
          "name": "",
          "type": "uint256"
        }
      ],
      "stateMutability": "view",
      "type": "function"
    },
    {
      "inputs": [],
      "name": "pause",
      "outputs": [],
      "stateMutability": "nonpayable",
      "type": "function"
    },
    {
      "inputs": [],
      "name": "paused",
      "outputs": [
        {
          "internalType": "bool",
          "name": "",
          "type": "bool"
        }
      ],
      "stateMutability": "view",
      "type": "function"
    },
    {
      "inputs": [
        {
          "internalType": "address",
          "name": "owner",
          "type": "address"
        },
        {
          "internalType": "address",
          "name": "spender",
          "type": "address"
        },
        {
          "internalType": "uint256",
          "name": "value",
          "type": "uint256"
        },
        {
          "internalType": "uint256",
          "name": "deadline",
          "type": "uint256"
        },
        {
          "internalType": "uint8",
          "name": "v",
          "type": "uint8"
        },
        {
          "internalType": "bytes32",
          "name": "r",
          "type": "bytes32"
        },
        {
          "internalType": "bytes32",
          "name": "s",
          "type": "bytes32"
        }
      ],
      "name": "permit",
      "outputs": [],
      "stateMutability": "nonpayable",
      "type": "function"
    },
    {
      "inputs": [
        {
          "internalType": "bytes",
          "name": "_nativeSender",
          "type": "bytes"
        },
        {
          "internalType": "uint256",
          "name": "_chainIdFrom",
          "type": "uint256"
        }
      ],
      "name": "removeControllingAddress",
      "outputs": [],
      "stateMutability": "nonpayable",
      "type": "function"
    },
    {
      "inputs": [
        {
          "internalType": "bytes32",
          "name": "role",
          "type": "bytes32"
        },
        {
          "internalType": "address",
          "name": "account",
          "type": "address"
        }
      ],
      "name": "renounceRole",
      "outputs": [],
      "stateMutability": "nonpayable",
      "type": "function"
    },
    {
      "inputs": [
        {
          "internalType": "bytes32",
          "name": "role",
          "type": "bytes32"
        },
        {
          "internalType": "address",
          "name": "account",
          "type": "address"
        }
      ],
      "name": "revokeRole",
      "outputs": [],
      "stateMutability": "nonpayable",
      "type": "function"
    },
    {
      "inputs": [
        {
          "internalType": "address",
          "name": "_address",
          "type": "address"
        },
        {
          "internalType": "uint256",
          "name": "_chainIdTo",
          "type": "uint256"
        }
      ],
      "name": "setContractAddressOnChainId",
      "outputs": [],
      "stateMutability": "nonpayable",
      "type": "function"
    },
    {
      "inputs": [
        {
          "internalType": "bytes4",
          "name": "interfaceId",
          "type": "bytes4"
        }
      ],
      "name": "supportsInterface",
      "outputs": [
        {
          "internalType": "bool",
          "name": "",
          "type": "bool"
        }
      ],
      "stateMutability": "view",
      "type": "function"
    },
    {
      "inputs": [],
      "name": "symbol",
      "outputs": [
        {
          "internalType": "string",
          "name": "",
          "type": "string"
        }
      ],
      "stateMutability": "view",
      "type": "function"
    },
    {
      "inputs": [],
      "name": "totalSupply",
      "outputs": [
        {
          "internalType": "uint256",
          "name": "",
          "type": "uint256"
        }
      ],
      "stateMutability": "view",
      "type": "function"
    },
    {
      "inputs": [
        {
          "internalType": "address",
          "name": "to",
          "type": "address"
        },
        {
          "internalType": "uint256",
          "name": "amount",
          "type": "uint256"
        }
      ],
      "name": "transfer",
      "outputs": [
        {
          "internalType": "bool",
          "name": "",
          "type": "bool"
        }
      ],
      "stateMutability": "nonpayable",
      "type": "function"
    },
    {
      "inputs": [
        {
          "internalType": "address",
          "name": "to",
          "type": "address"
        },
        {
          "internalType": "uint256",
          "name": "amount",
          "type": "uint256"
        },
        {
          "internalType": "uint256",
          "name": "toChainId",
          "type": "uint256"
        }
      ],
      "name": "transferCrossChain",
      "outputs": [
        {
          "internalType": "bool",
          "name": "",
          "type": "bool"
        }
      ],
      "stateMutability": "payable",
      "type": "function"
    },
    {
      "inputs": [
        {
          "internalType": "address",
          "name": "from",
          "type": "address"
        },
        {
          "internalType": "address",
          "name": "to",
          "type": "address"
        },
        {
          "internalType": "uint256",
          "name": "amount",
          "type": "uint256"
        }
      ],
      "name": "transferFrom",
      "outputs": [
        {
          "internalType": "bool",
          "name": "",
          "type": "bool"
        }
      ],
      "stateMutability": "nonpayable",
      "type": "function"
    },
    {
      "inputs": [],
      "name": "unpause",
      "outputs": [],
      "stateMutability": "nonpayable",
      "type": "function"
    },
    {
      "inputs": [],
      "name": "version",
      "outputs": [
        {
          "internalType": "uint256",
          "name": "",
          "type": "uint256"
        }
      ],
      "stateMutability": "pure",
      "type": "function"
    }
  ],
  "bytecode": "0x608060405234801561001057600080fd5b50614c55806100206000396000f3fe6080604052600436106102515760003560e01c80636586f26b11610139578063a217fddf116100b6578063ca777fbf1161007a578063ca777fbf14610908578063cb05929414610933578063d505accf14610970578063d539139314610999578063d547741f146109c4578063dd62ed3e146109ed57610251565b8063a217fddf1461081e578063a457c2d714610849578063a9059cbb14610886578063b885e074146108c3578063c4d66de8146108df57610251565b806391d14854116100fd57806391d148541461072057806395d89b411461075d57806396166210146107885780639682b909146107b8578063a00461aa146107f557610251565b80636586f26b1461063d57806370a082311461066657806379cc6790146106a35780637ecebe00146106cc5780638456cb591461070957610251565b8063313ce567116101d25780633f4ba83a116101965780633f4ba83a1461054157806340c10f191461055857806342966c68146105815780635062a2b0146105aa57806354fd4d50146105e75780635c975abb1461061257610251565b8063313ce5671461045a5780633408e470146104855780633644e515146104b057806336568abe146104db578063395093511461050457610251565b8063248a9ca311610219578063248a9ca3146103635780632c13e57c146103a05780632f2ff15d146103c957806330a37ce7146103f257806330adf81f1461042f57610251565b806301ffc9a71461025657806306fdde0314610293578063095ea7b3146102be57806318160ddd146102fb57806323b872dd14610326575b600080fd5b34801561026257600080fd5b5061027d60048036038101906102789190613146565b610a2a565b60405161028a919061318e565b60405180910390f35b34801561029f57600080fd5b506102a8610aa4565b6040516102b59190613242565b60405180910390f35b3480156102ca57600080fd5b506102e560048036038101906102e091906132f8565b610b36565b6040516102f2919061318e565b60405180910390f35b34801561030757600080fd5b50610310610b59565b60405161031d9190613347565b60405180910390f35b34801561033257600080fd5b5061034d60048036038101906103489190613362565b610b63565b60405161035a919061318e565b60405180910390f35b34801561036f57600080fd5b5061038a600480360381019061038591906133eb565b610b92565b6040516103979190613427565b60405180910390f35b3480156103ac57600080fd5b506103c760048036038101906103c29190613577565b610bb2565b005b3480156103d557600080fd5b506103f060048036038101906103eb91906135d3565b610cf3565b005b3480156103fe57600080fd5b5061041960048036038101906104149190613613565b610d14565b604051610426919061318e565b60405180910390f35b34801561043b57600080fd5b50610444610d5a565b6040516104519190613427565b60405180910390f35b34801561046657600080fd5b5061046f610d81565b60405161047c919061368b565b60405180910390f35b34801561049157600080fd5b5061049a610d8a565b6040516104a79190613347565b60405180910390f35b3480156104bc57600080fd5b506104c5610d92565b6040516104d29190613427565b60405180910390f35b3480156104e757600080fd5b5061050260048036038101906104fd91906135d3565b610d99565b005b34801561051057600080fd5b5061052b600480360381019061052691906132f8565b610e1c565b604051610538919061318e565b60405180910390f35b34801561054d57600080fd5b50610556610e53565b005b34801561056457600080fd5b5061057f600480360381019061057a91906132f8565b610ea0565b005b34801561058d57600080fd5b506105a860048036038101906105a391906136a6565b610ed9565b005b3480156105b657600080fd5b506105d160048036038101906105cc9190613577565b610eed565b6040516105de919061318e565b60405180910390f35b3480156105f357600080fd5b506105fc610f35565b6040516106099190613347565b60405180910390f35b34801561061e57600080fd5b50610627610f3e565b604051610634919061318e565b60405180910390f35b34801561064957600080fd5b50610664600480360381019061065f91906132f8565b610f55565b005b34801561067257600080fd5b5061068d600480360381019061068891906136d3565b611028565b60405161069a9190613347565b60405180910390f35b3480156106af57600080fd5b506106ca60048036038101906106c591906132f8565b611071565b005b3480156106d857600080fd5b506106f360048036038101906106ee91906136d3565b611091565b6040516107009190613347565b60405180910390f35b34801561071557600080fd5b5061071e6110aa565b005b34801561072c57600080fd5b50610747600480360381019061074291906135d3565b6110f7565b604051610754919061318e565b60405180910390f35b34801561076957600080fd5b50610772611162565b60405161077f9190613242565b60405180910390f35b6107a2600480360381019061079d9190613700565b6111f4565b6040516107af919061318e565b60405180910390f35b3480156107c457600080fd5b506107df60048036038101906107da9190613753565b611241565b6040516107ec9190613427565b60405180910390f35b34801561080157600080fd5b5061081c60048036038101906108179190613577565b611274565b005b34801561082a57600080fd5b506108336113b4565b6040516108409190613427565b60405180910390f35b34801561085557600080fd5b50610870600480360381019061086b91906132f8565b6113bb565b60405161087d919061318e565b60405180910390f35b34801561089257600080fd5b506108ad60048036038101906108a891906132f8565b611432565b6040516108ba919061318e565b60405180910390f35b6108dd60048036038101906108d89190613793565b611455565b005b3480156108eb57600080fd5b506109066004803603810190610901919061384c565b611739565b005b34801561091457600080fd5b5061091d611920565b60405161092a91906138d8565b60405180910390f35b34801561093f57600080fd5b5061095a600480360381019061095591906136a6565b611947565b6040516109679190613902565b60405180910390f35b34801561097c57600080fd5b5061099760048036038101906109929190613949565b61197b565b005b3480156109a557600080fd5b506109ae611bab565b6040516109bb9190613427565b60405180910390f35b3480156109d057600080fd5b506109eb60048036038101906109e691906135d3565b611bcf565b005b3480156109f957600080fd5b50610a146004803603810190610a0f91906139eb565b611bf0565b604051610a219190613347565b60405180910390f35b60007f7965db0b000000000000000000000000000000000000000000000000000000007bffffffffffffffffffffffffffffffffffffffffffffffffffffffff1916827bffffffffffffffffffffffffffffffffffffffffffffffffffffffff19161480610a9d5750610a9c82611c77565b5b9050919050565b606060368054610ab390613a5a565b80601f0160208091040260200160405190810160405280929190818152602001828054610adf90613a5a565b8015610b2c5780601f10610b0157610100808354040283529160200191610b2c565b820191906000526020600020905b815481529060010190602001808311610b0f57829003601f168201915b5050505050905090565b600080610b41611ce1565b9050610b4e818585611ce9565b600191505092915050565b6000603554905090565b600080610b6e611ce1565b9050610b7b858285611eb2565b610b86858585611f3e565b60019150509392505050565b600060c96000838152602001908152602001600020600101549050919050565b610bbf6000801b336110f7565b610bf5576040517fde8e41fa00000000000000000000000000000000000000000000000000000000815260040160405180910390fd5b61012e600082815260200190815260200160002082604051610c179190613ad2565b908152602001604051809103902060009054906101000a900460ff1615610c6a576040517f6d09561c00000000000000000000000000000000000000000000000000000000815260040160405180910390fd5b600161012e600083815260200190815260200160002083604051610c8e9190613ad2565b908152602001604051809103902060006101000a81548160ff0219169083151502179055507f75444ea1b32c6bc7d5884fdd431cab59bc347958a5a88eb42c31b1cd833f4c7982826001604051610ce793929190613b33565b60405180910390a15050565b610cfc82610b92565b610d05816121c0565b610d0f83836121d4565b505050565b61012e602052816000526040600020818051602081018201805184825260208301602085012081835280955050505050506000915091509054906101000a900460ff1681565b7f6e71edae12b1b97f4d1f60370fef10105fa2faae0126114a169c64845d6126c960001b81565b60006006905090565b600046905090565b6101305481565b610da1611ce1565b73ffffffffffffffffffffffffffffffffffffffff168173ffffffffffffffffffffffffffffffffffffffff1614610e0e576040517f08c379a0000000000000000000000000000000000000000000000000000000008152600401610e0590613be3565b60405180910390fd5b610e1882826122b5565b5050565b600080610e27611ce1565b9050610e48818585610e398589611bf0565b610e439190613c32565b611ce9565b600191505092915050565b610e606000801b336110f7565b610e96576040517fde8e41fa00000000000000000000000000000000000000000000000000000000815260040160405180910390fd5b610e9e612397565b565b7f9f2df0fed2c77648de5860a4cc508cd0818c85b8b8a1ab4ceeef8d981c8956a6610eca816121c0565b610ed48383612439565b505050565b610eea610ee4611ce1565b82612599565b50565b600061012e600083815260200190815260200160002083604051610f119190613ad2565b908152602001604051809103902060009054906101000a900460ff16905092915050565b60006065905090565b600060fb60009054906101000a900460ff16905090565b610f626000801b336110f7565b610f98576040517fde8e41fa00000000000000000000000000000000000000000000000000000000815260040160405180910390fd5b8161012f600083815260200190815260200160002060006101000a81548173ffffffffffffffffffffffffffffffffffffffff021916908373ffffffffffffffffffffffffffffffffffffffff1602179055507f97eb0846ca97e409f9879b45a795fe55abf0dabdcf54c2bc4eaa07c14221195a828260405161101c929190613c88565b60405180910390a15050565b6000603360008373ffffffffffffffffffffffffffffffffffffffff1673ffffffffffffffffffffffffffffffffffffffff168152602001908152602001600020549050919050565b6110838261107d611ce1565b83611eb2565b61108d8282612599565b5050565b6101316020528060005260406000206000915090505481565b6110b76000801b336110f7565b6110ed576040517fde8e41fa00000000000000000000000000000000000000000000000000000000815260040160405180910390fd5b6110f5612771565b565b600060c9600084815260200190815260200160002060000160008373ffffffffffffffffffffffffffffffffffffffff1673ffffffffffffffffffffffffffffffffffffffff16815260200190815260200160002060009054906101000a900460ff16905092915050565b60606037805461117190613a5a565b80601f016020809104026020016040519081016040528092919081815260200182805461119d90613a5a565b80156111ea5780601f106111bf576101008083540402835291602001916111ea565b820191906000526020600020905b8154815290600101906020018083116111cd57829003601f168201915b5050505050905090565b6000806111ff611ce1565b905046830361121d57611213818686611f3e565b600191505061123a565b61122684610ed9565b611234838686306000611455565b60019150505b9392505050565b60008282604051602001611256929190613d1a565b60405160208183030381529060405280519060200120905092915050565b6112816000801b336110f7565b6112b7576040517fde8e41fa00000000000000000000000000000000000000000000000000000000815260040160405180910390fd5b61012e6000828152602001908152602001600020826040516112d99190613ad2565b908152602001604051809103902060009054906101000a900460ff1661132b576040517f6d4568c600000000000000000000000000000000000000000000000000000000815260040160405180910390fd5b600061012e60008381526020019081526020016000208360405161134f9190613ad2565b908152602001604051809103902060006101000a81548160ff0219169083151502179055507f75444ea1b32c6bc7d5884fdd431cab59bc347958a5a88eb42c31b1cd833f4c79828260006040516113a893929190613b33565b60405180910390a15050565b6000801b81565b6000806113c6611ce1565b905060006113d48286611bf0565b905083811015611419576040517f08c379a000000000000000000000000000000000000000000000000000000000815260040161141090613db8565b60405180910390fd5b6114268286868403611ce9565b60019250505092915050565b60008061143d611ce1565b905061144a818585611f3e565b600191505092915050565b61145d610f3e565b1561149d576040517f08c379a000000000000000000000000000000000000000000000000000000000815260040161149490613e24565b60405180910390fd5b6114a561300f565b6114bf60018083602001516128149092919063ffffffff16565b8160200181815250506114e36002600183602001516128149092919063ffffffff16565b81602001818152505081816000018181525050826040516020016115079190613e44565b60405160208183030381529060405281604001819052508484604051602401611531929190613c88565b6040516020818303038152906040527f40c10f19000000000000000000000000000000000000000000000000000000007bffffffffffffffffffffffffffffffffffffffffffffffffffffffff19166020820180517bffffffffffffffffffffffffffffffffffffffffffffffffffffffff83818316178352505050508160600181905250600061012f600088815260200190815260200160002060009054906101000a900473ffffffffffffffffffffffffffffffffffffffff169050600073ffffffffffffffffffffffffffffffffffffffff168173ffffffffffffffffffffffffffffffffffffffff1603611655576040517f864bf4d600000000000000000000000000000000000000000000000000000000815260040160405180910390fd5b61012d60009054906101000a900473ffffffffffffffffffffffffffffffffffffffff1673ffffffffffffffffffffffffffffffffffffffff1663be297476346000348b866040516020016116aa9190613e44565b6040516020818303038152906040526000808a6040516020016116cd9190613f22565b6040516020818303038152906040526040518963ffffffff1660e01b81526004016116fe9796959493929190613fb5565b6000604051808303818588803b15801561171757600080fd5b505af115801561172b573d6000803e3d6000fd5b505050505050505050505050565b6000611745600161283c565b90508015611769576001600060016101000a81548160ff0219169083151502179055505b6117dd6040518060400160405280600a81526020017f59656c6c6f7755534454000000000000000000000000000000000000000000008152506040518060400160405280600581526020017f795553445400000000000000000000000000000000000000000000000000000081525061292c565b6117ea6000801b336121d4565b6118147f9f2df0fed2c77648de5860a4cc508cd0818c85b8b8a1ab4ceeef8d981c8956a6336121d4565b61181d82612989565b60004690507f8b73c3c69bb8fe3d512ecc4cf759cc79239f7b179b0ffacaa9a75d522b39400f61184b610aa4565b805190602001206040518060400160405280600181526020017f31000000000000000000000000000000000000000000000000000000000000008152508051906020012083306040516020016118a5959493929190614046565b604051602081830303815290604052805190602001206101308190555050801561191c5760008060016101000a81548160ff0219169083151502179055507f7f26b83ff96e1f2b6a682f133852f6798a09c465da95921460cefb3847402498600160405161191391906140d4565b60405180910390a15b5050565b61012d60009054906101000a900473ffffffffffffffffffffffffffffffffffffffff1681565b61012f6020528060005260406000206000915054906101000a900473ffffffffffffffffffffffffffffffffffffffff1681565b6000469050428510156119c3576040517f08c379a00000000000000000000000000000000000000000000000000000000081526004016119ba9061413b565b60405180910390fd5b6000610130547f6e71edae12b1b97f4d1f60370fef10105fa2faae0126114a169c64845d6126c960001b8a8a8a61013160008f73ffffffffffffffffffffffffffffffffffffffff1673ffffffffffffffffffffffffffffffffffffffff1681526020019081526020016000206000815480929190611a419061415b565b919050558b604051602001611a5b969594939291906141a3565b60405160208183030381529060405280519060200120604051602001611a8292919061427c565b604051602081830303815290604052805190602001209050600060018287878760405160008152602001604052604051611abf94939291906142b3565b6020604051602081039080840390855afa158015611ae1573d6000803e3d6000fd5b505050602060405103519050600073ffffffffffffffffffffffffffffffffffffffff168173ffffffffffffffffffffffffffffffffffffffff1614158015611b5557508973ffffffffffffffffffffffffffffffffffffffff168173ffffffffffffffffffffffffffffffffffffffff16145b611b94576040517f08c379a0000000000000000000000000000000000000000000000000000000008152600401611b8b90614344565b60405180910390fd5b611b9f8a8a8a611ce9565b50505050505050505050565b7f9f2df0fed2c77648de5860a4cc508cd0818c85b8b8a1ab4ceeef8d981c8956a681565b611bd882610b92565b611be1816121c0565b611beb83836122b5565b505050565b6000603460008473ffffffffffffffffffffffffffffffffffffffff1673ffffffffffffffffffffffffffffffffffffffff16815260200190815260200160002060008373ffffffffffffffffffffffffffffffffffffffff1673ffffffffffffffffffffffffffffffffffffffff16815260200190815260200160002054905092915050565b60007f01ffc9a7000000000000000000000000000000000000000000000000000000007bffffffffffffffffffffffffffffffffffffffffffffffffffffffff1916827bffffffffffffffffffffffffffffffffffffffffffffffffffffffff1916149050919050565b600033905090565b600073ffffffffffffffffffffffffffffffffffffffff168373ffffffffffffffffffffffffffffffffffffffff1603611d58576040517f08c379a0000000000000000000000000000000000000000000000000000000008152600401611d4f906143d6565b60405180910390fd5b600073ffffffffffffffffffffffffffffffffffffffff168273ffffffffffffffffffffffffffffffffffffffff1603611dc7576040517f08c379a0000000000000000000000000000000000000000000000000000000008152600401611dbe90614468565b60405180910390fd5b80603460008573ffffffffffffffffffffffffffffffffffffffff1673ffffffffffffffffffffffffffffffffffffffff16815260200190815260200160002060008473ffffffffffffffffffffffffffffffffffffffff1673ffffffffffffffffffffffffffffffffffffffff168152602001908152602001600020819055508173ffffffffffffffffffffffffffffffffffffffff168373ffffffffffffffffffffffffffffffffffffffff167f8c5be1e5ebec7d5bd14f71427d1e84f3dd0314c0f7b2291e5b200ac8c7c3b92583604051611ea59190613347565b60405180910390a3505050565b6000611ebe8484611bf0565b90507fffffffffffffffffffffffffffffffffffffffffffffffffffffffffffffffff8114611f385781811015611f2a576040517f08c379a0000000000000000000000000000000000000000000000000000000008152600401611f21906144d4565b60405180910390fd5b611f378484848403611ce9565b5b50505050565b600073ffffffffffffffffffffffffffffffffffffffff168373ffffffffffffffffffffffffffffffffffffffff1603611fad576040517f08c379a0000000000000000000000000000000000000000000000000000000008152600401611fa490614566565b60405180910390fd5b600073ffffffffffffffffffffffffffffffffffffffff168273ffffffffffffffffffffffffffffffffffffffff160361201c576040517f08c379a0000000000000000000000000000000000000000000000000000000008152600401612013906145f8565b60405180910390fd5b612027838383612a3f565b6000603360008573ffffffffffffffffffffffffffffffffffffffff1673ffffffffffffffffffffffffffffffffffffffff168152602001908152602001600020549050818110156120ae576040517f08c379a00000000000000000000000000000000000000000000000000000000081526004016120a59061468a565b60405180910390fd5b818103603360008673ffffffffffffffffffffffffffffffffffffffff1673ffffffffffffffffffffffffffffffffffffffff1681526020019081526020016000208190555081603360008573ffffffffffffffffffffffffffffffffffffffff1673ffffffffffffffffffffffffffffffffffffffff16815260200190815260200160002060008282546121439190613c32565b925050819055508273ffffffffffffffffffffffffffffffffffffffff168473ffffffffffffffffffffffffffffffffffffffff167fddf252ad1be2c89b69c2b068fc378daa952ba7f163c4a11628f55a4df523b3ef846040516121a79190613347565b60405180910390a36121ba848484612a44565b50505050565b6121d1816121cc611ce1565b612a49565b50565b6121de82826110f7565b6122b157600160c9600084815260200190815260200160002060000160008373ffffffffffffffffffffffffffffffffffffffff1673ffffffffffffffffffffffffffffffffffffffff16815260200190815260200160002060006101000a81548160ff021916908315150217905550612256611ce1565b73ffffffffffffffffffffffffffffffffffffffff168173ffffffffffffffffffffffffffffffffffffffff16837f2f8788117e7eff1d82e926ec794901d17c78024a50270940304540a733656f0d60405160405180910390a45b5050565b6122bf82826110f7565b1561239357600060c9600084815260200190815260200160002060000160008373ffffffffffffffffffffffffffffffffffffffff1673ffffffffffffffffffffffffffffffffffffffff16815260200190815260200160002060006101000a81548160ff021916908315150217905550612338611ce1565b73ffffffffffffffffffffffffffffffffffffffff168173ffffffffffffffffffffffffffffffffffffffff16837ff6391f5c32d9c69d2a47ea670b442974b53935d1edc7fd64eb21e047a839171b60405160405180910390a45b5050565b61239f610f3e565b6123de576040517f08c379a00000000000000000000000000000000000000000000000000000000081526004016123d5906146f6565b60405180910390fd5b600060fb60006101000a81548160ff0219169083151502179055507f5db9ee0a495bf2e6ff9c91a7834c1ba4fdd244a5e8aa4e537bd38aeae4b073aa612422611ce1565b60405161242f9190613902565b60405180910390a1565b600073ffffffffffffffffffffffffffffffffffffffff168273ffffffffffffffffffffffffffffffffffffffff16036124a8576040517f08c379a000000000000000000000000000000000000000000000000000000000815260040161249f90614762565b60405180910390fd5b6124b460008383612a3f565b80603560008282546124c69190613c32565b9250508190555080603360008473ffffffffffffffffffffffffffffffffffffffff1673ffffffffffffffffffffffffffffffffffffffff168152602001908152602001600020600082825461251c9190613c32565b925050819055508173ffffffffffffffffffffffffffffffffffffffff16600073ffffffffffffffffffffffffffffffffffffffff167fddf252ad1be2c89b69c2b068fc378daa952ba7f163c4a11628f55a4df523b3ef836040516125819190613347565b60405180910390a361259560008383612a44565b5050565b600073ffffffffffffffffffffffffffffffffffffffff168273ffffffffffffffffffffffffffffffffffffffff1603612608576040517f08c379a00000000000000000000000000000000000000000000000000000000081526004016125ff906147f4565b60405180910390fd5b61261482600083612a3f565b6000603360008473ffffffffffffffffffffffffffffffffffffffff1673ffffffffffffffffffffffffffffffffffffffff1681526020019081526020016000205490508181101561269b576040517f08c379a000000000000000000000000000000000000000000000000000000000815260040161269290614886565b60405180910390fd5b818103603360008573ffffffffffffffffffffffffffffffffffffffff1673ffffffffffffffffffffffffffffffffffffffff1681526020019081526020016000208190555081603560008282546126f391906148a6565b92505081905550600073ffffffffffffffffffffffffffffffffffffffff168373ffffffffffffffffffffffffffffffffffffffff167fddf252ad1be2c89b69c2b068fc378daa952ba7f163c4a11628f55a4df523b3ef846040516127589190613347565b60405180910390a361276c83600084612a44565b505050565b612779610f3e565b156127b9576040517f08c379a00000000000000000000000000000000000000000000000000000000081526004016127b090613e24565b60405180910390fd5b600160fb60006101000a81548160ff0219169083151502179055507f62e78cea01bee320cd4e420270b5ea74000d11b0c9f74754ebdbfc544b05a2586127fd611ce1565b60405161280a9190613902565b60405180910390a1565b6000811561282a57826001901b84179050612835565b826001901b19841690505b9392505050565b60008060019054906101000a900460ff16156128b35760018260ff1614801561286b575061286930612ae6565b155b6128aa576040517f08c379a00000000000000000000000000000000000000000000000000000000081526004016128a19061494c565b60405180910390fd5b60009050612927565b8160ff1660008054906101000a900460ff1660ff1610612908576040517f08c379a00000000000000000000000000000000000000000000000000000000081526004016128ff9061494c565b60405180910390fd5b816000806101000a81548160ff021916908360ff160217905550600190505b919050565b600060019054906101000a900460ff1661297b576040517f08c379a0000000000000000000000000000000000000000000000000000000008152600401612972906149de565b60405180910390fd5b6129858282612b09565b5050565b6000612995600161283c565b905080156129b9576001600060016101000a81548160ff0219169083151502179055505b6129c1612b8a565b6129c9612bdb565b6129d1612c2c565b6129d9612c7d565b6129e282612ce9565b8015612a3b5760008060016101000a81548160ff0219169083151502179055507f7f26b83ff96e1f2b6a682f133852f6798a09c465da95921460cefb38474024986001604051612a3291906140d4565b60405180910390a15b5050565b505050565b505050565b612a5382826110f7565b612ae257612a788173ffffffffffffffffffffffffffffffffffffffff166014612dc5565b612a868360001c6020612dc5565b604051602001612a97929190614ac7565b6040516020818303038152906040526040517f08c379a0000000000000000000000000000000000000000000000000000000008152600401612ad99190613242565b60405180910390fd5b5050565b6000808273ffffffffffffffffffffffffffffffffffffffff163b119050919050565b600060019054906101000a900460ff16612b58576040517f08c379a0000000000000000000000000000000000000000000000000000000008152600401612b4f906149de565b60405180910390fd5b8160369080519060200190612b6e929190613037565b508060379080519060200190612b85929190613037565b505050565b600060019054906101000a900460ff16612bd9576040517f08c379a0000000000000000000000000000000000000000000000000000000008152600401612bd0906149de565b60405180910390fd5b565b600060019054906101000a900460ff16612c2a576040517f08c379a0000000000000000000000000000000000000000000000000000000008152600401612c21906149de565b60405180910390fd5b565b600060019054906101000a900460ff16612c7b576040517f08c379a0000000000000000000000000000000000000000000000000000000008152600401612c72906149de565b60405180910390fd5b565b600060019054906101000a900460ff16612ccc576040517f08c379a0000000000000000000000000000000000000000000000000000000008152600401612cc3906149de565b60405180910390fd5b600060fb60006101000a81548160ff021916908315150217905550565b6000612cf5600161283c565b90508015612d19576001600060016101000a81548160ff0219169083151502179055505b8161012d60006101000a81548173ffffffffffffffffffffffffffffffffffffffff021916908373ffffffffffffffffffffffffffffffffffffffff160217905550612d686000801b33613001565b8015612dc15760008060016101000a81548160ff0219169083151502179055507f7f26b83ff96e1f2b6a682f133852f6798a09c465da95921460cefb38474024986001604051612db891906140d4565b60405180910390a15b5050565b606060006002836002612dd89190614b01565b612de29190613c32565b67ffffffffffffffff811115612dfb57612dfa61344c565b5b6040519080825280601f01601f191660200182016040528015612e2d5781602001600182028036833780820191505090505b5090507f300000000000000000000000000000000000000000000000000000000000000081600081518110612e6557612e64614b5b565b5b60200101907effffffffffffffffffffffffffffffffffffffffffffffffffffffffffffff1916908160001a9053507f780000000000000000000000000000000000000000000000000000000000000081600181518110612ec957612ec8614b5b565b5b60200101907effffffffffffffffffffffffffffffffffffffffffffffffffffffffffffff1916908160001a90535060006001846002612f099190614b01565b612f139190613c32565b90505b6001811115612fb3577f3031323334353637383961626364656600000000000000000000000000000000600f861660108110612f5557612f54614b5b565b5b1a60f81b828281518110612f6c57612f6b614b5b565b5b60200101907effffffffffffffffffffffffffffffffffffffffffffffffffffffffffffff1916908160001a905350600485901c945080612fac90614b8a565b9050612f16565b5060008414612ff7576040517f08c379a0000000000000000000000000000000000000000000000000000000008152600401612fee90614bff565b60405180910390fd5b8091505092915050565b61300b82826121d4565b5050565b6040518060800160405280600081526020016000815260200160608152602001606081525090565b82805461304390613a5a565b90600052602060002090601f01602090048101928261306557600085556130ac565b82601f1061307e57805160ff19168380011785556130ac565b828001600101855582156130ac579182015b828111156130ab578251825591602001919060010190613090565b5b5090506130b991906130bd565b5090565b5b808211156130d65760008160009055506001016130be565b5090565b6000604051905090565b600080fd5b600080fd5b60007fffffffff0000000000000000000000000000000000000000000000000000000082169050919050565b613123816130ee565b811461312e57600080fd5b50565b6000813590506131408161311a565b92915050565b60006020828403121561315c5761315b6130e4565b5b600061316a84828501613131565b91505092915050565b60008115159050919050565b61318881613173565b82525050565b60006020820190506131a3600083018461317f565b92915050565b600081519050919050565b600082825260208201905092915050565b60005b838110156131e35780820151818401526020810190506131c8565b838111156131f2576000848401525b50505050565b6000601f19601f8301169050919050565b6000613214826131a9565b61321e81856131b4565b935061322e8185602086016131c5565b613237816131f8565b840191505092915050565b6000602082019050818103600083015261325c8184613209565b905092915050565b600073ffffffffffffffffffffffffffffffffffffffff82169050919050565b600061328f82613264565b9050919050565b61329f81613284565b81146132aa57600080fd5b50565b6000813590506132bc81613296565b92915050565b6000819050919050565b6132d5816132c2565b81146132e057600080fd5b50565b6000813590506132f2816132cc565b92915050565b6000806040838503121561330f5761330e6130e4565b5b600061331d858286016132ad565b925050602061332e858286016132e3565b9150509250929050565b613341816132c2565b82525050565b600060208201905061335c6000830184613338565b92915050565b60008060006060848603121561337b5761337a6130e4565b5b6000613389868287016132ad565b935050602061339a868287016132ad565b92505060406133ab868287016132e3565b9150509250925092565b6000819050919050565b6133c8816133b5565b81146133d357600080fd5b50565b6000813590506133e5816133bf565b92915050565b600060208284031215613401576134006130e4565b5b600061340f848285016133d6565b91505092915050565b613421816133b5565b82525050565b600060208201905061343c6000830184613418565b92915050565b600080fd5b600080fd5b7f4e487b7100000000000000000000000000000000000000000000000000000000600052604160045260246000fd5b613484826131f8565b810181811067ffffffffffffffff821117156134a3576134a261344c565b5b80604052505050565b60006134b66130da565b90506134c2828261347b565b919050565b600067ffffffffffffffff8211156134e2576134e161344c565b5b6134eb826131f8565b9050602081019050919050565b82818337600083830152505050565b600061351a613515846134c7565b6134ac565b90508281526020810184848401111561353657613535613447565b5b6135418482856134f8565b509392505050565b600082601f83011261355e5761355d613442565b5b813561356e848260208601613507565b91505092915050565b6000806040838503121561358e5761358d6130e4565b5b600083013567ffffffffffffffff8111156135ac576135ab6130e9565b5b6135b885828601613549565b92505060206135c9858286016132e3565b9150509250929050565b600080604083850312156135ea576135e96130e4565b5b60006135f8858286016133d6565b9250506020613609858286016132ad565b9150509250929050565b6000806040838503121561362a576136296130e4565b5b6000613638858286016132e3565b925050602083013567ffffffffffffffff811115613659576136586130e9565b5b61366585828601613549565b9150509250929050565b600060ff82169050919050565b6136858161366f565b82525050565b60006020820190506136a0600083018461367c565b92915050565b6000602082840312156136bc576136bb6130e4565b5b60006136ca848285016132e3565b91505092915050565b6000602082840312156136e9576136e86130e4565b5b60006136f7848285016132ad565b91505092915050565b600080600060608486031215613719576137186130e4565b5b6000613727868287016132ad565b9350506020613738868287016132e3565b9250506040613749868287016132e3565b9150509250925092565b6000806040838503121561376a576137696130e4565b5b6000613778858286016132e3565b9250506020613789858286016132ad565b9150509250929050565b600080600080600060a086880312156137af576137ae6130e4565b5b60006137bd888289016132e3565b95505060206137ce888289016132ad565b94505060406137df888289016132e3565b93505060606137f0888289016132ad565b9250506080613801888289016132e3565b9150509295509295909350565b600061381982613284565b9050919050565b6138298161380e565b811461383457600080fd5b50565b60008135905061384681613820565b92915050565b600060208284031215613862576138616130e4565b5b600061387084828501613837565b91505092915050565b6000819050919050565b600061389e61389961389484613264565b613879565b613264565b9050919050565b60006138b082613883565b9050919050565b60006138c2826138a5565b9050919050565b6138d2816138b7565b82525050565b60006020820190506138ed60008301846138c9565b92915050565b6138fc81613284565b82525050565b600060208201905061391760008301846138f3565b92915050565b6139268161366f565b811461393157600080fd5b50565b6000813590506139438161391d565b92915050565b600080600080600080600060e0888a031215613968576139676130e4565b5b60006139768a828b016132ad565b97505060206139878a828b016132ad565b96505060406139988a828b016132e3565b95505060606139a98a828b016132e3565b94505060806139ba8a828b01613934565b93505060a06139cb8a828b016133d6565b92505060c06139dc8a828b016133d6565b91505092959891949750929550565b60008060408385031215613a0257613a016130e4565b5b6000613a10858286016132ad565b9250506020613a21858286016132ad565b9150509250929050565b7f4e487b7100000000000000000000000000000000000000000000000000000000600052602260045260246000fd5b60006002820490506001821680613a7257607f821691505b602082108103613a8557613a84613a2b565b5b50919050565b600081519050919050565b600081905092915050565b6000613aac82613a8b565b613ab68185613a96565b9350613ac68185602086016131c5565b80840191505092915050565b6000613ade8284613aa1565b915081905092915050565b600082825260208201905092915050565b6000613b0582613a8b565b613b0f8185613ae9565b9350613b1f8185602086016131c5565b613b28816131f8565b840191505092915050565b60006060820190508181036000830152613b4d8186613afa565b9050613b5c6020830185613338565b613b69604083018461317f565b949350505050565b7f416363657373436f6e74726f6c3a2063616e206f6e6c792072656e6f756e636560008201527f20726f6c657320666f722073656c660000000000000000000000000000000000602082015250565b6000613bcd602f836131b4565b9150613bd882613b71565b604082019050919050565b60006020820190508181036000830152613bfc81613bc0565b9050919050565b7f4e487b7100000000000000000000000000000000000000000000000000000000600052601160045260246000fd5b6000613c3d826132c2565b9150613c48836132c2565b9250827fffffffffffffffffffffffffffffffffffffffffffffffffffffffffffffffff03821115613c7d57613c7c613c03565b5b828201905092915050565b6000604082019050613c9d60008301856138f3565b613caa6020830184613338565b9392505050565b6000819050919050565b613ccc613cc7826132c2565b613cb1565b82525050565b60008160601b9050919050565b6000613cea82613cd2565b9050919050565b6000613cfc82613cdf565b9050919050565b613d14613d0f82613284565b613cf1565b82525050565b6000613d268285613cbb565b602082019150613d368284613d03565b6014820191508190509392505050565b7f45524332303a2064656372656173656420616c6c6f77616e63652062656c6f7760008201527f207a65726f000000000000000000000000000000000000000000000000000000602082015250565b6000613da26025836131b4565b9150613dad82613d46565b604082019050919050565b60006020820190508181036000830152613dd181613d95565b9050919050565b7f5061757361626c653a2070617573656400000000000000000000000000000000600082015250565b6000613e0e6010836131b4565b9150613e1982613dd8565b602082019050919050565b60006020820190508181036000830152613e3d81613e01565b9050919050565b6000613e508284613d03565b60148201915081905092915050565b613e68816132c2565b82525050565b600082825260208201905092915050565b6000613e8a82613a8b565b613e948185613e6e565b9350613ea48185602086016131c5565b613ead816131f8565b840191505092915050565b6000608083016000830151613ed06000860182613e5f565b506020830151613ee36020860182613e5f565b5060408301518482036040860152613efb8282613e7f565b91505060608301518482036060860152613f158282613e7f565b9150508091505092915050565b60006020820190508181036000830152613f3c8184613eb8565b905092915050565b50565b6000613f54600083613ae9565b9150613f5f82613f44565b600082019050919050565b6000819050919050565b600063ffffffff82169050919050565b6000613f9f613f9a613f9584613f6a565b613879565b613f74565b9050919050565b613faf81613f84565b82525050565b600061010082019050613fcb600083018a6138f3565b613fd86020830189613338565b613fe56040830188613338565b8181036060830152613ff78187613afa565b9050818103608083015261400a81613f47565b905061401960a083018661317f565b61402660c0830185613fa6565b81810360e08301526140388184613afa565b905098975050505050505050565b600060a08201905061405b6000830188613418565b6140686020830187613418565b6140756040830186613418565b6140826060830185613338565b61408f60808301846138f3565b9695505050505050565b6000819050919050565b60006140be6140b96140b484614099565b613879565b61366f565b9050919050565b6140ce816140a3565b82525050565b60006020820190506140e960008301846140c5565b92915050565b7f59656c6c6f775061796d656e743a204558504952454400000000000000000000600082015250565b60006141256016836131b4565b9150614130826140ef565b602082019050919050565b6000602082019050818103600083015261415481614118565b9050919050565b6000614166826132c2565b91507fffffffffffffffffffffffffffffffffffffffffffffffffffffffffffffffff820361419857614197613c03565b5b600182019050919050565b600060c0820190506141b86000830189613418565b6141c560208301886138f3565b6141d260408301876138f3565b6141df6060830186613338565b6141ec6080830185613338565b6141f960a0830184613338565b979650505050505050565b600081905092915050565b7f1901000000000000000000000000000000000000000000000000000000000000600082015250565b6000614245600283614204565b91506142508261420f565b600282019050919050565b6000819050919050565b614276614271826133b5565b61425b565b82525050565b600061428782614238565b91506142938285614265565b6020820191506142a38284614265565b6020820191508190509392505050565b60006080820190506142c86000830187613418565b6142d5602083018661367c565b6142e26040830185613418565b6142ef6060830184613418565b95945050505050565b7f59656c6c6f775061796d656e743a20494e56414c49445f5349474e4154555245600082015250565b600061432e6020836131b4565b9150614339826142f8565b602082019050919050565b6000602082019050818103600083015261435d81614321565b9050919050565b7f45524332303a20617070726f76652066726f6d20746865207a65726f2061646460008201527f7265737300000000000000000000000000000000000000000000000000000000602082015250565b60006143c06024836131b4565b91506143cb82614364565b604082019050919050565b600060208201905081810360008301526143ef816143b3565b9050919050565b7f45524332303a20617070726f766520746f20746865207a65726f20616464726560008201527f7373000000000000000000000000000000000000000000000000000000000000602082015250565b60006144526022836131b4565b915061445d826143f6565b604082019050919050565b6000602082019050818103600083015261448181614445565b9050919050565b7f45524332303a20696e73756666696369656e7420616c6c6f77616e6365000000600082015250565b60006144be601d836131b4565b91506144c982614488565b602082019050919050565b600060208201905081810360008301526144ed816144b1565b9050919050565b7f45524332303a207472616e736665722066726f6d20746865207a65726f20616460008201527f6472657373000000000000000000000000000000000000000000000000000000602082015250565b60006145506025836131b4565b915061455b826144f4565b604082019050919050565b6000602082019050818103600083015261457f81614543565b9050919050565b7f45524332303a207472616e7366657220746f20746865207a65726f206164647260008201527f6573730000000000000000000000000000000000000000000000000000000000602082015250565b60006145e26023836131b4565b91506145ed82614586565b604082019050919050565b60006020820190508181036000830152614611816145d5565b9050919050565b7f45524332303a207472616e7366657220616d6f756e742065786365656473206260008201527f616c616e63650000000000000000000000000000000000000000000000000000602082015250565b60006146746026836131b4565b915061467f82614618565b604082019050919050565b600060208201905081810360008301526146a381614667565b9050919050565b7f5061757361626c653a206e6f7420706175736564000000000000000000000000600082015250565b60006146e06014836131b4565b91506146eb826146aa565b602082019050919050565b6000602082019050818103600083015261470f816146d3565b9050919050565b7f45524332303a206d696e7420746f20746865207a65726f206164647265737300600082015250565b600061474c601f836131b4565b915061475782614716565b602082019050919050565b6000602082019050818103600083015261477b8161473f565b9050919050565b7f45524332303a206275726e2066726f6d20746865207a65726f2061646472657360008201527f7300000000000000000000000000000000000000000000000000000000000000602082015250565b60006147de6021836131b4565b91506147e982614782565b604082019050919050565b6000602082019050818103600083015261480d816147d1565b9050919050565b7f45524332303a206275726e20616d6f756e7420657863656564732062616c616e60008201527f6365000000000000000000000000000000000000000000000000000000000000602082015250565b60006148706022836131b4565b915061487b82614814565b604082019050919050565b6000602082019050818103600083015261489f81614863565b9050919050565b60006148b1826132c2565b91506148bc836132c2565b9250828210156148cf576148ce613c03565b5b828203905092915050565b7f496e697469616c697a61626c653a20636f6e747261637420697320616c72656160008201527f647920696e697469616c697a6564000000000000000000000000000000000000602082015250565b6000614936602e836131b4565b9150614941826148da565b604082019050919050565b6000602082019050818103600083015261496581614929565b9050919050565b7f496e697469616c697a61626c653a20636f6e7472616374206973206e6f74206960008201527f6e697469616c697a696e67000000000000000000000000000000000000000000602082015250565b60006149c8602b836131b4565b91506149d38261496c565b604082019050919050565b600060208201905081810360008301526149f7816149bb565b9050919050565b7f416363657373436f6e74726f6c3a206163636f756e7420000000000000000000600082015250565b6000614a34601783614204565b9150614a3f826149fe565b601782019050919050565b6000614a55826131a9565b614a5f8185614204565b9350614a6f8185602086016131c5565b80840191505092915050565b7f206973206d697373696e6720726f6c6520000000000000000000000000000000600082015250565b6000614ab1601183614204565b9150614abc82614a7b565b601182019050919050565b6000614ad282614a27565b9150614ade8285614a4a565b9150614ae982614aa4565b9150614af58284614a4a565b91508190509392505050565b6000614b0c826132c2565b9150614b17836132c2565b9250817fffffffffffffffffffffffffffffffffffffffffffffffffffffffffffffffff0483118215151615614b5057614b4f613c03565b5b828202905092915050565b7f4e487b7100000000000000000000000000000000000000000000000000000000600052603260045260246000fd5b6000614b95826132c2565b915060008203614ba857614ba7613c03565b5b600182039050919050565b7f537472696e67733a20686578206c656e67746820696e73756666696369656e74600082015250565b6000614be96020836131b4565b9150614bf482614bb3565b602082019050919050565b60006020820190508181036000830152614c1881614bdc565b905091905056fea2646970667358221220c844d18e1d760826a5507c0a1b8156e2c23f8e2a822d9a650bb2082d153c8a3064736f6c634300080d0033",
  "linkReferences": {},
  "deployedLinkReferences": {}
}