{
  "_format": "hh-sol-artifact-1",
  "contractName": "Force",
  "sourceName": "contracts/Force.sol",
  "abi": [
    {
      "stateMutability": "payable",
      "type": "fallback"
    },
    {
      "inputs": [
        {
          "internalType": "address payable",
          "name": "addr",
          "type": "address"
        }
      ],
      "name": "attack",
      "outputs": [],
      "stateMutability": "payable",
      "type": "function"
    }
  ],
  "bytecode": "0x608060405234801561001057600080fd5b5061010d806100206000396000f3fe608060405260043610601f5760003560e01c8063d018db3e146022576020565b5b005b603860048036038101906034919060af565b603a565b005b8073ffffffffffffffffffffffffffffffffffffffff16ff5b600080fd5b600073ffffffffffffffffffffffffffffffffffffffff82169050919050565b60006081826058565b9050919050565b608f816078565b8114609957600080fd5b50565b60008135905060a9816088565b92915050565b60006020828403121560c25760c16053565b5b600060ce84828501609c565b9150509291505056fea264697066735822122048c5b58af74a2a868292375e783d35f0a15a85be4c81cd2422caa5eac74f2a6564736f6c634300080d0033",
  "linkReferences": {},
  "deployedLinkReferences": {}
}