{
  "_format": "hh-sol-artifact-1",
  "contractName": "CoinFlip",
  "sourceName": "contracts/CoinFlip.sol",
  "abi": [
    {
      "inputs": [],
      "stateMutability": "nonpayable",
      "type": "constructor"
    },
    {
      "inputs": [],
      "name": "consecutiveWins",
      "outputs": [
        {
          "internalType": "uint256",
          "name": "",
          "type": "uint256"
        }
      ],
      "stateMutability": "view",
      "type": "function"
    },
    {
      "inputs": [
        {
          "internalType": "bool",
          "name": "_guess",
          "type": "bool"
        }
      ],
      "name": "flip",
      "outputs": [
        {
          "internalType": "bool",
          "name": "",
          "type": "bool"
        }
      ],
      "stateMutability": "nonpayable",
      "type": "function"
    }
  ],
  "bytecode": "0x60806040527f800000000000000000000000000000000000000000000000000000000000000060025534801561003457600080fd5b50600080819055506103678061004b6000396000f3fe608060405234801561001057600080fd5b50600436106100365760003560e01c80631d263f671461003b578063e6f334d71461006b575b600080fd5b6100556004803603810190610050919061019b565b610089565b60405161006291906101d7565b60405180910390f35b61007361012c565b604051610080919061020b565b60405180910390f35b6000806100a060014361013290919063ffffffff16565b4060001c905080600154036100b457600080fd5b8060018190555060006100d26002548361014890919063ffffffff16565b90506000600182146100e55760006100e8565b60015b9050841515811515036101185760008081548092919061010790610255565b919050555060019350505050610127565b60008081905550600093505050505b919050565b60005481565b60008183610140919061029d565b905092915050565b600081836101569190610300565b905092915050565b600080fd5b60008115159050919050565b61017881610163565b811461018357600080fd5b50565b6000813590506101958161016f565b92915050565b6000602082840312156101b1576101b061015e565b5b60006101bf84828501610186565b91505092915050565b6101d181610163565b82525050565b60006020820190506101ec60008301846101c8565b92915050565b6000819050919050565b610205816101f2565b82525050565b600060208201905061022060008301846101fc565b92915050565b7f4e487b7100000000000000000000000000000000000000000000000000000000600052601160045260246000fd5b6000610260826101f2565b91507fffffffffffffffffffffffffffffffffffffffffffffffffffffffffffffffff820361029257610291610226565b5b600182019050919050565b60006102a8826101f2565b91506102b3836101f2565b9250828210156102c6576102c5610226565b5b828203905092915050565b7f4e487b7100000000000000000000000000000000000000000000000000000000600052601260045260246000fd5b600061030b826101f2565b9150610316836101f2565b925082610326576103256102d1565b5b82820490509291505056fea2646970667358221220ed661c11f4a137478a153a4e6570c91c75cf18706e7e3a5cd69054081430f9ad64736f6c634300080d0033",
  "linkReferences": {},
  "deployedLinkReferences": {}
}