{
  "_format": "hh-sol-artifact-1",
  "contractName": "ERC20",
  "sourceName": "contracts/TestTokenForBob.sol",
  "abi": [
    {
      "inputs": [
        {
          "internalType": "string",
          "name": "name_",
          "type": "string"
        },
        {
          "internalType": "string",
          "name": "symbol_",
          "type": "string"
        }
      ],
      "stateMutability": "nonpayable",
      "type": "constructor"
    },
    {
      "anonymous": false,
      "inputs": [
        {
          "indexed": true,
          "internalType": "address",
          "name": "owner",
          "type": "address"
        },
        {
          "indexed": true,
          "internalType": "address",
          "name": "spender",
          "type": "address"
        },
        {
          "indexed": false,
          "internalType": "uint256",
          "name": "value",
          "type": "uint256"
        }
      ],
      "name": "Approval",
      "type": "event"
    },
    {
      "anonymous": false,
      "inputs": [
        {
          "indexed": true,
          "internalType": "address",
          "name": "from",
          "type": "address"
        },
        {
          "indexed": true,
          "internalType": "address",
          "name": "to",
          "type": "address"
        },
        {
          "indexed": false,
          "internalType": "uint256",
          "name": "value",
          "type": "uint256"
        }
      ],
      "name": "Transfer",
      "type": "event"
    },
    {
      "inputs": [
        {
          "internalType": "address",
          "name": "owner",
          "type": "address"
        },
        {
          "internalType": "address",
          "name": "spender",
          "type": "address"
        }
      ],
      "name": "allowance",
      "outputs": [
        {
          "internalType": "uint256",
          "name": "",
          "type": "uint256"
        }
      ],
      "stateMutability": "view",
      "type": "function"
    },
    {
      "inputs": [
        {
          "internalType": "address",
          "name": "spender",
          "type": "address"
        },
        {
          "internalType": "uint256",
          "name": "amount",
          "type": "uint256"
        }
      ],
      "name": "approve",
      "outputs": [
        {
          "internalType": "bool",
          "name": "",
          "type": "bool"
        }
      ],
      "stateMutability": "nonpayable",
      "type": "function"
    },
    {
      "inputs": [
        {
          "internalType": "address",
          "name": "account",
          "type": "address"
        }
      ],
      "name": "balanceOf",
      "outputs": [
        {
          "internalType": "uint256",
          "name": "",
          "type": "uint256"
        }
      ],
      "stateMutability": "view",
      "type": "function"
    },
    {
      "inputs": [],
      "name": "decimals",
      "outputs": [
        {
          "internalType": "uint8",
          "name": "",
          "type": "uint8"
        }
      ],
      "stateMutability": "view",
      "type": "function"
    },
    {
      "inputs": [
        {
          "internalType": "address",
          "name": "spender",
          "type": "address"
        },
        {
          "internalType": "uint256",
          "name": "addedValue",
          "type": "uint256"
        }
      ],
      "name": "increaseAllowance",
      "outputs": [
        {
          "internalType": "bool",
          "name": "",
          "type": "bool"
        }
      ],
      "stateMutability": "nonpayable",
      "type": "function"
    },
    {
      "inputs": [],
      "name": "name",
      "outputs": [
        {
          "internalType": "string",
          "name": "",
          "type": "string"
        }
      ],
      "stateMutability": "view",
      "type": "function"
    },
    {
      "inputs": [],
      "name": "symbol",
      "outputs": [
        {
          "internalType": "string",
          "name": "",
          "type": "string"
        }
      ],
      "stateMutability": "view",
      "type": "function"
    },
    {
      "inputs": [],
      "name": "totalSupply",
      "outputs": [
        {
          "internalType": "uint256",
          "name": "",
          "type": "uint256"
        }
      ],
      "stateMutability": "view",
      "type": "function"
    },
    {
      "inputs": [
        {
          "internalType": "address",
          "name": "to",
          "type": "address"
        },
        {
          "internalType": "uint256",
          "name": "amount",
          "type": "uint256"
        }
      ],
      "name": "transfer",
      "outputs": [
        {
          "internalType": "bool",
          "name": "",
          "type": "bool"
        }
      ],
      "stateMutability": "nonpayable",
      "type": "function"
    },
    {
      "inputs": [
        {
          "internalType": "address",
          "name": "from",
          "type": "address"
        },
        {
          "internalType": "address",
          "name": "to",
          "type": "address"
        },
        {
          "internalType": "uint256",
          "name": "amount",
          "type": "uint256"
        }
      ],
      "name": "transferFrom",
      "outputs": [
        {
          "internalType": "bool",
          "name": "",
          "type": "bool"
        }
      ],
      "stateMutability": "nonpayable",
      "type": "function"
    }
  ],
  "bytecode": "0x60806040523480156200001157600080fd5b50604051620014b6380380620014b68339818101604052810190620000379190620002be565b81600390805190602001906200004f92919062000071565b5080600490805190602001906200006892919062000071565b505050620003a7565b8280546200007f9062000372565b90600052602060002090601f016020900481019282620000a35760008555620000ef565b82601f10620000be57805160ff1916838001178555620000ef565b82800160010185558215620000ef579182015b82811115620000ee578251825591602001919060010190620000d1565b5b509050620000fe919062000102565b5090565b5b808211156200011d57600081600090555060010162000103565b5090565b6000604051905090565b600080fd5b600080fd5b600080fd5b600080fd5b6000601f19601f8301169050919050565b7f4e487b7100000000000000000000000000000000000000000000000000000000600052604160045260246000fd5b6200018a826200013f565b810181811067ffffffffffffffff82111715620001ac57620001ab62000150565b5b80604052505050565b6000620001c162000121565b9050620001cf82826200017f565b919050565b600067ffffffffffffffff821115620001f257620001f162000150565b5b620001fd826200013f565b9050602081019050919050565b60005b838110156200022a5780820151818401526020810190506200020d565b838111156200023a576000848401525b50505050565b6000620002576200025184620001d4565b620001b5565b9050828152602081018484840111156200027657620002756200013a565b5b620002838482856200020a565b509392505050565b600082601f830112620002a357620002a262000135565b5b8151620002b584826020860162000240565b91505092915050565b60008060408385031215620002d857620002d76200012b565b5b600083015167ffffffffffffffff811115620002f957620002f862000130565b5b62000307858286016200028b565b925050602083015167ffffffffffffffff8111156200032b576200032a62000130565b5b62000339858286016200028b565b9150509250929050565b7f4e487b7100000000000000000000000000000000000000000000000000000000600052602260045260246000fd5b600060028204905060018216806200038b57607f821691505b602082108103620003a157620003a062000343565b5b50919050565b6110ff80620003b76000396000f3fe608060405234801561001057600080fd5b506004361061009e5760003560e01c80633950935111610066578063395093511461015d57806370a082311461018d57806395d89b41146101bd578063a9059cbb146101db578063dd62ed3e1461020b5761009e565b806306fdde03146100a3578063095ea7b3146100c157806318160ddd146100f157806323b872dd1461010f578063313ce5671461013f575b600080fd5b6100ab61023b565b6040516100b89190610a4c565b60405180910390f35b6100db60048036038101906100d69190610b07565b6102cd565b6040516100e89190610b62565b60405180910390f35b6100f96102f0565b6040516101069190610b8c565b60405180910390f35b61012960048036038101906101249190610ba7565b6102fa565b6040516101369190610b62565b60405180910390f35b610147610329565b6040516101549190610c16565b60405180910390f35b61017760048036038101906101729190610b07565b610332565b6040516101849190610b62565b60405180910390f35b6101a760048036038101906101a29190610c31565b610369565b6040516101b49190610b8c565b60405180910390f35b6101c56103b1565b6040516101d29190610a4c565b60405180910390f35b6101f560048036038101906101f09190610b07565b610443565b6040516102029190610b62565b60405180910390f35b61022560048036038101906102209190610c5e565b610466565b6040516102329190610b8c565b60405180910390f35b60606003805461024a90610ccd565b80601f016020809104026020016040519081016040528092919081815260200182805461027690610ccd565b80156102c35780601f10610298576101008083540402835291602001916102c3565b820191906000526020600020905b8154815290600101906020018083116102a657829003601f168201915b5050505050905090565b6000806102d86104ed565b90506102e58185856104f5565b600191505092915050565b6000600254905090565b6000806103056104ed565b90506103128582856106be565b61031d85858561074a565b60019150509392505050565b60006012905090565b60008061033d6104ed565b905061035e81858561034f8589610466565b6103599190610d2d565b6104f5565b600191505092915050565b60008060008373ffffffffffffffffffffffffffffffffffffffff1673ffffffffffffffffffffffffffffffffffffffff168152602001908152602001600020549050919050565b6060600480546103c090610ccd565b80601f01602080910402602001604051908101604052809291908181526020018280546103ec90610ccd565b80156104395780601f1061040e57610100808354040283529160200191610439565b820191906000526020600020905b81548152906001019060200180831161041c57829003601f168201915b5050505050905090565b60008061044e6104ed565b905061045b81858561074a565b600191505092915050565b6000600160008473ffffffffffffffffffffffffffffffffffffffff1673ffffffffffffffffffffffffffffffffffffffff16815260200190815260200160002060008373ffffffffffffffffffffffffffffffffffffffff1673ffffffffffffffffffffffffffffffffffffffff16815260200190815260200160002054905092915050565b600033905090565b600073ffffffffffffffffffffffffffffffffffffffff168373ffffffffffffffffffffffffffffffffffffffff1603610564576040517f08c379a000000000000000000000000000000000000000000000000000000000815260040161055b90610df5565b60405180910390fd5b600073ffffffffffffffffffffffffffffffffffffffff168273ffffffffffffffffffffffffffffffffffffffff16036105d3576040517f08c379a00000000000000000000000000000000000000000000000000000000081526004016105ca90610e87565b60405180910390fd5b80600160008573ffffffffffffffffffffffffffffffffffffffff1673ffffffffffffffffffffffffffffffffffffffff16815260200190815260200160002060008473ffffffffffffffffffffffffffffffffffffffff1673ffffffffffffffffffffffffffffffffffffffff168152602001908152602001600020819055508173ffffffffffffffffffffffffffffffffffffffff168373ffffffffffffffffffffffffffffffffffffffff167f8c5be1e5ebec7d5bd14f71427d1e84f3dd0314c0f7b2291e5b200ac8c7c3b925836040516106b19190610b8c565b60405180910390a3505050565b60006106ca8484610466565b90507fffffffffffffffffffffffffffffffffffffffffffffffffffffffffffffffff81146107445781811015610736576040517f08c379a000000000000000000000000000000000000000000000000000000000815260040161072d90610ef3565b60405180910390fd5b61074384848484036104f5565b5b50505050565b600073ffffffffffffffffffffffffffffffffffffffff168373ffffffffffffffffffffffffffffffffffffffff16036107b9576040517f08c379a00000000000000000000000000000000000000000000000000000000081526004016107b090610f85565b60405180910390fd5b600073ffffffffffffffffffffffffffffffffffffffff168273ffffffffffffffffffffffffffffffffffffffff1603610828576040517f08c379a000000000000000000000000000000000000000000000000000000000815260040161081f90611017565b60405180910390fd5b60008060008573ffffffffffffffffffffffffffffffffffffffff1673ffffffffffffffffffffffffffffffffffffffff168152602001908152602001600020549050818110156108ae576040517f08c379a00000000000000000000000000000000000000000000000000000000081526004016108a5906110a9565b60405180910390fd5b8181036000808673ffffffffffffffffffffffffffffffffffffffff1673ffffffffffffffffffffffffffffffffffffffff16815260200190815260200160002081905550816000808573ffffffffffffffffffffffffffffffffffffffff1673ffffffffffffffffffffffffffffffffffffffff16815260200190815260200160002060008282546109419190610d2d565b925050819055508273ffffffffffffffffffffffffffffffffffffffff168473ffffffffffffffffffffffffffffffffffffffff167fddf252ad1be2c89b69c2b068fc378daa952ba7f163c4a11628f55a4df523b3ef846040516109a59190610b8c565b60405180910390a350505050565b600081519050919050565b600082825260208201905092915050565b60005b838110156109ed5780820151818401526020810190506109d2565b838111156109fc576000848401525b50505050565b6000601f19601f8301169050919050565b6000610a1e826109b3565b610a2881856109be565b9350610a388185602086016109cf565b610a4181610a02565b840191505092915050565b60006020820190508181036000830152610a668184610a13565b905092915050565b600080fd5b600073ffffffffffffffffffffffffffffffffffffffff82169050919050565b6000610a9e82610a73565b9050919050565b610aae81610a93565b8114610ab957600080fd5b50565b600081359050610acb81610aa5565b92915050565b6000819050919050565b610ae481610ad1565b8114610aef57600080fd5b50565b600081359050610b0181610adb565b92915050565b60008060408385031215610b1e57610b1d610a6e565b5b6000610b2c85828601610abc565b9250506020610b3d85828601610af2565b9150509250929050565b60008115159050919050565b610b5c81610b47565b82525050565b6000602082019050610b776000830184610b53565b92915050565b610b8681610ad1565b82525050565b6000602082019050610ba16000830184610b7d565b92915050565b600080600060608486031215610bc057610bbf610a6e565b5b6000610bce86828701610abc565b9350506020610bdf86828701610abc565b9250506040610bf086828701610af2565b9150509250925092565b600060ff82169050919050565b610c1081610bfa565b82525050565b6000602082019050610c2b6000830184610c07565b92915050565b600060208284031215610c4757610c46610a6e565b5b6000610c5584828501610abc565b91505092915050565b60008060408385031215610c7557610c74610a6e565b5b6000610c8385828601610abc565b9250506020610c9485828601610abc565b9150509250929050565b7f4e487b7100000000000000000000000000000000000000000000000000000000600052602260045260246000fd5b60006002820490506001821680610ce557607f821691505b602082108103610cf857610cf7610c9e565b5b50919050565b7f4e487b7100000000000000000000000000000000000000000000000000000000600052601160045260246000fd5b6000610d3882610ad1565b9150610d4383610ad1565b9250827fffffffffffffffffffffffffffffffffffffffffffffffffffffffffffffffff03821115610d7857610d77610cfe565b5b828201905092915050565b7f45524332303a20617070726f76652066726f6d20746865207a65726f2061646460008201527f7265737300000000000000000000000000000000000000000000000000000000602082015250565b6000610ddf6024836109be565b9150610dea82610d83565b604082019050919050565b60006020820190508181036000830152610e0e81610dd2565b9050919050565b7f45524332303a20617070726f766520746f20746865207a65726f20616464726560008201527f7373000000000000000000000000000000000000000000000000000000000000602082015250565b6000610e716022836109be565b9150610e7c82610e15565b604082019050919050565b60006020820190508181036000830152610ea081610e64565b9050919050565b7f45524332303a20696e73756666696369656e7420616c6c6f77616e6365000000600082015250565b6000610edd601d836109be565b9150610ee882610ea7565b602082019050919050565b60006020820190508181036000830152610f0c81610ed0565b9050919050565b7f45524332303a207472616e736665722066726f6d20746865207a65726f20616460008201527f6472657373000000000000000000000000000000000000000000000000000000602082015250565b6000610f6f6025836109be565b9150610f7a82610f13565b604082019050919050565b60006020820190508181036000830152610f9e81610f62565b9050919050565b7f45524332303a207472616e7366657220746f20746865207a65726f206164647260008201527f6573730000000000000000000000000000000000000000000000000000000000602082015250565b60006110016023836109be565b915061100c82610fa5565b604082019050919050565b6000602082019050818103600083015261103081610ff4565b9050919050565b7f45524332303a207472616e7366657220616d6f756e742065786365656473206260008201527f616c616e63650000000000000000000000000000000000000000000000000000602082015250565b60006110936026836109be565b915061109e82611037565b604082019050919050565b600060208201905081810360008301526110c281611086565b905091905056fea2646970667358221220c3ba4f0e28ee8a7e94ea686054859bbe55a6c7b687faeb10d36f50c5e7df88f364736f6c634300080d0033",
  "linkReferences": {},
  "deployedLinkReferences": {}
}