{
  "_format": "hh-sol-artifact-1",
  "contractName": "TestTokenForBob",
  "sourceName": "contracts/TestTokenForBob.sol",
  "abi": [
    {
      "inputs": [],
      "stateMutability": "nonpayable",
      "type": "constructor"
    },
    {
      "anonymous": false,
      "inputs": [
        {
          "indexed": true,
          "internalType": "address",
          "name": "owner",
          "type": "address"
        },
        {
          "indexed": true,
          "internalType": "address",
          "name": "spender",
          "type": "address"
        },
        {
          "indexed": false,
          "internalType": "uint256",
          "name": "value",
          "type": "uint256"
        }
      ],
      "name": "Approval",
      "type": "event"
    },
    {
      "anonymous": false,
      "inputs": [
        {
          "indexed": true,
          "internalType": "address",
          "name": "previousOwner",
          "type": "address"
        },
        {
          "indexed": true,
          "internalType": "address",
          "name": "newOwner",
          "type": "address"
        }
      ],
      "name": "OwnershipTransferred",
      "type": "event"
    },
    {
      "anonymous": false,
      "inputs": [
        {
          "indexed": true,
          "internalType": "address",
          "name": "from",
          "type": "address"
        },
        {
          "indexed": true,
          "internalType": "address",
          "name": "to",
          "type": "address"
        },
        {
          "indexed": false,
          "internalType": "uint256",
          "name": "value",
          "type": "uint256"
        }
      ],
      "name": "Transfer",
      "type": "event"
    },
    {
      "inputs": [
        {
          "internalType": "address",
          "name": "owner",
          "type": "address"
        },
        {
          "internalType": "address",
          "name": "spender",
          "type": "address"
        }
      ],
      "name": "allowance",
      "outputs": [
        {
          "internalType": "uint256",
          "name": "",
          "type": "uint256"
        }
      ],
      "stateMutability": "view",
      "type": "function"
    },
    {
      "inputs": [
        {
          "internalType": "address",
          "name": "spender",
          "type": "address"
        },
        {
          "internalType": "uint256",
          "name": "amount",
          "type": "uint256"
        }
      ],
      "name": "approve",
      "outputs": [
        {
          "internalType": "bool",
          "name": "",
          "type": "bool"
        }
      ],
      "stateMutability": "nonpayable",
      "type": "function"
    },
    {
      "inputs": [
        {
          "internalType": "address",
          "name": "account",
          "type": "address"
        }
      ],
      "name": "balanceOf",
      "outputs": [
        {
          "internalType": "uint256",
          "name": "",
          "type": "uint256"
        }
      ],
      "stateMutability": "view",
      "type": "function"
    },
    {
      "inputs": [],
      "name": "decimals",
      "outputs": [
        {
          "internalType": "uint8",
          "name": "",
          "type": "uint8"
        }
      ],
      "stateMutability": "view",
      "type": "function"
    },
    {
      "inputs": [
        {
          "internalType": "address",
          "name": "spender",
          "type": "address"
        },
        {
          "internalType": "uint256",
          "name": "addedValue",
          "type": "uint256"
        }
      ],
      "name": "increaseAllowance",
      "outputs": [
        {
          "internalType": "bool",
          "name": "",
          "type": "bool"
        }
      ],
      "stateMutability": "nonpayable",
      "type": "function"
    },
    {
      "inputs": [
        {
          "internalType": "address",
          "name": "to",
          "type": "address"
        },
        {
          "internalType": "uint256",
          "name": "amount",
          "type": "uint256"
        }
      ],
      "name": "mint",
      "outputs": [],
      "stateMutability": "nonpayable",
      "type": "function"
    },
    {
      "inputs": [],
      "name": "name",
      "outputs": [
        {
          "internalType": "string",
          "name": "",
          "type": "string"
        }
      ],
      "stateMutability": "view",
      "type": "function"
    },
    {
      "inputs": [],
      "name": "owner",
      "outputs": [
        {
          "internalType": "address",
          "name": "",
          "type": "address"
        }
      ],
      "stateMutability": "view",
      "type": "function"
    },
    {
      "inputs": [],
      "name": "symbol",
      "outputs": [
        {
          "internalType": "string",
          "name": "",
          "type": "string"
        }
      ],
      "stateMutability": "view",
      "type": "function"
    },
    {
      "inputs": [],
      "name": "totalSupply",
      "outputs": [
        {
          "internalType": "uint256",
          "name": "",
          "type": "uint256"
        }
      ],
      "stateMutability": "view",
      "type": "function"
    },
    {
      "inputs": [
        {
          "internalType": "address",
          "name": "to",
          "type": "address"
        },
        {
          "internalType": "uint256",
          "name": "amount",
          "type": "uint256"
        }
      ],
      "name": "transfer",
      "outputs": [
        {
          "internalType": "bool",
          "name": "",
          "type": "bool"
        }
      ],
      "stateMutability": "nonpayable",
      "type": "function"
    },
    {
      "inputs": [
        {
          "internalType": "address",
          "name": "from",
          "type": "address"
        },
        {
          "internalType": "address",
          "name": "to",
          "type": "address"
        },
        {
          "internalType": "uint256",
          "name": "amount",
          "type": "uint256"
        }
      ],
      "name": "transferFrom",
      "outputs": [
        {
          "internalType": "bool",
          "name": "",
          "type": "bool"
        }
      ],
      "stateMutability": "nonpayable",
      "type": "function"
    },
    {
      "inputs": [
        {
          "internalType": "address",
          "name": "newOwner",
          "type": "address"
        }
      ],
      "name": "transferOwnership",
      "outputs": [],
      "stateMutability": "nonpayable",
      "type": "function"
    }
  ],
  "bytecode": "0x60806040523480156200001157600080fd5b506040518060400160405280600f81526020017f54657374546f6b656e466f72426f6200000000000000000000000000000000008152506040518060400160405280600481526020017f54424f420000000000000000000000000000000000000000000000000000000081525081600390805190602001906200009692919062000343565b508060049080519060200190620000af92919062000343565b505050620000d2620000c66200011c60201b60201c565b6200012460201b60201c565b6200011633620000e7620001ea60201b60201c565b600a620000f591906200058d565b670de0b6b3a76400006200010a9190620005de565b620001f360201b60201c565b620007b1565b600033905090565b6000600560009054906101000a900473ffffffffffffffffffffffffffffffffffffffff16905081600560006101000a81548173ffffffffffffffffffffffffffffffffffffffff021916908373ffffffffffffffffffffffffffffffffffffffff1602179055508173ffffffffffffffffffffffffffffffffffffffff168173ffffffffffffffffffffffffffffffffffffffff167f8be0079c531659141344cd1fd0a4f28419497f9722a3daafe3b4186f6b6457e060405160405180910390a35050565b60006012905090565b600073ffffffffffffffffffffffffffffffffffffffff168273ffffffffffffffffffffffffffffffffffffffff160362000265576040517f08c379a00000000000000000000000000000000000000000000000000000000081526004016200025c90620006a0565b60405180910390fd5b8060026000828254620002799190620006c2565b92505081905550806000808473ffffffffffffffffffffffffffffffffffffffff1673ffffffffffffffffffffffffffffffffffffffff1681526020019081526020016000206000828254620002d09190620006c2565b925050819055508173ffffffffffffffffffffffffffffffffffffffff16600073ffffffffffffffffffffffffffffffffffffffff167fddf252ad1be2c89b69c2b068fc378daa952ba7f163c4a11628f55a4df523b3ef8360405162000337919062000730565b60405180910390a35050565b82805462000351906200077c565b90600052602060002090601f016020900481019282620003755760008555620003c1565b82601f106200039057805160ff1916838001178555620003c1565b82800160010185558215620003c1579182015b82811115620003c0578251825591602001919060010190620003a3565b5b509050620003d09190620003d4565b5090565b5b80821115620003ef576000816000905550600101620003d5565b5090565b7f4e487b7100000000000000000000000000000000000000000000000000000000600052601160045260246000fd5b60008160011c9050919050565b6000808291508390505b60018511156200048157808604811115620004595762000458620003f3565b5b6001851615620004695780820291505b8081029050620004798562000422565b945062000439565b94509492505050565b6000826200049c57600190506200056f565b81620004ac57600090506200056f565b8160018114620004c55760028114620004d05762000506565b60019150506200056f565b60ff841115620004e557620004e4620003f3565b5b8360020a915084821115620004ff57620004fe620003f3565b5b506200056f565b5060208310610133831016604e8410600b8410161715620005405782820a9050838111156200053a5762000539620003f3565b5b6200056f565b6200054f84848460016200042f565b92509050818404811115620005695762000568620003f3565b5b81810290505b9392505050565b6000819050919050565b600060ff82169050919050565b60006200059a8262000576565b9150620005a78362000580565b9250620005d67fffffffffffffffffffffffffffffffffffffffffffffffffffffffffffffffff84846200048a565b905092915050565b6000620005eb8262000576565b9150620005f88362000576565b9250817fffffffffffffffffffffffffffffffffffffffffffffffffffffffffffffffff0483118215151615620006345762000633620003f3565b5b828202905092915050565b600082825260208201905092915050565b7f45524332303a206d696e7420746f20746865207a65726f206164647265737300600082015250565b600062000688601f836200063f565b9150620006958262000650565b602082019050919050565b60006020820190508181036000830152620006bb8162000679565b9050919050565b6000620006cf8262000576565b9150620006dc8362000576565b9250827fffffffffffffffffffffffffffffffffffffffffffffffffffffffffffffffff03821115620007145762000713620003f3565b5b828201905092915050565b6200072a8162000576565b82525050565b60006020820190506200074760008301846200071f565b92915050565b7f4e487b7100000000000000000000000000000000000000000000000000000000600052602260045260246000fd5b600060028204905060018216806200079557607f821691505b602082108103620007ab57620007aa6200074d565b5b50919050565b6116d280620007c16000396000f3fe608060405234801561001057600080fd5b50600436106100cf5760003560e01c806340c10f191161008c57806395d89b411161006657806395d89b4114610228578063a9059cbb14610246578063dd62ed3e14610276578063f2fde38b146102a6576100cf565b806340c10f19146101be57806370a08231146101da5780638da5cb5b1461020a576100cf565b806306fdde03146100d4578063095ea7b3146100f257806318160ddd1461012257806323b872dd14610140578063313ce56714610170578063395093511461018e575b600080fd5b6100dc6102c2565b6040516100e99190610e8b565b60405180910390f35b61010c60048036038101906101079190610f46565b610354565b6040516101199190610fa1565b60405180910390f35b61012a610377565b6040516101379190610fcb565b60405180910390f35b61015a60048036038101906101559190610fe6565b610381565b6040516101679190610fa1565b60405180910390f35b6101786103b0565b6040516101859190611055565b60405180910390f35b6101a860048036038101906101a39190610f46565b6103b9565b6040516101b59190610fa1565b60405180910390f35b6101d860048036038101906101d39190610f46565b6103f0565b005b6101f460048036038101906101ef9190611070565b61047a565b6040516102019190610fcb565b60405180910390f35b6102126104c2565b60405161021f91906110ac565b60405180910390f35b6102306104ec565b60405161023d9190610e8b565b60405180910390f35b610260600480360381019061025b9190610f46565b61057e565b60405161026d9190610fa1565b60405180910390f35b610290600480360381019061028b91906110c7565b6105a1565b60405161029d9190610fcb565b60405180910390f35b6102c060048036038101906102bb9190611070565b610628565b005b6060600380546102d190611136565b80601f01602080910402602001604051908101604052809291908181526020018280546102fd90611136565b801561034a5780601f1061031f5761010080835404028352916020019161034a565b820191906000526020600020905b81548152906001019060200180831161032d57829003601f168201915b5050505050905090565b60008061035f61071f565b905061036c818585610727565b600191505092915050565b6000600254905090565b60008061038c61071f565b90506103998582856108f0565b6103a485858561097c565b60019150509392505050565b60006012905090565b6000806103c461071f565b90506103e58185856103d685896105a1565b6103e09190611196565b610727565b600191505092915050565b6103f861071f565b73ffffffffffffffffffffffffffffffffffffffff166104166104c2565b73ffffffffffffffffffffffffffffffffffffffff161461046c576040517f08c379a000000000000000000000000000000000000000000000000000000000815260040161046390611238565b60405180910390fd5b6104768282610be5565b5050565b60008060008373ffffffffffffffffffffffffffffffffffffffff1673ffffffffffffffffffffffffffffffffffffffff168152602001908152602001600020549050919050565b6000600560009054906101000a900473ffffffffffffffffffffffffffffffffffffffff16905090565b6060600480546104fb90611136565b80601f016020809104026020016040519081016040528092919081815260200182805461052790611136565b80156105745780601f1061054957610100808354040283529160200191610574565b820191906000526020600020905b81548152906001019060200180831161055757829003601f168201915b5050505050905090565b60008061058961071f565b905061059681858561097c565b600191505092915050565b6000600160008473ffffffffffffffffffffffffffffffffffffffff1673ffffffffffffffffffffffffffffffffffffffff16815260200190815260200160002060008373ffffffffffffffffffffffffffffffffffffffff1673ffffffffffffffffffffffffffffffffffffffff16815260200190815260200160002054905092915050565b61063061071f565b73ffffffffffffffffffffffffffffffffffffffff1661064e6104c2565b73ffffffffffffffffffffffffffffffffffffffff16146106a4576040517f08c379a000000000000000000000000000000000000000000000000000000000815260040161069b90611238565b60405180910390fd5b600073ffffffffffffffffffffffffffffffffffffffff168173ffffffffffffffffffffffffffffffffffffffff1603610713576040517f08c379a000000000000000000000000000000000000000000000000000000000815260040161070a906112ca565b60405180910390fd5b61071c81610d2c565b50565b600033905090565b600073ffffffffffffffffffffffffffffffffffffffff168373ffffffffffffffffffffffffffffffffffffffff1603610796576040517f08c379a000000000000000000000000000000000000000000000000000000000815260040161078d9061135c565b60405180910390fd5b600073ffffffffffffffffffffffffffffffffffffffff168273ffffffffffffffffffffffffffffffffffffffff1603610805576040517f08c379a00000000000000000000000000000000000000000000000000000000081526004016107fc906113ee565b60405180910390fd5b80600160008573ffffffffffffffffffffffffffffffffffffffff1673ffffffffffffffffffffffffffffffffffffffff16815260200190815260200160002060008473ffffffffffffffffffffffffffffffffffffffff1673ffffffffffffffffffffffffffffffffffffffff168152602001908152602001600020819055508173ffffffffffffffffffffffffffffffffffffffff168373ffffffffffffffffffffffffffffffffffffffff167f8c5be1e5ebec7d5bd14f71427d1e84f3dd0314c0f7b2291e5b200ac8c7c3b925836040516108e39190610fcb565b60405180910390a3505050565b60006108fc84846105a1565b90507fffffffffffffffffffffffffffffffffffffffffffffffffffffffffffffffff81146109765781811015610968576040517f08c379a000000000000000000000000000000000000000000000000000000000815260040161095f9061145a565b60405180910390fd5b6109758484848403610727565b5b50505050565b600073ffffffffffffffffffffffffffffffffffffffff168373ffffffffffffffffffffffffffffffffffffffff16036109eb576040517f08c379a00000000000000000000000000000000000000000000000000000000081526004016109e2906114ec565b60405180910390fd5b600073ffffffffffffffffffffffffffffffffffffffff168273ffffffffffffffffffffffffffffffffffffffff1603610a5a576040517f08c379a0000000000000000000000000000000000000000000000000000000008152600401610a519061157e565b60405180910390fd5b60008060008573ffffffffffffffffffffffffffffffffffffffff1673ffffffffffffffffffffffffffffffffffffffff16815260200190815260200160002054905081811015610ae0576040517f08c379a0000000000000000000000000000000000000000000000000000000008152600401610ad790611610565b60405180910390fd5b8181036000808673ffffffffffffffffffffffffffffffffffffffff1673ffffffffffffffffffffffffffffffffffffffff16815260200190815260200160002081905550816000808573ffffffffffffffffffffffffffffffffffffffff1673ffffffffffffffffffffffffffffffffffffffff1681526020019081526020016000206000828254610b739190611196565b925050819055508273ffffffffffffffffffffffffffffffffffffffff168473ffffffffffffffffffffffffffffffffffffffff167fddf252ad1be2c89b69c2b068fc378daa952ba7f163c4a11628f55a4df523b3ef84604051610bd79190610fcb565b60405180910390a350505050565b600073ffffffffffffffffffffffffffffffffffffffff168273ffffffffffffffffffffffffffffffffffffffff1603610c54576040517f08c379a0000000000000000000000000000000000000000000000000000000008152600401610c4b9061167c565b60405180910390fd5b8060026000828254610c669190611196565b92505081905550806000808473ffffffffffffffffffffffffffffffffffffffff1673ffffffffffffffffffffffffffffffffffffffff1681526020019081526020016000206000828254610cbb9190611196565b925050819055508173ffffffffffffffffffffffffffffffffffffffff16600073ffffffffffffffffffffffffffffffffffffffff167fddf252ad1be2c89b69c2b068fc378daa952ba7f163c4a11628f55a4df523b3ef83604051610d209190610fcb565b60405180910390a35050565b6000600560009054906101000a900473ffffffffffffffffffffffffffffffffffffffff16905081600560006101000a81548173ffffffffffffffffffffffffffffffffffffffff021916908373ffffffffffffffffffffffffffffffffffffffff1602179055508173ffffffffffffffffffffffffffffffffffffffff168173ffffffffffffffffffffffffffffffffffffffff167f8be0079c531659141344cd1fd0a4f28419497f9722a3daafe3b4186f6b6457e060405160405180910390a35050565b600081519050919050565b600082825260208201905092915050565b60005b83811015610e2c578082015181840152602081019050610e11565b83811115610e3b576000848401525b50505050565b6000601f19601f8301169050919050565b6000610e5d82610df2565b610e678185610dfd565b9350610e77818560208601610e0e565b610e8081610e41565b840191505092915050565b60006020820190508181036000830152610ea58184610e52565b905092915050565b600080fd5b600073ffffffffffffffffffffffffffffffffffffffff82169050919050565b6000610edd82610eb2565b9050919050565b610eed81610ed2565b8114610ef857600080fd5b50565b600081359050610f0a81610ee4565b92915050565b6000819050919050565b610f2381610f10565b8114610f2e57600080fd5b50565b600081359050610f4081610f1a565b92915050565b60008060408385031215610f5d57610f5c610ead565b5b6000610f6b85828601610efb565b9250506020610f7c85828601610f31565b9150509250929050565b60008115159050919050565b610f9b81610f86565b82525050565b6000602082019050610fb66000830184610f92565b92915050565b610fc581610f10565b82525050565b6000602082019050610fe06000830184610fbc565b92915050565b600080600060608486031215610fff57610ffe610ead565b5b600061100d86828701610efb565b935050602061101e86828701610efb565b925050604061102f86828701610f31565b9150509250925092565b600060ff82169050919050565b61104f81611039565b82525050565b600060208201905061106a6000830184611046565b92915050565b60006020828403121561108657611085610ead565b5b600061109484828501610efb565b91505092915050565b6110a681610ed2565b82525050565b60006020820190506110c1600083018461109d565b92915050565b600080604083850312156110de576110dd610ead565b5b60006110ec85828601610efb565b92505060206110fd85828601610efb565b9150509250929050565b7f4e487b7100000000000000000000000000000000000000000000000000000000600052602260045260246000fd5b6000600282049050600182168061114e57607f821691505b60208210810361116157611160611107565b5b50919050565b7f4e487b7100000000000000000000000000000000000000000000000000000000600052601160045260246000fd5b60006111a182610f10565b91506111ac83610f10565b9250827fffffffffffffffffffffffffffffffffffffffffffffffffffffffffffffffff038211156111e1576111e0611167565b5b828201905092915050565b7f4f776e61626c653a2063616c6c6572206973206e6f7420746865206f776e6572600082015250565b6000611222602083610dfd565b915061122d826111ec565b602082019050919050565b6000602082019050818103600083015261125181611215565b9050919050565b7f4f776e61626c653a206e6577206f776e657220697320746865207a65726f206160008201527f6464726573730000000000000000000000000000000000000000000000000000602082015250565b60006112b4602683610dfd565b91506112bf82611258565b604082019050919050565b600060208201905081810360008301526112e3816112a7565b9050919050565b7f45524332303a20617070726f76652066726f6d20746865207a65726f2061646460008201527f7265737300000000000000000000000000000000000000000000000000000000602082015250565b6000611346602483610dfd565b9150611351826112ea565b604082019050919050565b6000602082019050818103600083015261137581611339565b9050919050565b7f45524332303a20617070726f766520746f20746865207a65726f20616464726560008201527f7373000000000000000000000000000000000000000000000000000000000000602082015250565b60006113d8602283610dfd565b91506113e38261137c565b604082019050919050565b60006020820190508181036000830152611407816113cb565b9050919050565b7f45524332303a20696e73756666696369656e7420616c6c6f77616e6365000000600082015250565b6000611444601d83610dfd565b915061144f8261140e565b602082019050919050565b6000602082019050818103600083015261147381611437565b9050919050565b7f45524332303a207472616e736665722066726f6d20746865207a65726f20616460008201527f6472657373000000000000000000000000000000000000000000000000000000602082015250565b60006114d6602583610dfd565b91506114e18261147a565b604082019050919050565b60006020820190508181036000830152611505816114c9565b9050919050565b7f45524332303a207472616e7366657220746f20746865207a65726f206164647260008201527f6573730000000000000000000000000000000000000000000000000000000000602082015250565b6000611568602383610dfd565b91506115738261150c565b604082019050919050565b600060208201905081810360008301526115978161155b565b9050919050565b7f45524332303a207472616e7366657220616d6f756e742065786365656473206260008201527f616c616e63650000000000000000000000000000000000000000000000000000602082015250565b60006115fa602683610dfd565b91506116058261159e565b604082019050919050565b60006020820190508181036000830152611629816115ed565b9050919050565b7f45524332303a206d696e7420746f20746865207a65726f206164647265737300600082015250565b6000611666601f83610dfd565b915061167182611630565b602082019050919050565b6000602082019050818103600083015261169581611659565b905091905056fea2646970667358221220fd2bc0e94370c9b01a6b0280e7c077dc2440311fecfb9fb7a52fb335575f0bd564736f6c634300080d0033",
  "linkReferences": {},
  "deployedLinkReferences": {}
}