{
  "_format": "hh-sol-artifact-1",
  "contractName": "Calculator",
  "sourceName": "contracts/DCall.sol",
  "abi": [
    {
      "anonymous": false,
      "inputs": [
        {
          "indexed": false,
          "internalType": "uint256",
          "name": "a",
          "type": "uint256"
        },
        {
          "indexed": false,
          "internalType": "uint256",
          "name": "b",
          "type": "uint256"
        }
      ],
      "name": "Add",
      "type": "event"
    },
    {
      "inputs": [
        {
          "internalType": "uint256",
          "name": "a",
          "type": "uint256"
        },
        {
          "internalType": "uint256",
          "name": "b",
          "type": "uint256"
        }
      ],
      "name": "add",
      "outputs": [
        {
          "internalType": "uint256",
          "name": "",
          "type": "uint256"
        }
      ],
      "stateMutability": "nonpayable",
      "type": "function"
    },
    {
      "inputs": [],
      "name": "calculateResult",
      "outputs": [
        {
          "internalType": "uint256",
          "name": "",
          "type": "uint256"
        }
      ],
      "stateMutability": "view",
      "type": "function"
    },
    {
      "inputs": [],
      "name": "user",
      "outputs": [
        {
          "internalType": "address",
          "name": "",
          "type": "address"
        }
      ],
      "stateMutability": "view",
      "type": "function"
    }
  ],
  "bytecode": "0x608060405234801561001057600080fd5b5061039e806100206000396000f3fe608060405234801561001057600080fd5b50600436106100415760003560e01c80634f8632ba146100465780636e008b3514610064578063771602f714610082575b600080fd5b61004e6100b2565b60405161005b91906101cb565b60405180910390f35b61006c6100d8565b60405161007991906101ff565b60405180910390f35b61009c6004803603810190610097919061024b565b6100de565b6040516100a991906101ff565b60405180910390f35b600160009054906101000a900473ffffffffffffffffffffffffffffffffffffffff1681565b60005481565b600081836100ec91906102ba565b60008190555082600054101561010557610104610310565b5b7f7afbe4f1c55b5f72ea356f5b4d5615831867af31454a5ca5557f315e6d11a369838360405161013692919061033f565b60405180910390a133600160006101000a81548173ffffffffffffffffffffffffffffffffffffffff021916908373ffffffffffffffffffffffffffffffffffffffff160217905550600054905092915050565b600073ffffffffffffffffffffffffffffffffffffffff82169050919050565b60006101b58261018a565b9050919050565b6101c5816101aa565b82525050565b60006020820190506101e060008301846101bc565b92915050565b6000819050919050565b6101f9816101e6565b82525050565b600060208201905061021460008301846101f0565b92915050565b600080fd5b610228816101e6565b811461023357600080fd5b50565b6000813590506102458161021f565b92915050565b600080604083850312156102625761026161021a565b5b600061027085828601610236565b925050602061028185828601610236565b9150509250929050565b7f4e487b7100000000000000000000000000000000000000000000000000000000600052601160045260246000fd5b60006102c5826101e6565b91506102d0836101e6565b9250827fffffffffffffffffffffffffffffffffffffffffffffffffffffffffffffffff038211156103055761030461028b565b5b828201905092915050565b7f4e487b7100000000000000000000000000000000000000000000000000000000600052600160045260246000fd5b600060408201905061035460008301856101f0565b61036160208301846101f0565b939250505056fea2646970667358221220983eb5b9eb48d637d1f7a0f77cbb58ecdf48f7b01862ab1e661e91a20964118064736f6c634300080d0033",
  "linkReferences": {},
  "deployedLinkReferences": {}
}