{
  "_format": "hh-sol-artifact-1",
  "contractName": "Machine",
  "sourceName": "contracts/DCall.sol",
  "abi": [
    {
      "inputs": [
        {
          "internalType": "contract Storage",
          "name": "addr",
          "type": "address"
        }
      ],
      "stateMutability": "nonpayable",
      "type": "constructor"
    },
    {
      "anonymous": false,
      "inputs": [
        {
          "indexed": false,
          "internalType": "uint256",
          "name": "a",
          "type": "uint256"
        },
        {
          "indexed": false,
          "internalType": "uint256",
          "name": "b",
          "type": "uint256"
        },
        {
          "indexed": false,
          "internalType": "bool",
          "name": "success",
          "type": "bool"
        }
      ],
      "name": "AddedValuesByCall",
      "type": "event"
    },
    {
      "anonymous": false,
      "inputs": [
        {
          "indexed": false,
          "internalType": "uint256",
          "name": "a",
          "type": "uint256"
        },
        {
          "indexed": false,
          "internalType": "uint256",
          "name": "b",
          "type": "uint256"
        },
        {
          "indexed": false,
          "internalType": "bool",
          "name": "success",
          "type": "bool"
        }
      ],
      "name": "AddedValuesByDelegateCall",
      "type": "event"
    },
    {
      "inputs": [
        {
          "internalType": "address",
          "name": "calculator",
          "type": "address"
        },
        {
          "internalType": "uint256",
          "name": "a",
          "type": "uint256"
        },
        {
          "internalType": "uint256",
          "name": "b",
          "type": "uint256"
        }
      ],
      "name": "addValuesWithCall",
      "outputs": [
        {
          "internalType": "uint256",
          "name": "",
          "type": "uint256"
        }
      ],
      "stateMutability": "nonpayable",
      "type": "function"
    },
    {
      "inputs": [
        {
          "internalType": "address",
          "name": "calculator",
          "type": "address"
        },
        {
          "internalType": "uint256",
          "name": "a",
          "type": "uint256"
        },
        {
          "internalType": "uint256",
          "name": "b",
          "type": "uint256"
        }
      ],
      "name": "addValuesWithDelegateCall",
      "outputs": [
        {
          "internalType": "uint256",
          "name": "",
          "type": "uint256"
        }
      ],
      "stateMutability": "nonpayable",
      "type": "function"
    },
    {
      "inputs": [],
      "name": "calculateResult",
      "outputs": [
        {
          "internalType": "uint256",
          "name": "",
          "type": "uint256"
        }
      ],
      "stateMutability": "view",
      "type": "function"
    },
    {
      "inputs": [],
      "name": "getValue",
      "outputs": [
        {
          "internalType": "uint256",
          "name": "",
          "type": "uint256"
        }
      ],
      "stateMutability": "view",
      "type": "function"
    },
    {
      "inputs": [],
      "name": "s",
      "outputs": [
        {
          "internalType": "contract Storage",
          "name": "",
          "type": "address"
        }
      ],
      "stateMutability": "view",
      "type": "function"
    },
    {
      "inputs": [
        {
          "internalType": "uint256",
          "name": "x",
          "type": "uint256"
        }
      ],
      "name": "saveValue",
      "outputs": [
        {
          "internalType": "bool",
          "name": "",
          "type": "bool"
        }
      ],
      "stateMutability": "nonpayable",
      "type": "function"
    },
    {
      "inputs": [],
      "name": "user",
      "outputs": [
        {
          "internalType": "address",
          "name": "",
          "type": "address"
        }
      ],
      "stateMutability": "view",
      "type": "function"
    }
  ],
  "bytecode": "0x608060405234801561001057600080fd5b50604051610a71380380610a71833981810160405281019061003291906100f5565b806000806101000a81548173ffffffffffffffffffffffffffffffffffffffff021916908373ffffffffffffffffffffffffffffffffffffffff160217905550600060018190555050610122565b600080fd5b600073ffffffffffffffffffffffffffffffffffffffff82169050919050565b60006100b082610085565b9050919050565b60006100c2826100a5565b9050919050565b6100d2816100b7565b81146100dd57600080fd5b50565b6000815190506100ef816100c9565b92915050565b60006020828403121561010b5761010a610080565b5b6000610119848285016100e0565b91505092915050565b610940806101316000396000f3fe608060405234801561001057600080fd5b506004361061007d5760003560e01c806386b714e21161005b57806386b714e2146100dc5780639b7e450c146100fa578063c14731ca1461012a578063f98f34d81461015a5761007d565b806320965255146100825780634f8632ba146100a05780636e008b35146100be575b600080fd5b61008a61018a565b60405161009791906105d3565b60405180910390f35b6100a8610221565b6040516100b5919061062f565b60405180910390f35b6100c6610247565b6040516100d391906105d3565b60405180910390f35b6100e461024d565b6040516100f191906106a9565b60405180910390f35b610114600480360381019061010f9190610721565b610271565b60405161012191906105d3565b60405180910390f35b610144600480360381019061013f9190610774565b6103c9565b60405161015191906107bc565b60405180910390f35b610174600480360381019061016f9190610721565b610460565b60405161018191906105d3565b60405180910390f35b60008060009054906101000a900473ffffffffffffffffffffffffffffffffffffffff1673ffffffffffffffffffffffffffffffffffffffff16633c6bb4366040518163ffffffff1660e01b8152600401602060405180830381865afa1580156101f8573d6000803e3d6000fd5b505050506040513d601f19601f8201168201806040525081019061021c91906107ec565b905090565b600260009054906101000a900473ffffffffffffffffffffffffffffffffffffffff1681565b60015481565b60008054906101000a900473ffffffffffffffffffffffffffffffffffffffff1681565b60008060008573ffffffffffffffffffffffffffffffffffffffff1685856040516024016102a0929190610819565b6040516020818303038152906040527f771602f7000000000000000000000000000000000000000000000000000000007bffffffffffffffffffffffffffffffffffffffffffffffffffffffff19166020820180517bffffffffffffffffffffffffffffffffffffffffffffffffffffffff838183161783525050505060405161032a91906108bc565b600060405180830381855af49150503d8060008114610365576040519150601f19603f3d011682016040523d82523d6000602084013e61036a565b606091505b50915091507fb3cc7c40ae5fe031ec021a55a5c5cbddcb0837657bfaa8e8249801f67f7296458585846040516103a2939291906108d3565b60405180910390a1808060200190518101906103be91906107ec565b925050509392505050565b60008060009054906101000a900473ffffffffffffffffffffffffffffffffffffffff1673ffffffffffffffffffffffffffffffffffffffff166355241077836040518263ffffffff1660e01b815260040161042591906105d3565b600060405180830381600087803b15801561043f57600080fd5b505af1158015610453573d6000803e3d6000fd5b5050505060019050919050565b60008060008573ffffffffffffffffffffffffffffffffffffffff16858560405160240161048f929190610819565b6040516020818303038152906040527f771602f7000000000000000000000000000000000000000000000000000000007bffffffffffffffffffffffffffffffffffffffffffffffffffffffff19166020820180517bffffffffffffffffffffffffffffffffffffffffffffffffffffffff838183161783525050505060405161051991906108bc565b6000604051808303816000865af19150503d8060008114610556576040519150601f19603f3d011682016040523d82523d6000602084013e61055b565b606091505b50915091507f81f50033f40bab548b88ccfd816202734d9325c0718e0395b473afe5454d599e858584604051610593939291906108d3565b60405180910390a1808060200190518101906105af91906107ec565b925050509392505050565b6000819050919050565b6105cd816105ba565b82525050565b60006020820190506105e860008301846105c4565b92915050565b600073ffffffffffffffffffffffffffffffffffffffff82169050919050565b6000610619826105ee565b9050919050565b6106298161060e565b82525050565b60006020820190506106446000830184610620565b92915050565b6000819050919050565b600061066f61066a610665846105ee565b61064a565b6105ee565b9050919050565b600061068182610654565b9050919050565b600061069382610676565b9050919050565b6106a381610688565b82525050565b60006020820190506106be600083018461069a565b92915050565b600080fd5b6106d28161060e565b81146106dd57600080fd5b50565b6000813590506106ef816106c9565b92915050565b6106fe816105ba565b811461070957600080fd5b50565b60008135905061071b816106f5565b92915050565b60008060006060848603121561073a576107396106c4565b5b6000610748868287016106e0565b93505060206107598682870161070c565b925050604061076a8682870161070c565b9150509250925092565b60006020828403121561078a576107896106c4565b5b60006107988482850161070c565b91505092915050565b60008115159050919050565b6107b6816107a1565b82525050565b60006020820190506107d160008301846107ad565b92915050565b6000815190506107e6816106f5565b92915050565b600060208284031215610802576108016106c4565b5b6000610810848285016107d7565b91505092915050565b600060408201905061082e60008301856105c4565b61083b60208301846105c4565b9392505050565b600081519050919050565b600081905092915050565b60005b8381101561087657808201518184015260208101905061085b565b83811115610885576000848401525b50505050565b600061089682610842565b6108a0818561084d565b93506108b0818560208601610858565b80840191505092915050565b60006108c8828461088b565b915081905092915050565b60006060820190506108e860008301866105c4565b6108f560208301856105c4565b61090260408301846107ad565b94935050505056fea2646970667358221220cee9380d76183e48c722b04a12826f17a15c35bdced1a808f85d3f9e0b6efe9164736f6c634300080d0033",
  "linkReferences": {},
  "deployedLinkReferences": {}
}