{
  "_format": "hh-sol-artifact-1",
  "contractName": "CoinFlipBooster",
  "sourceName": "contracts/CoinFlipBooster.sol",
  "abi": [
    {
      "inputs": [
        {
          "internalType": "address",
          "name": "_coinFlip",
          "type": "address"
        }
      ],
      "stateMutability": "nonpayable",
      "type": "constructor"
    },
    {
      "inputs": [],
      "name": "flip",
      "outputs": [
        {
          "internalType": "bool",
          "name": "",
          "type": "bool"
        }
      ],
      "stateMutability": "nonpayable",
      "type": "function"
    }
  ],
  "bytecode": "0x60806040527f800000000000000000000000000000000000000000000000000000000000000060015534801561003457600080fd5b50604051610451380380610451833981810160405281019061005691906100ff565b806000806101000a81548173ffffffffffffffffffffffffffffffffffffffff021916908373ffffffffffffffffffffffffffffffffffffffff1602179055505061012c565b600080fd5b600073ffffffffffffffffffffffffffffffffffffffff82169050919050565b60006100cc826100a1565b9050919050565b6100dc816100c1565b81146100e757600080fd5b50565b6000815190506100f9816100d3565b92915050565b6000602082840312156101155761011461009c565b5b6000610123848285016100ea565b91505092915050565b6103168061013b6000396000f3fe608060405234801561001057600080fd5b506004361061002b5760003560e01c8063cde4efa914610030575b600080fd5b61003861004e565b604051610045919061019a565b60405180910390f35b60008061006560014361015390919063ffffffff16565b4060001c9050806002540361007957600080fd5b8060028190555060006100976001548361016990919063ffffffff16565b90506000600182146100aa5760006100ad565b60015b905060008054906101000a900473ffffffffffffffffffffffffffffffffffffffff1673ffffffffffffffffffffffffffffffffffffffff16631d263f67826040518263ffffffff1660e01b8152600401610108919061019a565b6020604051808303816000875af1158015610127573d6000803e3d6000fd5b505050506040513d601f19601f8201168201806040525081019061014b91906101e6565b935050505090565b60008183610161919061024c565b905092915050565b6000818361017791906102af565b905092915050565b60008115159050919050565b6101948161017f565b82525050565b60006020820190506101af600083018461018b565b92915050565b600080fd5b6101c38161017f565b81146101ce57600080fd5b50565b6000815190506101e0816101ba565b92915050565b6000602082840312156101fc576101fb6101b5565b5b600061020a848285016101d1565b91505092915050565b6000819050919050565b7f4e487b7100000000000000000000000000000000000000000000000000000000600052601160045260246000fd5b600061025782610213565b915061026283610213565b9250828210156102755761027461021d565b5b828203905092915050565b7f4e487b7100000000000000000000000000000000000000000000000000000000600052601260045260246000fd5b60006102ba82610213565b91506102c583610213565b9250826102d5576102d4610280565b5b82820490509291505056fea2646970667358221220c148fb0b6fb6164cccf476c88e2818335747c6589bdc5e2f8a1c0189ff359f0564736f6c634300080d0033",
  "linkReferences": {},
  "deployedLinkReferences": {}
}