{
  "_format": "hh-sol-artifact-1",
  "contractName": "Telephone",
  "sourceName": "contracts/Telephone.sol",
  "abi": [
    {
      "inputs": [
        {
          "internalType": "address",
          "name": "_addr",
          "type": "address"
        }
      ],
      "stateMutability": "nonpayable",
      "type": "constructor"
    },
    {
      "inputs": [
        {
          "internalType": "address",
          "name": "_owner",
          "type": "address"
        }
      ],
      "name": "change",
      "outputs": [],
      "stateMutability": "nonpayable",
      "type": "function"
    }
  ],
  "bytecode": "0x608060405234801561001057600080fd5b506040516102e13803806102e1833981810160405281019061003291906100db565b806000806101000a81548173ffffffffffffffffffffffffffffffffffffffff021916908373ffffffffffffffffffffffffffffffffffffffff16021790555050610108565b600080fd5b600073ffffffffffffffffffffffffffffffffffffffff82169050919050565b60006100a88261007d565b9050919050565b6100b88161009d565b81146100c357600080fd5b50565b6000815190506100d5816100af565b92915050565b6000602082840312156100f1576100f0610078565b5b60006100ff848285016100c6565b91505092915050565b6101ca806101176000396000f3fe608060405234801561001057600080fd5b506004361061002b5760003560e01c80631e77933e14610030575b600080fd5b61004a6004803603810190610045919061013d565b61004c565b005b60008054906101000a900473ffffffffffffffffffffffffffffffffffffffff1673ffffffffffffffffffffffffffffffffffffffff1663a6f9dae1826040518263ffffffff1660e01b81526004016100a59190610179565b600060405180830381600087803b1580156100bf57600080fd5b505af11580156100d3573d6000803e3d6000fd5b5050505050565b600080fd5b600073ffffffffffffffffffffffffffffffffffffffff82169050919050565b600061010a826100df565b9050919050565b61011a816100ff565b811461012557600080fd5b50565b60008135905061013781610111565b92915050565b600060208284031215610153576101526100da565b5b600061016184828501610128565b91505092915050565b610173816100ff565b82525050565b600060208201905061018e600083018461016a565b9291505056fea26469706673582212200173431cffb21186ecb7ffcb4afccdc9698fb4beaf6512e5723d20f38e1e942264736f6c634300080d0033",
  "linkReferences": {},
  "deployedLinkReferences": {}
}