{
  "_format": "hh-sol-artifact-1",
  "contractName": "Incrementor",
  "sourceName": "contracts/Incrementor.sol",
  "abi": [
    {
      "inputs": [],
      "name": "AddressAlreadyAdded",
      "type": "error"
    },
    {
      "inputs": [],
      "name": "AdminBadRole",
      "type": "error"
    },
    {
      "inputs": [],
      "name": "CallProxyBadRole",
      "type": "error"
    },
    {
      "inputs": [],
      "name": "ChainToIsNotSupported",
      "type": "error"
    },
    {
      "inputs": [
        {
          "internalType": "bytes",
          "name": "nativeSender",
          "type": "bytes"
        },
        {
          "internalType": "uint256",
          "name": "chainIdFrom",
          "type": "uint256"
        }
      ],
      "name": "NativeSenderBadRole",
      "type": "error"
    },
    {
      "inputs": [],
      "name": "RemovingMissingAddress",
      "type": "error"
    },
    {
      "anonymous": false,
      "inputs": [
        {
          "indexed": false,
          "internalType": "address",
          "name": "newAddress",
          "type": "address"
        },
        {
          "indexed": false,
          "internalType": "uint256",
          "name": "chainIdTo",
          "type": "uint256"
        }
      ],
      "name": "ContractAddressOnChainIdUpdated",
      "type": "event"
    },
    {
      "anonymous": false,
      "inputs": [
        {
          "indexed": false,
          "internalType": "bytes",
          "name": "nativeSender",
          "type": "bytes"
        },
        {
          "indexed": false,
          "internalType": "uint256",
          "name": "chainIdFrom",
          "type": "uint256"
        },
        {
          "indexed": false,
          "internalType": "bool",
          "name": "enabled",
          "type": "bool"
        }
      ],
      "name": "ControllingAddressUpdated",
      "type": "event"
    },
    {
      "anonymous": false,
      "inputs": [
        {
          "indexed": false,
          "internalType": "uint8",
          "name": "version",
          "type": "uint8"
        }
      ],
      "name": "Initialized",
      "type": "event"
    },
    {
      "anonymous": false,
      "inputs": [
        {
          "indexed": false,
          "internalType": "address",
          "name": "account",
          "type": "address"
        }
      ],
      "name": "Paused",
      "type": "event"
    },
    {
      "anonymous": false,
      "inputs": [
        {
          "indexed": true,
          "internalType": "bytes32",
          "name": "role",
          "type": "bytes32"
        },
        {
          "indexed": true,
          "internalType": "bytes32",
          "name": "previousAdminRole",
          "type": "bytes32"
        },
        {
          "indexed": true,
          "internalType": "bytes32",
          "name": "newAdminRole",
          "type": "bytes32"
        }
      ],
      "name": "RoleAdminChanged",
      "type": "event"
    },
    {
      "anonymous": false,
      "inputs": [
        {
          "indexed": true,
          "internalType": "bytes32",
          "name": "role",
          "type": "bytes32"
        },
        {
          "indexed": true,
          "internalType": "address",
          "name": "account",
          "type": "address"
        },
        {
          "indexed": true,
          "internalType": "address",
          "name": "sender",
          "type": "address"
        }
      ],
      "name": "RoleGranted",
      "type": "event"
    },
    {
      "anonymous": false,
      "inputs": [
        {
          "indexed": true,
          "internalType": "bytes32",
          "name": "role",
          "type": "bytes32"
        },
        {
          "indexed": true,
          "internalType": "address",
          "name": "account",
          "type": "address"
        },
        {
          "indexed": true,
          "internalType": "address",
          "name": "sender",
          "type": "address"
        }
      ],
      "name": "RoleRevoked",
      "type": "event"
    },
    {
      "anonymous": false,
      "inputs": [
        {
          "indexed": false,
          "internalType": "address",
          "name": "account",
          "type": "address"
        }
      ],
      "name": "Unpaused",
      "type": "event"
    },
    {
      "inputs": [],
      "name": "DEFAULT_ADMIN_ROLE",
      "outputs": [
        {
          "internalType": "bytes32",
          "name": "",
          "type": "bytes32"
        }
      ],
      "stateMutability": "view",
      "type": "function"
    },
    {
      "inputs": [
        {
          "internalType": "bytes",
          "name": "_nativeSender",
          "type": "bytes"
        },
        {
          "internalType": "uint256",
          "name": "_chainIdFrom",
          "type": "uint256"
        }
      ],
      "name": "addControllingAddress",
      "outputs": [],
      "stateMutability": "nonpayable",
      "type": "function"
    },
    {
      "inputs": [
        {
          "internalType": "uint256",
          "name": "",
          "type": "uint256"
        }
      ],
      "name": "chainIdToContractAddress",
      "outputs": [
        {
          "internalType": "address",
          "name": "",
          "type": "address"
        }
      ],
      "stateMutability": "view",
      "type": "function"
    },
    {
      "inputs": [],
      "name": "claimedTimes",
      "outputs": [
        {
          "internalType": "uint256",
          "name": "",
          "type": "uint256"
        }
      ],
      "stateMutability": "view",
      "type": "function"
    },
    {
      "inputs": [],
      "name": "deBridgeGate",
      "outputs": [
        {
          "internalType": "contract IDeBridgeGate",
          "name": "",
          "type": "address"
        }
      ],
      "stateMutability": "view",
      "type": "function"
    },
    {
      "inputs": [],
      "name": "getChainId",
      "outputs": [
        {
          "internalType": "uint256",
          "name": "cid",
          "type": "uint256"
        }
      ],
      "stateMutability": "view",
      "type": "function"
    },
    {
      "inputs": [
        {
          "internalType": "uint256",
          "name": "_chainId",
          "type": "uint256"
        },
        {
          "internalType": "address",
          "name": "_tokenAddress",
          "type": "address"
        }
      ],
      "name": "getDebridgeId",
      "outputs": [
        {
          "internalType": "bytes32",
          "name": "",
          "type": "bytes32"
        }
      ],
      "stateMutability": "pure",
      "type": "function"
    },
    {
      "inputs": [
        {
          "internalType": "bytes32",
          "name": "role",
          "type": "bytes32"
        }
      ],
      "name": "getRoleAdmin",
      "outputs": [
        {
          "internalType": "bytes32",
          "name": "",
          "type": "bytes32"
        }
      ],
      "stateMutability": "view",
      "type": "function"
    },
    {
      "inputs": [
        {
          "internalType": "bytes32",
          "name": "role",
          "type": "bytes32"
        },
        {
          "internalType": "address",
          "name": "account",
          "type": "address"
        }
      ],
      "name": "grantRole",
      "outputs": [],
      "stateMutability": "nonpayable",
      "type": "function"
    },
    {
      "inputs": [
        {
          "internalType": "bytes32",
          "name": "role",
          "type": "bytes32"
        },
        {
          "internalType": "address",
          "name": "account",
          "type": "address"
        }
      ],
      "name": "hasRole",
      "outputs": [
        {
          "internalType": "bool",
          "name": "",
          "type": "bool"
        }
      ],
      "stateMutability": "view",
      "type": "function"
    },
    {
      "inputs": [
        {
          "internalType": "contract IDeBridgeGate",
          "name": "_deBridgeGate",
          "type": "address"
        }
      ],
      "name": "initialize",
      "outputs": [],
      "stateMutability": "nonpayable",
      "type": "function"
    },
    {
      "inputs": [
        {
          "internalType": "uint256",
          "name": "",
          "type": "uint256"
        },
        {
          "internalType": "bytes",
          "name": "",
          "type": "bytes"
        }
      ],
      "name": "isAddressFromChainIdControlling",
      "outputs": [
        {
          "internalType": "bool",
          "name": "",
          "type": "bool"
        }
      ],
      "stateMutability": "view",
      "type": "function"
    },
    {
      "inputs": [
        {
          "internalType": "bytes",
          "name": "_nativeSender",
          "type": "bytes"
        },
        {
          "internalType": "uint256",
          "name": "_chainIdFrom",
          "type": "uint256"
        }
      ],
      "name": "isControllingAddress",
      "outputs": [
        {
          "internalType": "bool",
          "name": "",
          "type": "bool"
        }
      ],
      "stateMutability": "view",
      "type": "function"
    },
    {
      "inputs": [],
      "name": "onBridgedMessage",
      "outputs": [
        {
          "internalType": "bool",
          "name": "",
          "type": "bool"
        }
      ],
      "stateMutability": "nonpayable",
      "type": "function"
    },
    {
      "inputs": [],
      "name": "pause",
      "outputs": [],
      "stateMutability": "nonpayable",
      "type": "function"
    },
    {
      "inputs": [],
      "name": "paused",
      "outputs": [
        {
          "internalType": "bool",
          "name": "",
          "type": "bool"
        }
      ],
      "stateMutability": "view",
      "type": "function"
    },
    {
      "inputs": [
        {
          "internalType": "bytes",
          "name": "_nativeSender",
          "type": "bytes"
        },
        {
          "internalType": "uint256",
          "name": "_chainIdFrom",
          "type": "uint256"
        }
      ],
      "name": "removeControllingAddress",
      "outputs": [],
      "stateMutability": "nonpayable",
      "type": "function"
    },
    {
      "inputs": [
        {
          "internalType": "bytes32",
          "name": "role",
          "type": "bytes32"
        },
        {
          "internalType": "address",
          "name": "account",
          "type": "address"
        }
      ],
      "name": "renounceRole",
      "outputs": [],
      "stateMutability": "nonpayable",
      "type": "function"
    },
    {
      "inputs": [
        {
          "internalType": "bytes32",
          "name": "role",
          "type": "bytes32"
        },
        {
          "internalType": "address",
          "name": "account",
          "type": "address"
        }
      ],
      "name": "revokeRole",
      "outputs": [],
      "stateMutability": "nonpayable",
      "type": "function"
    },
    {
      "inputs": [
        {
          "internalType": "uint256",
          "name": "_chainIdTo",
          "type": "uint256"
        },
        {
          "internalType": "address",
          "name": "_fallback",
          "type": "address"
        },
        {
          "internalType": "uint256",
          "name": "_executionFee",
          "type": "uint256"
        }
      ],
      "name": "send",
      "outputs": [],
      "stateMutability": "payable",
      "type": "function"
    },
    {
      "inputs": [
        {
          "internalType": "address",
          "name": "_address",
          "type": "address"
        },
        {
          "internalType": "uint256",
          "name": "_chainIdTo",
          "type": "uint256"
        }
      ],
      "name": "setContractAddressOnChainId",
      "outputs": [],
      "stateMutability": "nonpayable",
      "type": "function"
    },
    {
      "inputs": [
        {
          "internalType": "bytes4",
          "name": "interfaceId",
          "type": "bytes4"
        }
      ],
      "name": "supportsInterface",
      "outputs": [
        {
          "internalType": "bool",
          "name": "",
          "type": "bool"
        }
      ],
      "stateMutability": "view",
      "type": "function"
    },
    {
      "inputs": [],
      "name": "unpause",
      "outputs": [],
      "stateMutability": "nonpayable",
      "type": "function"
    },
    {
      "inputs": [],
      "name": "version",
      "outputs": [
        {
          "internalType": "uint256",
          "name": "",
          "type": "uint256"
        }
      ],
      "stateMutability": "pure",
      "type": "function"
    }
  ],
  "bytecode": "0x608060405234801561001057600080fd5b50612fe2806100206000396000f3fe60806040526004361061014b5760003560e01c80636586f26b116100b6578063a217fddf1161006f578063a217fddf14610481578063c4d66de8146104ac578063ca777fbf146104d5578063cb05929414610500578063d547741f1461053d578063fd087793146105665761014b565b80636586f26b1461038257806381b34f15146103ab5780638456cb59146103c757806391d14854146103de5780639682b9091461041b578063a00461aa146104585761014b565b806336568abe1161010857806336568abe146102845780633f4ba83a146102ad5780635062a2b0146102c457806354fd4d50146103015780635c975abb1461032c57806364ba47ec146103575761014b565b806301ffc9a714610150578063248a9ca31461018d5780632c13e57c146101ca5780632f2ff15d146101f357806330a37ce71461021c5780633408e47014610259575b600080fd5b34801561015c57600080fd5b5061017760048036038101906101729190611e0a565b610591565b6040516101849190611e52565b60405180910390f35b34801561019957600080fd5b506101b460048036038101906101af9190611ea3565b61060b565b6040516101c19190611edf565b60405180910390f35b3480156101d657600080fd5b506101f160048036038101906101ec9190612076565b61062b565b005b3480156101ff57600080fd5b5061021a60048036038101906102159190612130565b61076a565b005b34801561022857600080fd5b50610243600480360381019061023e9190612170565b61078b565b6040516102509190611e52565b60405180910390f35b34801561026557600080fd5b5061026e6107d0565b60405161027b91906121db565b60405180910390f35b34801561029057600080fd5b506102ab60048036038101906102a69190612130565b6107d8565b005b3480156102b957600080fd5b506102c261085b565b005b3480156102d057600080fd5b506102eb60048036038101906102e69190612076565b6108a8565b6040516102f89190611e52565b60405180910390f35b34801561030d57600080fd5b506103166108ef565b60405161032391906121db565b60405180910390f35b34801561033857600080fd5b506103416108f8565b60405161034e9190611e52565b60405180910390f35b34801561036357600080fd5b5061036c61090f565b6040516103799190611e52565b60405180910390f35b34801561038e57600080fd5b506103a960048036038101906103a491906121f6565b610be3565b005b6103c560048036038101906103c09190612236565b610cb5565b005b3480156103d357600080fd5b506103dc610f88565b005b3480156103ea57600080fd5b5061040560048036038101906104009190612130565b610fd5565b6040516104129190611e52565b60405180910390f35b34801561042757600080fd5b50610442600480360381019061043d9190612289565b611040565b60405161044f9190611edf565b60405180910390f35b34801561046457600080fd5b5061047f600480360381019061047a9190612076565b611073565b005b34801561048d57600080fd5b506104966111b1565b6040516104a39190611edf565b60405180910390f35b3480156104b857600080fd5b506104d360048036038101906104ce9190612307565b6111b8565b005b3480156104e157600080fd5b506104ea611256565b6040516104f79190612393565b60405180910390f35b34801561050c57600080fd5b50610527600480360381019061052291906123ae565b61127c565b60405161053491906123ea565b60405180910390f35b34801561054957600080fd5b50610564600480360381019061055f9190612130565b6112af565b005b34801561057257600080fd5b5061057b6112d0565b60405161058891906121db565b60405180910390f35b60007f7965db0b000000000000000000000000000000000000000000000000000000007bffffffffffffffffffffffffffffffffffffffffffffffffffffffff1916827bffffffffffffffffffffffffffffffffffffffffffffffffffffffff191614806106045750610603826112d6565b5b9050919050565b600060656000838152602001908152602001600020600101549050919050565b6106386000801b33610fd5565b61066e576040517fde8e41fa00000000000000000000000000000000000000000000000000000000815260040160405180910390fd5b60ca60008281526020019081526020016000208260405161068f919061247f565b908152602001604051809103902060009054906101000a900460ff16156106e2576040517f6d09561c00000000000000000000000000000000000000000000000000000000815260040160405180910390fd5b600160ca600083815260200190815260200160002083604051610705919061247f565b908152602001604051809103902060006101000a81548160ff0219169083151502179055507f75444ea1b32c6bc7d5884fdd431cab59bc347958a5a88eb42c31b1cd833f4c798282600160405161075e939291906124e0565b60405180910390a15050565b6107738261060b565b61077c81611340565b6107868383611354565b505050565b60ca602052816000526040600020818051602081018201805184825260208301602085012081835280955050505050506000915091509054906101000a900460ff1681565b600046905090565b6107e0611435565b73ffffffffffffffffffffffffffffffffffffffff168173ffffffffffffffffffffffffffffffffffffffff161461084d576040517f08c379a0000000000000000000000000000000000000000000000000000000008152600401610844906125a1565b60405180910390fd5b610857828261143d565b5050565b6108686000801b33610fd5565b61089e576040517fde8e41fa00000000000000000000000000000000000000000000000000000000815260040160405180910390fd5b6108a661151f565b565b600060ca6000838152602001908152602001600020836040516108cb919061247f565b908152602001604051809103902060009054906101000a900460ff16905092915050565b60006065905090565b6000609760009054906101000a900460ff16905090565b60008060c960009054906101000a900473ffffffffffffffffffffffffffffffffffffffff1673ffffffffffffffffffffffffffffffffffffffff16632da688ac6040518163ffffffff1660e01b8152600401602060405180830381865afa15801561097f573d6000803e3d6000fd5b505050506040513d601f19601f820116820180604052508101906109a391906125d6565b90503373ffffffffffffffffffffffffffffffffffffffff168173ffffffffffffffffffffffffffffffffffffffff1614610a0a576040517f910e7d9c00000000000000000000000000000000000000000000000000000000815260040160405180910390fd5b60008173ffffffffffffffffffffffffffffffffffffffff16632eb484916040518163ffffffff1660e01b81526004016000604051808303816000875af1158015610a59573d6000803e3d6000fd5b505050506040513d6000823e3d601f19601f82011682018060405250810190610a829190612673565b905060008273ffffffffffffffffffffffffffffffffffffffff1663508ab0a06040518163ffffffff1660e01b81526004016020604051808303816000875af1158015610ad3573d6000803e3d6000fd5b505050506040513d601f19601f82011682018060405250810190610af791906126d1565b905060ca600082815260200190815260200160002082604051610b1a919061247f565b908152602001604051809103902060009054906101000a900460ff16610b795781816040517f0f25bbaa000000000000000000000000000000000000000000000000000000008152600401610b709291906126fe565b60405180910390fd5b610b816108f8565b15610bc1576040517f08c379a0000000000000000000000000000000000000000000000000000000008152600401610bb89061277a565b60405180910390fd5b60cc6000815480929190610bd4906127c9565b91905055506001935050505090565b610bf06000801b33610fd5565b610c26576040517fde8e41fa00000000000000000000000000000000000000000000000000000000815260040160405180910390fd5b8160cb600083815260200190815260200160002060006101000a81548173ffffffffffffffffffffffffffffffffffffffff021916908373ffffffffffffffffffffffffffffffffffffffff1602179055507f97eb0846ca97e409f9879b45a795fe55abf0dabdcf54c2bc4eaa07c14221195a8282604051610ca9929190612811565b60405180910390a15050565b610cbd6108f8565b15610cfd576040517f08c379a0000000000000000000000000000000000000000000000000000000008152600401610cf49061277a565b60405180910390fd5b610d05611d76565b610d1f60018083602001516115c19092919063ffffffff16565b816020018181525050610d436002600183602001516115c19092919063ffffffff16565b8160200181815250508181600001818152505082604051602001610d679190612882565b60405160208183030381529060405281604001819052506040516024016040516020818303038152906040527f64ba47ec000000000000000000000000000000000000000000000000000000007bffffffffffffffffffffffffffffffffffffffffffffffffffffffff19166020820180517bffffffffffffffffffffffffffffffffffffffffffffffffffffffff83818316178352505050508160600181905250600060cb600086815260200190815260200160002060009054906101000a900473ffffffffffffffffffffffffffffffffffffffff169050600073ffffffffffffffffffffffffffffffffffffffff168173ffffffffffffffffffffffffffffffffffffffff1603610ea7576040517f864bf4d600000000000000000000000000000000000000000000000000000000815260040160405180910390fd5b60c960009054906101000a900473ffffffffffffffffffffffffffffffffffffffff1673ffffffffffffffffffffffffffffffffffffffff1663be297476346000348986604051602001610efb9190612882565b6040516020818303038152906040526000808a604051602001610f1e9190612960565b6040516020818303038152906040526040518963ffffffff1660e01b8152600401610f4f97969594939291906129f3565b6000604051808303818588803b158015610f6857600080fd5b505af1158015610f7c573d6000803e3d6000fd5b50505050505050505050565b610f956000801b33610fd5565b610fcb576040517fde8e41fa00000000000000000000000000000000000000000000000000000000815260040160405180910390fd5b610fd36115e9565b565b60006065600084815260200190815260200160002060000160008373ffffffffffffffffffffffffffffffffffffffff1673ffffffffffffffffffffffffffffffffffffffff16815260200190815260200160002060009054906101000a900460ff16905092915050565b60008282604051602001611055929190612aa5565b60405160208183030381529060405280519060200120905092915050565b6110806000801b33610fd5565b6110b6576040517fde8e41fa00000000000000000000000000000000000000000000000000000000815260040160405180910390fd5b60ca6000828152602001908152602001600020826040516110d7919061247f565b908152602001604051809103902060009054906101000a900460ff16611129576040517f6d4568c600000000000000000000000000000000000000000000000000000000815260040160405180910390fd5b600060ca60008381526020019081526020016000208360405161114c919061247f565b908152602001604051809103902060006101000a81548160ff0219169083151502179055507f75444ea1b32c6bc7d5884fdd431cab59bc347958a5a88eb42c31b1cd833f4c79828260006040516111a5939291906124e0565b60405180910390a15050565b6000801b81565b60006111c4600161168c565b905080156111e8576001600060016101000a81548160ff0219169083151502179055505b6111f18261177c565b600060cc8190555080156112525760008060016101000a81548160ff0219169083151502179055507f7f26b83ff96e1f2b6a682f133852f6798a09c465da95921460cefb384740249860016040516112499190612b19565b60405180910390a15b5050565b60c960009054906101000a900473ffffffffffffffffffffffffffffffffffffffff1681565b60cb6020528060005260406000206000915054906101000a900473ffffffffffffffffffffffffffffffffffffffff1681565b6112b88261060b565b6112c181611340565b6112cb838361143d565b505050565b60cc5481565b60007f01ffc9a7000000000000000000000000000000000000000000000000000000007bffffffffffffffffffffffffffffffffffffffffffffffffffffffff1916827bffffffffffffffffffffffffffffffffffffffffffffffffffffffff1916149050919050565b6113518161134c611435565b611832565b50565b61135e8282610fd5565b6114315760016065600084815260200190815260200160002060000160008373ffffffffffffffffffffffffffffffffffffffff1673ffffffffffffffffffffffffffffffffffffffff16815260200190815260200160002060006101000a81548160ff0219169083151502179055506113d6611435565b73ffffffffffffffffffffffffffffffffffffffff168173ffffffffffffffffffffffffffffffffffffffff16837f2f8788117e7eff1d82e926ec794901d17c78024a50270940304540a733656f0d60405160405180910390a45b5050565b600033905090565b6114478282610fd5565b1561151b5760006065600084815260200190815260200160002060000160008373ffffffffffffffffffffffffffffffffffffffff1673ffffffffffffffffffffffffffffffffffffffff16815260200190815260200160002060006101000a81548160ff0219169083151502179055506114c0611435565b73ffffffffffffffffffffffffffffffffffffffff168173ffffffffffffffffffffffffffffffffffffffff16837ff6391f5c32d9c69d2a47ea670b442974b53935d1edc7fd64eb21e047a839171b60405160405180910390a45b5050565b6115276108f8565b611566576040517f08c379a000000000000000000000000000000000000000000000000000000000815260040161155d90612b80565b60405180910390fd5b6000609760006101000a81548160ff0219169083151502179055507f5db9ee0a495bf2e6ff9c91a7834c1ba4fdd244a5e8aa4e537bd38aeae4b073aa6115aa611435565b6040516115b791906123ea565b60405180910390a1565b600081156115d757826001901b841790506115e2565b826001901b19841690505b9392505050565b6115f16108f8565b15611631576040517f08c379a00000000000000000000000000000000000000000000000000000000081526004016116289061277a565b60405180910390fd5b6001609760006101000a81548160ff0219169083151502179055507f62e78cea01bee320cd4e420270b5ea74000d11b0c9f74754ebdbfc544b05a258611675611435565b60405161168291906123ea565b60405180910390a1565b60008060019054906101000a900460ff16156117035760018260ff161480156116bb57506116b9306118cf565b155b6116fa576040517f08c379a00000000000000000000000000000000000000000000000000000000081526004016116f190612c12565b60405180910390fd5b60009050611777565b8160ff1660008054906101000a900460ff1660ff1610611758576040517f08c379a000000000000000000000000000000000000000000000000000000000815260040161174f90612c12565b60405180910390fd5b816000806101000a81548160ff021916908360ff160217905550600190505b919050565b6000611788600161168c565b905080156117ac576001600060016101000a81548160ff0219169083151502179055505b6117b46118f2565b6117bc611943565b6117c4611994565b6117cc6119e5565b6117d582611a51565b801561182e5760008060016101000a81548160ff0219169083151502179055507f7f26b83ff96e1f2b6a682f133852f6798a09c465da95921460cefb384740249860016040516118259190612b19565b60405180910390a15b5050565b61183c8282610fd5565b6118cb576118618173ffffffffffffffffffffffffffffffffffffffff166014611b2c565b61186f8360001c6020611b2c565b604051602001611880929190612d11565b6040516020818303038152906040526040517f08c379a00000000000000000000000000000000000000000000000000000000081526004016118c29190612d84565b60405180910390fd5b5050565b6000808273ffffffffffffffffffffffffffffffffffffffff163b119050919050565b600060019054906101000a900460ff16611941576040517f08c379a000000000000000000000000000000000000000000000000000000000815260040161193890612e18565b60405180910390fd5b565b600060019054906101000a900460ff16611992576040517f08c379a000000000000000000000000000000000000000000000000000000000815260040161198990612e18565b60405180910390fd5b565b600060019054906101000a900460ff166119e3576040517f08c379a00000000000000000000000000000000000000000000000000000000081526004016119da90612e18565b60405180910390fd5b565b600060019054906101000a900460ff16611a34576040517f08c379a0000000000000000000000000000000000000000000000000000000008152600401611a2b90612e18565b60405180910390fd5b6000609760006101000a81548160ff021916908315150217905550565b6000611a5d600161168c565b90508015611a81576001600060016101000a81548160ff0219169083151502179055505b8160c960006101000a81548173ffffffffffffffffffffffffffffffffffffffff021916908373ffffffffffffffffffffffffffffffffffffffff160217905550611acf6000801b33611d68565b8015611b285760008060016101000a81548160ff0219169083151502179055507f7f26b83ff96e1f2b6a682f133852f6798a09c465da95921460cefb38474024986001604051611b1f9190612b19565b60405180910390a15b5050565b606060006002836002611b3f9190612e38565b611b499190612e92565b67ffffffffffffffff811115611b6257611b61611f15565b5b6040519080825280601f01601f191660200182016040528015611b945781602001600182028036833780820191505090505b5090507f300000000000000000000000000000000000000000000000000000000000000081600081518110611bcc57611bcb612ee8565b5b60200101907effffffffffffffffffffffffffffffffffffffffffffffffffffffffffffff1916908160001a9053507f780000000000000000000000000000000000000000000000000000000000000081600181518110611c3057611c2f612ee8565b5b60200101907effffffffffffffffffffffffffffffffffffffffffffffffffffffffffffff1916908160001a90535060006001846002611c709190612e38565b611c7a9190612e92565b90505b6001811115611d1a577f3031323334353637383961626364656600000000000000000000000000000000600f861660108110611cbc57611cbb612ee8565b5b1a60f81b828281518110611cd357611cd2612ee8565b5b60200101907effffffffffffffffffffffffffffffffffffffffffffffffffffffffffffff1916908160001a905350600485901c945080611d1390612f17565b9050611c7d565b5060008414611d5e576040517f08c379a0000000000000000000000000000000000000000000000000000000008152600401611d5590612f8c565b60405180910390fd5b8091505092915050565b611d728282611354565b5050565b6040518060800160405280600081526020016000815260200160608152602001606081525090565b6000604051905090565b600080fd5b600080fd5b60007fffffffff0000000000000000000000000000000000000000000000000000000082169050919050565b611de781611db2565b8114611df257600080fd5b50565b600081359050611e0481611dde565b92915050565b600060208284031215611e2057611e1f611da8565b5b6000611e2e84828501611df5565b91505092915050565b60008115159050919050565b611e4c81611e37565b82525050565b6000602082019050611e676000830184611e43565b92915050565b6000819050919050565b611e8081611e6d565b8114611e8b57600080fd5b50565b600081359050611e9d81611e77565b92915050565b600060208284031215611eb957611eb8611da8565b5b6000611ec784828501611e8e565b91505092915050565b611ed981611e6d565b82525050565b6000602082019050611ef46000830184611ed0565b92915050565b600080fd5b600080fd5b6000601f19601f8301169050919050565b7f4e487b7100000000000000000000000000000000000000000000000000000000600052604160045260246000fd5b611f4d82611f04565b810181811067ffffffffffffffff82111715611f6c57611f6b611f15565b5b80604052505050565b6000611f7f611d9e565b9050611f8b8282611f44565b919050565b600067ffffffffffffffff821115611fab57611faa611f15565b5b611fb482611f04565b9050602081019050919050565b82818337600083830152505050565b6000611fe3611fde84611f90565b611f75565b905082815260208101848484011115611fff57611ffe611eff565b5b61200a848285611fc1565b509392505050565b600082601f83011261202757612026611efa565b5b8135612037848260208601611fd0565b91505092915050565b6000819050919050565b61205381612040565b811461205e57600080fd5b50565b6000813590506120708161204a565b92915050565b6000806040838503121561208d5761208c611da8565b5b600083013567ffffffffffffffff8111156120ab576120aa611dad565b5b6120b785828601612012565b92505060206120c885828601612061565b9150509250929050565b600073ffffffffffffffffffffffffffffffffffffffff82169050919050565b60006120fd826120d2565b9050919050565b61210d816120f2565b811461211857600080fd5b50565b60008135905061212a81612104565b92915050565b6000806040838503121561214757612146611da8565b5b600061215585828601611e8e565b92505060206121668582860161211b565b9150509250929050565b6000806040838503121561218757612186611da8565b5b600061219585828601612061565b925050602083013567ffffffffffffffff8111156121b6576121b5611dad565b5b6121c285828601612012565b9150509250929050565b6121d581612040565b82525050565b60006020820190506121f060008301846121cc565b92915050565b6000806040838503121561220d5761220c611da8565b5b600061221b8582860161211b565b925050602061222c85828601612061565b9150509250929050565b60008060006060848603121561224f5761224e611da8565b5b600061225d86828701612061565b935050602061226e8682870161211b565b925050604061227f86828701612061565b9150509250925092565b600080604083850312156122a05761229f611da8565b5b60006122ae85828601612061565b92505060206122bf8582860161211b565b9150509250929050565b60006122d4826120f2565b9050919050565b6122e4816122c9565b81146122ef57600080fd5b50565b600081359050612301816122db565b92915050565b60006020828403121561231d5761231c611da8565b5b600061232b848285016122f2565b91505092915050565b6000819050919050565b600061235961235461234f846120d2565b612334565b6120d2565b9050919050565b600061236b8261233e565b9050919050565b600061237d82612360565b9050919050565b61238d81612372565b82525050565b60006020820190506123a86000830184612384565b92915050565b6000602082840312156123c4576123c3611da8565b5b60006123d284828501612061565b91505092915050565b6123e4816120f2565b82525050565b60006020820190506123ff60008301846123db565b92915050565b600081519050919050565b600081905092915050565b60005b8381101561243957808201518184015260208101905061241e565b83811115612448576000848401525b50505050565b600061245982612405565b6124638185612410565b935061247381856020860161241b565b80840191505092915050565b600061248b828461244e565b915081905092915050565b600082825260208201905092915050565b60006124b282612405565b6124bc8185612496565b93506124cc81856020860161241b565b6124d581611f04565b840191505092915050565b600060608201905081810360008301526124fa81866124a7565b905061250960208301856121cc565b6125166040830184611e43565b949350505050565b600082825260208201905092915050565b7f416363657373436f6e74726f6c3a2063616e206f6e6c792072656e6f756e636560008201527f20726f6c657320666f722073656c660000000000000000000000000000000000602082015250565b600061258b602f8361251e565b91506125968261252f565b604082019050919050565b600060208201905081810360008301526125ba8161257e565b9050919050565b6000815190506125d081612104565b92915050565b6000602082840312156125ec576125eb611da8565b5b60006125fa848285016125c1565b91505092915050565b600061261661261184611f90565b611f75565b90508281526020810184848401111561263257612631611eff565b5b61263d84828561241b565b509392505050565b600082601f83011261265a57612659611efa565b5b815161266a848260208601612603565b91505092915050565b60006020828403121561268957612688611da8565b5b600082015167ffffffffffffffff8111156126a7576126a6611dad565b5b6126b384828501612645565b91505092915050565b6000815190506126cb8161204a565b92915050565b6000602082840312156126e7576126e6611da8565b5b60006126f5848285016126bc565b91505092915050565b6000604082019050818103600083015261271881856124a7565b905061272760208301846121cc565b9392505050565b7f5061757361626c653a2070617573656400000000000000000000000000000000600082015250565b600061276460108361251e565b915061276f8261272e565b602082019050919050565b6000602082019050818103600083015261279381612757565b9050919050565b7f4e487b7100000000000000000000000000000000000000000000000000000000600052601160045260246000fd5b60006127d482612040565b91507fffffffffffffffffffffffffffffffffffffffffffffffffffffffffffffffff82036128065761280561279a565b5b600182019050919050565b600060408201905061282660008301856123db565b61283360208301846121cc565b9392505050565b60008160601b9050919050565b60006128528261283a565b9050919050565b600061286482612847565b9050919050565b61287c612877826120f2565b612859565b82525050565b600061288e828461286b565b60148201915081905092915050565b6128a681612040565b82525050565b600082825260208201905092915050565b60006128c882612405565b6128d281856128ac565b93506128e281856020860161241b565b6128eb81611f04565b840191505092915050565b600060808301600083015161290e600086018261289d565b506020830151612921602086018261289d565b506040830151848203604086015261293982826128bd565b9150506060830151848203606086015261295382826128bd565b9150508091505092915050565b6000602082019050818103600083015261297a81846128f6565b905092915050565b50565b6000612992600083612496565b915061299d82612982565b600082019050919050565b6000819050919050565b600063ffffffff82169050919050565b60006129dd6129d86129d3846129a8565b612334565b6129b2565b9050919050565b6129ed816129c2565b82525050565b600061010082019050612a09600083018a6123db565b612a1660208301896121cc565b612a2360408301886121cc565b8181036060830152612a3581876124a7565b90508181036080830152612a4881612985565b9050612a5760a0830186611e43565b612a6460c08301856129e4565b81810360e0830152612a7681846124a7565b905098975050505050505050565b6000819050919050565b612a9f612a9a82612040565b612a84565b82525050565b6000612ab18285612a8e565b602082019150612ac1828461286b565b6014820191508190509392505050565b6000819050919050565b600060ff82169050919050565b6000612b03612afe612af984612ad1565b612334565b612adb565b9050919050565b612b1381612ae8565b82525050565b6000602082019050612b2e6000830184612b0a565b92915050565b7f5061757361626c653a206e6f7420706175736564000000000000000000000000600082015250565b6000612b6a60148361251e565b9150612b7582612b34565b602082019050919050565b60006020820190508181036000830152612b9981612b5d565b9050919050565b7f496e697469616c697a61626c653a20636f6e747261637420697320616c72656160008201527f647920696e697469616c697a6564000000000000000000000000000000000000602082015250565b6000612bfc602e8361251e565b9150612c0782612ba0565b604082019050919050565b60006020820190508181036000830152612c2b81612bef565b9050919050565b600081905092915050565b7f416363657373436f6e74726f6c3a206163636f756e7420000000000000000000600082015250565b6000612c73601783612c32565b9150612c7e82612c3d565b601782019050919050565b600081519050919050565b6000612c9f82612c89565b612ca98185612c32565b9350612cb981856020860161241b565b80840191505092915050565b7f206973206d697373696e6720726f6c6520000000000000000000000000000000600082015250565b6000612cfb601183612c32565b9150612d0682612cc5565b601182019050919050565b6000612d1c82612c66565b9150612d288285612c94565b9150612d3382612cee565b9150612d3f8284612c94565b91508190509392505050565b6000612d5682612c89565b612d60818561251e565b9350612d7081856020860161241b565b612d7981611f04565b840191505092915050565b60006020820190508181036000830152612d9e8184612d4b565b905092915050565b7f496e697469616c697a61626c653a20636f6e7472616374206973206e6f74206960008201527f6e697469616c697a696e67000000000000000000000000000000000000000000602082015250565b6000612e02602b8361251e565b9150612e0d82612da6565b604082019050919050565b60006020820190508181036000830152612e3181612df5565b9050919050565b6000612e4382612040565b9150612e4e83612040565b9250817fffffffffffffffffffffffffffffffffffffffffffffffffffffffffffffffff0483118215151615612e8757612e8661279a565b5b828202905092915050565b6000612e9d82612040565b9150612ea883612040565b9250827fffffffffffffffffffffffffffffffffffffffffffffffffffffffffffffffff03821115612edd57612edc61279a565b5b828201905092915050565b7f4e487b7100000000000000000000000000000000000000000000000000000000600052603260045260246000fd5b6000612f2282612040565b915060008203612f3557612f3461279a565b5b600182039050919050565b7f537472696e67733a20686578206c656e67746820696e73756666696369656e74600082015250565b6000612f7660208361251e565b9150612f8182612f40565b602082019050919050565b60006020820190508181036000830152612fa581612f69565b905091905056fea26469706673582212205b9567eb224697f76c52e7ae4a978d08b818a1ae82f9b2b25f1a24da0b8599d864736f6c634300080d0033",
  "linkReferences": {},
  "deployedLinkReferences": {}
}