{
  "_format": "hh-sol-artifact-1",
  "contractName": "Flags",
  "sourceName": "contracts/Flags.sol",
  "abi": [
    {
      "inputs": [],
      "name": "PROXY_WITH_SENDER",
      "outputs": [
        {
          "internalType": "uint256",
          "name": "",
          "type": "uint256"
        }
      ],
      "stateMutability": "view",
      "type": "function"
    },
    {
      "inputs": [],
      "name": "REVERT_IF_EXTERNAL_FAIL",
      "outputs": [
        {
          "internalType": "uint256",
          "name": "",
          "type": "uint256"
        }
      ],
      "stateMutability": "view",
      "type": "function"
    },
    {
      "inputs": [],
      "name": "SEND_EXTERNAL_CALL_GAS_LIMIT",
      "outputs": [
        {
          "internalType": "uint256",
          "name": "",
          "type": "uint256"
        }
      ],
      "stateMutability": "view",
      "type": "function"
    },
    {
      "inputs": [],
      "name": "SEND_HASHED_DATA",
      "outputs": [
        {
          "internalType": "uint256",
          "name": "",
          "type": "uint256"
        }
      ],
      "stateMutability": "view",
      "type": "function"
    },
    {
      "inputs": [],
      "name": "UNWRAP_ETH",
      "outputs": [
        {
          "internalType": "uint256",
          "name": "",
          "type": "uint256"
        }
      ],
      "stateMutability": "view",
      "type": "function"
    }
  ],
  "bytecode": "0x61017f610053600b82828239805160001a607314610046577f4e487b7100000000000000000000000000000000000000000000000000000000600052600060045260246000fd5b30600052607381538281f3fe73000000000000000000000000000000000000000030146080604052600436106100615760003560e01c8063222f8167146100665780633b180594146100845780637b8332f9146100a2578063878174a9146100c0578063f3ff9063146100de575b600080fd5b61006e6100fc565b60405161007b919061012e565b60405180910390f35b61008c610101565b604051610099919061012e565b60405180910390f35b6100aa610106565b6040516100b7919061012e565b60405180910390f35b6100c861010b565b6040516100d5919061012e565b60405180910390f35b6100e6610110565b6040516100f3919061012e565b60405180910390f35b600381565b600081565b600181565b600281565b600481565b6000819050919050565b61012881610115565b82525050565b6000602082019050610143600083018461011f565b9291505056fea2646970667358221220b835848877a619279bb5fc7cfa2e8a016215d57bdef5e7c6f8940a32d8d60be064736f6c634300080d0033",
  "linkReferences": {},
  "deployedLinkReferences": {}
}