{
  "_format": "hh-sol-artifact-1",
  "contractName": "Counter",
  "sourceName": "contracts/Counter.sol",
  "abi": [
    {
      "inputs": [],
      "name": "count",
      "outputs": [
        {
          "internalType": "uint256",
          "name": "",
          "type": "uint256"
        }
      ],
      "stateMutability": "view",
      "type": "function"
    },
    {
      "inputs": [],
      "name": "dec",
      "outputs": [],
      "stateMutability": "nonpayable",
      "type": "function"
    },
    {
      "inputs": [],
      "name": "get",
      "outputs": [
        {
          "internalType": "uint256",
          "name": "",
          "type": "uint256"
        }
      ],
      "stateMutability": "view",
      "type": "function"
    },
    {
      "inputs": [],
      "name": "inc",
      "outputs": [],
      "stateMutability": "nonpayable",
      "type": "function"
    },
    {
      "inputs": [
        {
          "internalType": "uint256",
          "name": "q",
          "type": "uint256"
        }
      ],
      "name": "qwe",
      "outputs": [
        {
          "internalType": "uint256",
          "name": "",
          "type": "uint256"
        }
      ],
      "stateMutability": "nonpayable",
      "type": "function"
    }
  ],
  "bytecode": "0x608060405234801561001057600080fd5b50610312806100206000396000f3fe608060405234801561001057600080fd5b50600436106100575760003560e01c806306661abd1461005c578063371303c01461007a5780636d4ce63c14610084578063b3bcfa82146100a2578063e53388f4146100ac575b600080fd5b6100646100dc565b6040516100719190610150565b60405180910390f35b6100826100e2565b005b61008c6100fd565b6040516100999190610150565b60405180910390f35b6100aa610106565b005b6100c660048036038101906100c1919061019c565b610121565b6040516100d39190610150565b60405180910390f35b60005481565b60016000808282546100f491906101f8565b92505081905550565b60008054905090565b6001600080828254610118919061024e565b92505081905550565b60006005826101309190610282565b9050919050565b6000819050919050565b61014a81610137565b82525050565b60006020820190506101656000830184610141565b92915050565b600080fd5b61017981610137565b811461018457600080fd5b50565b60008135905061019681610170565b92915050565b6000602082840312156101b2576101b161016b565b5b60006101c084828501610187565b91505092915050565b7f4e487b7100000000000000000000000000000000000000000000000000000000600052601160045260246000fd5b600061020382610137565b915061020e83610137565b9250827fffffffffffffffffffffffffffffffffffffffffffffffffffffffffffffffff03821115610243576102426101c9565b5b828201905092915050565b600061025982610137565b915061026483610137565b925082821015610277576102766101c9565b5b828203905092915050565b600061028d82610137565b915061029883610137565b9250817fffffffffffffffffffffffffffffffffffffffffffffffffffffffffffffffff04831182151516156102d1576102d06101c9565b5b82820290509291505056fea2646970667358221220872d0b31d345ce04de53759e38725a708e695a9366ebe75f5181750b14bad13864736f6c634300080d0033",
  "linkReferences": {},
  "deployedLinkReferences": {}
}